{
  "transactions": [
    {
      "hash": "0xf6cf3f7d52f4738c8d505bb6f4a0f228c65ea64b008bcf4432445b90fd6c216a",
      "transactionType": "CALL",
      "contractName": null,
      "contractAddress": "0xb2b3909661552942ae1115e9fc99df0bc93d71d0",
      "function": "summonBaal(bytes,bytes[],uint256)",
      "arguments": [
        "0x00000000000000000000000000000000000000000000000000000000000000c000000000000000000000000000000000000000000000000000000000000001000000000000000000000000000000000000000000000000000000000000000000000000000000000000000000000000000000000000000000000000000000000000000000000000000000000000000000000000000000000000000000000000000000000000000000000000000000000000000000000000000000000000000000000000000000000000000000000000000000000000000000000000000000000c48616d7a6120536861726573000000000000000000000000000000000000000000000000000000000000000000000000000000000000000000000000000000024853000000000000000000000000000000000000000000000000000000000000",
        "[0x056b0dcd00000000000000000000000000000000000000000000000000000000000000010000000000000000000000000000000000000000000000000000000000000000]",
        "0"
      ],
      "transaction": {
        "from": "0x1310cedd03cc8f6ae50f2fb93848070facb042b8",
        "to": "0xb2b3909661552942ae1115e9fc99df0bc93d71d0",
        "gas": "0x1ca6e7",
        "value": "0x0",
        "input": "0x4a8b0b32000000000000000000000000000000000000000000000000000000000000006000000000000000000000000000000000000000000000000000000000000001c00000000000000000000000000000000000000000000000000000000000000000000000000000000000000000000000000000000000000000000000000000014000000000000000000000000000000000000000000000000000000000000000c000000000000000000000000000000000000000000000000000000000000001000000000000000000000000000000000000000000000000000000000000000000000000000000000000000000000000000000000000000000000000000000000000000000000000000000000000000000000000000000000000000000000000000000000000000000000000000000000000000000000000000000000000000000000000000000000000000000000000000000000000000000000000000000000c48616d7a6120536861726573000000000000000000000000000000000000000000000000000000000000000000000000000000000000000000000000000000024853000000000000000000000000000000000000000000000000000000000000000000000000000000000000000000000000000000000000000000000000000100000000000000000000000000000000000000000000000000000000000000200000000000000000000000000000000000000000000000000000000000000044056b0dcd0000000000000000000000000000000000000000000000000000000000000001000000000000000000000000000000000000000000000000000000000000000000000000000000000000000000000000000000000000000000000000",
        "nonce": "0x1d7",
        "chainId": "0xaa36a7"
      },
      "additionalContracts": [
        {
          "transactionType": "CREATE2",
          "address": "0xf1131ba797cc60d45f64017283062d35c8498357",
          "initCode": "0x602d8060093d393df3363d3d373d3d3d363d73c650b598b095613ccddf0f49570ffa475175a5d55af43d82803e903d91602b57fd5bf3"
        },
        {
          "transactionType": "CREATE",
          "address": "0xa89a1a557b72dcee4ae0e70ed0a72d60c842f932",
          "initCode": "0x60806040526040516104c43803806104c4833981016040819052610022916102d2565b61002d82825f610034565b50506103e7565b61003d8361005f565b5f825111806100495750805b1561005a57610058838361009e565b505b505050565b610068816100ca565b6040516001600160a01b038216907fbc7cd75a20ee27fd9adebab32041f755214dbc6bffa90cc0225b39da2e5c2d3b905f90a250565b60606100c3838360405180606001604052806027815260200161049d6027913961017d565b9392505050565b6001600160a01b0381163b61013c5760405162461bcd60e51b815260206004820152602d60248201527f455243313936373a206e657720696d706c656d656e746174696f6e206973206e60448201526c1bdd08184818dbdb9d1c9858dd609a1b60648201526084015b60405180910390fd5b7f360894a13ba1a3210667c828492db98dca3e2076cc3735a920a3ca505d382bbc80546001600160a01b0319166001600160a01b0392909216919091179055565b60605f80856001600160a01b031685604051610199919061039a565b5f60405180830381855af49150503d805f81146101d1576040519150601f19603f3d011682016040523d82523d5f602084013e6101d6565b606091505b5090925090506101e8868383876101f2565b9695505050505050565b606083156102605782515f03610259576001600160a01b0385163b6102595760405162461bcd60e51b815260206004820152601d60248201527f416464726573733a2063616c6c20746f206e6f6e2d636f6e74726163740000006044820152606401610133565b508161026a565b61026a8383610272565b949350505050565b8151156102825781518083602001fd5b8060405162461bcd60e51b815260040161013391906103b5565b634e487b7160e01b5f52604160045260245ffd5b5f5b838110156102ca5781810151838201526020016102b2565b50505f910152565b5f80604083850312156102e3575f80fd5b82516001600160a01b03811681146102f9575f80fd5b60208401519092506001600160401b0380821115610315575f80fd5b818501915085601f830112610328575f80fd5b81518181111561033a5761033a61029c565b604051601f8201601f19908116603f011681019083821181831017156103625761036261029c565b8160405282815288602084870101111561037a575f80fd5b61038b8360208301602088016102b0565b80955050505050509250929050565b5f82516103ab8184602087016102b0565b9190910192915050565b602081525f82518060208401526103d38160408501602087016102b0565b601f01601f19169190910160400192915050565b60aa806103f35f395ff3fe608060405236601057600e6013565b005b600e5b601f601b6021565b6057565b565b5f60527f360894a13ba1a3210667c828492db98dca3e2076cc3735a920a3ca505d382bbc546001600160a01b031690565b905090565b365f80375f80365f845af43d5f803e8080156070573d5ff35b3d5ffdfea26469706673582212209253f76cdc4c8ae103fd1960949256707c12ceb1ce39562082c18d9a0802a19664736f6c63430008160033416464726573733a206c6f772d6c6576656c2064656c65676174652063616c6c206661696c656400000000000000000000000000768b047f73d88b6e9c14bca97221d6e179d468000000000000000000000000000000000000000000000000000000000000004000000000000000000000000000000000000000000000000000000000000000c4562d190d00000000000000000000000000000000000000000000000000000000000000400000000000000000000000000000000000000000000000000000000000000080000000000000000000000000000000000000000000000000000000000000001148616d7a6120536861726573204c4f4f54000000000000000000000000000000000000000000000000000000000000000000000000000000000000000000000748532d4c4f4f540000000000000000000000000000000000000000000000000000000000000000000000000000000000000000000000000000000000"
        },
        {
          "transactionType": "CREATE",
          "address": "0x2e323cf41acdedec044c79e24185a389f7f68485",
          "initCode": "0x60806040526040516104c43803806104c4833981016040819052610022916102d2565b61002d82825f610034565b50506103e7565b61003d8361005f565b5f825111806100495750805b1561005a57610058838361009e565b505b505050565b610068816100ca565b6040516001600160a01b038216907fbc7cd75a20ee27fd9adebab32041f755214dbc6bffa90cc0225b39da2e5c2d3b905f90a250565b60606100c3838360405180606001604052806027815260200161049d6027913961017d565b9392505050565b6001600160a01b0381163b61013c5760405162461bcd60e51b815260206004820152602d60248201527f455243313936373a206e657720696d706c656d656e746174696f6e206973206e60448201526c1bdd08184818dbdb9d1c9858dd609a1b60648201526084015b60405180910390fd5b7f360894a13ba1a3210667c828492db98dca3e2076cc3735a920a3ca505d382bbc80546001600160a01b0319166001600160a01b0392909216919091179055565b60605f80856001600160a01b031685604051610199919061039a565b5f60405180830381855af49150503d805f81146101d1576040519150601f19603f3d011682016040523d82523d5f602084013e6101d6565b606091505b5090925090506101e8868383876101f2565b9695505050505050565b606083156102605782515f03610259576001600160a01b0385163b6102595760405162461bcd60e51b815260206004820152601d60248201527f416464726573733a2063616c6c20746f206e6f6e2d636f6e74726163740000006044820152606401610133565b508161026a565b61026a8383610272565b949350505050565b8151156102825781518083602001fd5b8060405162461bcd60e51b815260040161013391906103b5565b634e487b7160e01b5f52604160045260245ffd5b5f5b838110156102ca5781810151838201526020016102b2565b50505f910152565b5f80604083850312156102e3575f80fd5b82516001600160a01b03811681146102f9575f80fd5b60208401519092506001600160401b0380821115610315575f80fd5b818501915085601f830112610328575f80fd5b81518181111561033a5761033a61029c565b604051601f8201601f19908116603f011681019083821181831017156103625761036261029c565b8160405282815288602084870101111561037a575f80fd5b61038b8360208301602088016102b0565b80955050505050509250929050565b5f82516103ab8184602087016102b0565b9190910192915050565b602081525f82518060208401526103d38160408501602087016102b0565b601f01601f19169190910160400192915050565b60aa806103f35f395ff3fe608060405236601057600e6013565b005b600e5b601f601b6021565b6057565b565b5f60527f360894a13ba1a3210667c828492db98dca3e2076cc3735a920a3ca505d382bbc546001600160a01b031690565b905090565b365f80375f80365f845af43d5f803e8080156070573d5ff35b3d5ffdfea26469706673582212209253f76cdc4c8ae103fd1960949256707c12ceb1ce39562082c18d9a0802a19664736f6c63430008160033416464726573733a206c6f772d6c6576656c2064656c65676174652063616c6c206661696c656400000000000000000000000052acf023d38a31f7e7bc92cce5e68d36cc9752d6000000000000000000000000000000000000000000000000000000000000004000000000000000000000000000000000000000000000000000000000000000c4562d190d00000000000000000000000000000000000000000000000000000000000000400000000000000000000000000000000000000000000000000000000000000080000000000000000000000000000000000000000000000000000000000000000c48616d7a612053686172657300000000000000000000000000000000000000000000000000000000000000000000000000000000000000000000000000000002485300000000000000000000000000000000000000000000000000000000000000000000000000000000000000000000000000000000000000000000"
        },
        {
          "transactionType": "CREATE2",
          "address": "0x660d023e7631b7691cd6531509e5861589b7d130",
          "initCode": "0x608060405234801561001057600080fd5b506040516101e63803806101e68339818101604052602081101561003357600080fd5b8101908080519060200190929190505050600073ffffffffffffffffffffffffffffffffffffffff168173ffffffffffffffffffffffffffffffffffffffff1614156100ca576040517f08c379a00000000000000000000000000000000000000000000000000000000081526004018080602001828103825260228152602001806101c46022913960400191505060405180910390fd5b806000806101000a81548173ffffffffffffffffffffffffffffffffffffffff021916908373ffffffffffffffffffffffffffffffffffffffff1602179055505060ab806101196000396000f3fe608060405273ffffffffffffffffffffffffffffffffffffffff600054167fa619486e0000000000000000000000000000000000000000000000000000000060003514156050578060005260206000f35b3660008037600080366000845af43d6000803e60008114156070573d6000fd5b3d6000f3fea2646970667358221220d1429297349653a4918076d650332de1a1068c5f3e07c5c82360c277770b955264736f6c63430007060033496e76616c69642073696e676c65746f6e20616464726573732070726f766964656400000000000000000000000069f4d1788e39c87893c980c06edf4b7f686e2938"
        }
      ],
      "isFixedGasLimit": false
    }
  ],
  "receipts": [
    {
      "status": "0x1",
      "cumulativeGasUsed": "0xc8a78e",
      "logs": [
        {
          "address": "0x000000000000addb49795b0f9ba5bc298cdda236",
          "topics": [
            "0x2150ada912bf189ed721c44211199e270903fc88008c2a1e1e889ef30fe67c5f",
            "0x000000000000000000000000f1131ba797cc60d45f64017283062d35c8498357",
            "0x000000000000000000000000c650b598b095613ccddf0f49570ffa475175a5d5"
          ],
          "data": "0x",
          "blockHash": "0xb5d80b05de08eb677c6df87d32b126c4a564d7d9a8db777017a74f8ce97d59fc",
          "blockNumber": "0x726a5c",
          "transactionHash": "0xf6cf3f7d52f4738c8d505bb6f4a0f228c65ea64b008bcf4432445b90fd6c216a",
          "transactionIndex": "0x58",
          "logIndex": "0xb1",
          "removed": false
        },
        {
          "address": "0xa89a1a557b72dcee4ae0e70ed0a72d60c842f932",
          "topics": [
            "0xbc7cd75a20ee27fd9adebab32041f755214dbc6bffa90cc0225b39da2e5c2d3b",
            "0x00000000000000000000000000768b047f73d88b6e9c14bca97221d6e179d468"
          ],
          "data": "0x",
          "blockHash": "0xb5d80b05de08eb677c6df87d32b126c4a564d7d9a8db777017a74f8ce97d59fc",
          "blockNumber": "0x726a5c",
          "transactionHash": "0xf6cf3f7d52f4738c8d505bb6f4a0f228c65ea64b008bcf4432445b90fd6c216a",
          "transactionIndex": "0x58",
          "logIndex": "0xb2",
          "removed": false
        },
        {
          "address": "0xa89a1a557b72dcee4ae0e70ed0a72d60c842f932",
          "topics": [
            "0x8be0079c531659141344cd1fd0a4f28419497f9722a3daafe3b4186f6b6457e0",
            "0x0000000000000000000000000000000000000000000000000000000000000000",
            "0x000000000000000000000000b2b3909661552942ae1115e9fc99df0bc93d71d0"
          ],
          "data": "0x",
          "blockHash": "0xb5d80b05de08eb677c6df87d32b126c4a564d7d9a8db777017a74f8ce97d59fc",
          "blockNumber": "0x726a5c",
          "transactionHash": "0xf6cf3f7d52f4738c8d505bb6f4a0f228c65ea64b008bcf4432445b90fd6c216a",
          "transactionIndex": "0x58",
          "logIndex": "0xb3",
          "removed": false
        },
        {
          "address": "0xa89a1a557b72dcee4ae0e70ed0a72d60c842f932",
          "topics": [
            "0x7f26b83ff96e1f2b6a682f133852f6798a09c465da95921460cefb3847402498"
          ],
          "data": "0x0000000000000000000000000000000000000000000000000000000000000001",
          "blockHash": "0xb5d80b05de08eb677c6df87d32b126c4a564d7d9a8db777017a74f8ce97d59fc",
          "blockNumber": "0x726a5c",
          "transactionHash": "0xf6cf3f7d52f4738c8d505bb6f4a0f228c65ea64b008bcf4432445b90fd6c216a",
          "transactionIndex": "0x58",
          "logIndex": "0xb4",
          "removed": false
        },
        {
          "address": "0x2e323cf41acdedec044c79e24185a389f7f68485",
          "topics": [
            "0xbc7cd75a20ee27fd9adebab32041f755214dbc6bffa90cc0225b39da2e5c2d3b",
            "0x00000000000000000000000052acf023d38a31f7e7bc92cce5e68d36cc9752d6"
          ],
          "data": "0x",
          "blockHash": "0xb5d80b05de08eb677c6df87d32b126c4a564d7d9a8db777017a74f8ce97d59fc",
          "blockNumber": "0x726a5c",
          "transactionHash": "0xf6cf3f7d52f4738c8d505bb6f4a0f228c65ea64b008bcf4432445b90fd6c216a",
          "transactionIndex": "0x58",
          "logIndex": "0xb5",
          "removed": false
        },
        {
          "address": "0x2e323cf41acdedec044c79e24185a389f7f68485",
          "topics": [
            "0x8be0079c531659141344cd1fd0a4f28419497f9722a3daafe3b4186f6b6457e0",
            "0x0000000000000000000000000000000000000000000000000000000000000000",
            "0x000000000000000000000000b2b3909661552942ae1115e9fc99df0bc93d71d0"
          ],
          "data": "0x",
          "blockHash": "0xb5d80b05de08eb677c6df87d32b126c4a564d7d9a8db777017a74f8ce97d59fc",
          "blockNumber": "0x726a5c",
          "transactionHash": "0xf6cf3f7d52f4738c8d505bb6f4a0f228c65ea64b008bcf4432445b90fd6c216a",
          "transactionIndex": "0x58",
          "logIndex": "0xb6",
          "removed": false
        },
        {
          "address": "0x2e323cf41acdedec044c79e24185a389f7f68485",
          "topics": [
            "0x7f26b83ff96e1f2b6a682f133852f6798a09c465da95921460cefb3847402498"
          ],
          "data": "0x0000000000000000000000000000000000000000000000000000000000000001",
          "blockHash": "0xb5d80b05de08eb677c6df87d32b126c4a564d7d9a8db777017a74f8ce97d59fc",
          "blockNumber": "0x726a5c",
          "transactionHash": "0xf6cf3f7d52f4738c8d505bb6f4a0f228c65ea64b008bcf4432445b90fd6c216a",
          "transactionIndex": "0x58",
          "logIndex": "0xb7",
          "removed": false
        },
        {
          "address": "0xb2b3909661552942ae1115e9fc99df0bc93d71d0",
          "topics": [
            "0xfb5849d45e916a3192059973d782e08b2b3888fa796f536d99af0c7bd01ca16c"
          ],
          "data": "0x000000000000000000000000a89a1a557b72dcee4ae0e70ed0a72d60c842f9320000000000000000000000002e323cf41acdedec044c79e24185a389f7f68485",
          "blockHash": "0xb5d80b05de08eb677c6df87d32b126c4a564d7d9a8db777017a74f8ce97d59fc",
          "blockNumber": "0x726a5c",
          "transactionHash": "0xf6cf3f7d52f4738c8d505bb6f4a0f228c65ea64b008bcf4432445b90fd6c216a",
          "transactionIndex": "0x58",
          "logIndex": "0xb8",
          "removed": false
        },
        {
          "address": "0xa89a1a557b72dcee4ae0e70ed0a72d60c842f932",
          "topics": [
            "0x62e78cea01bee320cd4e420270b5ea74000d11b0c9f74754ebdbfc544b05a258"
          ],
          "data": "0x000000000000000000000000b2b3909661552942ae1115e9fc99df0bc93d71d0",
          "blockHash": "0xb5d80b05de08eb677c6df87d32b126c4a564d7d9a8db777017a74f8ce97d59fc",
          "blockNumber": "0x726a5c",
          "transactionHash": "0xf6cf3f7d52f4738c8d505bb6f4a0f228c65ea64b008bcf4432445b90fd6c216a",
          "transactionIndex": "0x58",
          "logIndex": "0xb9",
          "removed": false
        },
        {
          "address": "0x2e323cf41acdedec044c79e24185a389f7f68485",
          "topics": [
            "0x62e78cea01bee320cd4e420270b5ea74000d11b0c9f74754ebdbfc544b05a258"
          ],
          "data": "0x000000000000000000000000b2b3909661552942ae1115e9fc99df0bc93d71d0",
          "blockHash": "0xb5d80b05de08eb677c6df87d32b126c4a564d7d9a8db777017a74f8ce97d59fc",
          "blockNumber": "0x726a5c",
          "transactionHash": "0xf6cf3f7d52f4738c8d505bb6f4a0f228c65ea64b008bcf4432445b90fd6c216a",
          "transactionIndex": "0x58",
          "logIndex": "0xba",
          "removed": false
        },
        {
          "address": "0xa89a1a557b72dcee4ae0e70ed0a72d60c842f932",
          "topics": [
            "0x8be0079c531659141344cd1fd0a4f28419497f9722a3daafe3b4186f6b6457e0",
            "0x000000000000000000000000b2b3909661552942ae1115e9fc99df0bc93d71d0",
            "0x000000000000000000000000f1131ba797cc60d45f64017283062d35c8498357"
          ],
          "data": "0x",
          "blockHash": "0xb5d80b05de08eb677c6df87d32b126c4a564d7d9a8db777017a74f8ce97d59fc",
          "blockNumber": "0x726a5c",
          "transactionHash": "0xf6cf3f7d52f4738c8d505bb6f4a0f228c65ea64b008bcf4432445b90fd6c216a",
          "transactionIndex": "0x58",
          "logIndex": "0xbb",
          "removed": false
        },
        {
          "address": "0x2e323cf41acdedec044c79e24185a389f7f68485",
          "topics": [
            "0x8be0079c531659141344cd1fd0a4f28419497f9722a3daafe3b4186f6b6457e0",
            "0x000000000000000000000000b2b3909661552942ae1115e9fc99df0bc93d71d0",
            "0x000000000000000000000000f1131ba797cc60d45f64017283062d35c8498357"
          ],
          "data": "0x",
          "blockHash": "0xb5d80b05de08eb677c6df87d32b126c4a564d7d9a8db777017a74f8ce97d59fc",
          "blockNumber": "0x726a5c",
          "transactionHash": "0xf6cf3f7d52f4738c8d505bb6f4a0f228c65ea64b008bcf4432445b90fd6c216a",
          "transactionIndex": "0x58",
          "logIndex": "0xbc",
          "removed": false
        },
        {
          "address": "0xc22834581ebc8527d974f8a1c97e1bea4ef910bc",
          "topics": [
            "0x4f51faf6c4561ff95f067657e43439f0f856d97c04d9ec9070a6199ad418e235"
          ],
          "data": "0x000000000000000000000000660d023e7631b7691cd6531509e5861589b7d13000000000000000000000000069f4d1788e39c87893c980c06edf4b7f686e2938",
          "blockHash": "0xb5d80b05de08eb677c6df87d32b126c4a564d7d9a8db777017a74f8ce97d59fc",
          "blockNumber": "0x726a5c",
          "transactionHash": "0xf6cf3f7d52f4738c8d505bb6f4a0f228c65ea64b008bcf4432445b90fd6c216a",
          "transactionIndex": "0x58",
          "logIndex": "0xbd",
          "removed": false
        },
        {
          "address": "0x660d023e7631b7691cd6531509e5861589b7d130",
          "topics": [
            "0xecdf3a3effea5783a3c4c2140e677577666428d44ed9d474a0b3a4c9943f8440"
          ],
          "data": "0x000000000000000000000000f1131ba797cc60d45f64017283062d35c8498357",
          "blockHash": "0xb5d80b05de08eb677c6df87d32b126c4a564d7d9a8db777017a74f8ce97d59fc",
          "blockNumber": "0x726a5c",
          "transactionHash": "0xf6cf3f7d52f4738c8d505bb6f4a0f228c65ea64b008bcf4432445b90fd6c216a",
          "transactionIndex": "0x58",
          "logIndex": "0xbe",
          "removed": false
        },
        {
          "address": "0x660d023e7631b7691cd6531509e5861589b7d130",
          "topics": [
            "0x141df868a6331af528e38c83b7aa03edc19be66e37ae67f9285bf4f8e3c6a1a8",
            "0x000000000000000000000000b2b3909661552942ae1115e9fc99df0bc93d71d0"
          ],
          "data": "0x00000000000000000000000000000000000000000000000000000000000000800000000000000000000000000000000000000000000000000000000000000001000000000000000000000000998739bfdaadde7c933b942a68053933098f9eda000000000000000000000000017062a1de2fe6b99be3d9d37841fed19f5738040000000000000000000000000000000000000000000000000000000000000001000000000000000000000000f1131ba797cc60d45f64017283062d35c8498357",
          "blockHash": "0xb5d80b05de08eb677c6df87d32b126c4a564d7d9a8db777017a74f8ce97d59fc",
          "blockNumber": "0x726a5c",
          "transactionHash": "0xf6cf3f7d52f4738c8d505bb6f4a0f228c65ea64b008bcf4432445b90fd6c216a",
          "transactionIndex": "0x58",
          "logIndex": "0xbf",
          "removed": false
        },
        {
          "address": "0xb2b3909661552942ae1115e9fc99df0bc93d71d0",
          "topics": [
            "0x7ad675e6593a2c3bdf52607876353caf39853572dd787d2a5eed1cc99097b3f0"
          ],
          "data": "0x000000000000000000000000660d023e7631b7691cd6531509e5861589b7d130000000000000000000000000f1131ba797cc60d45f64017283062d35c8498357",
          "blockHash": "0xb5d80b05de08eb677c6df87d32b126c4a564d7d9a8db777017a74f8ce97d59fc",
          "blockNumber": "0x726a5c",
          "transactionHash": "0xf6cf3f7d52f4738c8d505bb6f4a0f228c65ea64b008bcf4432445b90fd6c216a",
          "transactionIndex": "0x58",
          "logIndex": "0xc0",
          "removed": false
        },
        {
          "address": "0xf1131ba797cc60d45f64017283062d35c8498357",
          "topics": [
            "0x8be0079c531659141344cd1fd0a4f28419497f9722a3daafe3b4186f6b6457e0",
            "0x0000000000000000000000000000000000000000000000000000000000000000",
            "0x000000000000000000000000b2b3909661552942ae1115e9fc99df0bc93d71d0"
          ],
          "data": "0x",
          "blockHash": "0xb5d80b05de08eb677c6df87d32b126c4a564d7d9a8db777017a74f8ce97d59fc",
          "blockNumber": "0x726a5c",
          "transactionHash": "0xf6cf3f7d52f4738c8d505bb6f4a0f228c65ea64b008bcf4432445b90fd6c216a",
          "transactionIndex": "0x58",
          "logIndex": "0xc1",
          "removed": false
        },
        {
          "address": "0xf1131ba797cc60d45f64017283062d35c8498357",
          "topics": [
            "0x8be0079c531659141344cd1fd0a4f28419497f9722a3daafe3b4186f6b6457e0",
            "0x000000000000000000000000b2b3909661552942ae1115e9fc99df0bc93d71d0",
            "0x000000000000000000000000660d023e7631b7691cd6531509e5861589b7d130"
          ],
          "data": "0x",
          "blockHash": "0xb5d80b05de08eb677c6df87d32b126c4a564d7d9a8db777017a74f8ce97d59fc",
          "blockNumber": "0x726a5c",
          "transactionHash": "0xf6cf3f7d52f4738c8d505bb6f4a0f228c65ea64b008bcf4432445b90fd6c216a",
          "transactionIndex": "0x58",
          "logIndex": "0xc2",
          "removed": false
        },
        {
          "address": "0xa89a1a557b72dcee4ae0e70ed0a72d60c842f932",
          "topics": [
            "0x5db9ee0a495bf2e6ff9c91a7834c1ba4fdd244a5e8aa4e537bd38aeae4b073aa"
          ],
          "data": "0x000000000000000000000000f1131ba797cc60d45f64017283062d35c8498357",
          "blockHash": "0xb5d80b05de08eb677c6df87d32b126c4a564d7d9a8db777017a74f8ce97d59fc",
          "blockNumber": "0x726a5c",
          "transactionHash": "0xf6cf3f7d52f4738c8d505bb6f4a0f228c65ea64b008bcf4432445b90fd6c216a",
          "transactionIndex": "0x58",
          "logIndex": "0xc3",
          "removed": false
        },
        {
          "address": "0xf1131ba797cc60d45f64017283062d35c8498357",
          "topics": [
            "0x21b897e32ff7464f696022c4d6dfbf2d4eb300d162ad28e0d90f1136f5fea9cb"
          ],
          "data": "0x0000000000000000000000000000000000000000000000000000000000000000",
          "blockHash": "0xb5d80b05de08eb677c6df87d32b126c4a564d7d9a8db777017a74f8ce97d59fc",
          "blockNumber": "0x726a5c",
          "transactionHash": "0xf6cf3f7d52f4738c8d505bb6f4a0f228c65ea64b008bcf4432445b90fd6c216a",
          "transactionIndex": "0x58",
          "logIndex": "0xc4",
          "removed": false
        },
        {
          "address": "0x660d023e7631b7691cd6531509e5861589b7d130",
          "topics": [
            "0x6895c13664aa4f67288b25d7a21d7aaa34916e355fb9b6fae0a139a9085becb8",
            "0x000000000000000000000000f1131ba797cc60d45f64017283062d35c8498357"
          ],
          "data": "0x",
          "blockHash": "0xb5d80b05de08eb677c6df87d32b126c4a564d7d9a8db777017a74f8ce97d59fc",
          "blockNumber": "0x726a5c",
          "transactionHash": "0xf6cf3f7d52f4738c8d505bb6f4a0f228c65ea64b008bcf4432445b90fd6c216a",
          "transactionIndex": "0x58",
          "logIndex": "0xc5",
          "removed": false
        },
        {
          "address": "0xf1131ba797cc60d45f64017283062d35c8498357",
          "topics": [
            "0x916f812584e0b001e8c6ab604fa549cc16c9d0b2f60b17aa0b4ff5eefe3e7725"
          ],
          "data": "0x00000000000000000000000000000000000000000000000000000000000000000000000000000000000000000000000000000000000000000000000000000001000000000000000000000000000000000000000000000000000000000000000000000000000000000000000000000000000000000000000000000000000000000000000000000000000000000000000000000000000000000000000000000000000000000000000000000000000000000000000000000000000000000000000000000000000000000000000000000000000000000000000000000000000000000000000000000000000000000000000000000000000000000000000000000000000000000000000000000000000000000000000000000000000000000000018000000000000000000000000000000000000000000000000000000000000001c000000000000000000000000000000000000000000000000000000000000000000000000000000000000000000000000000000000000000000000000000000000000000000000000000000000000000000000000000000000000000000000000c48616d7a6120536861726573000000000000000000000000000000000000000000000000000000000000000000000000000000000000000000000000000000024853000000000000000000000000000000000000000000000000000000000000",
          "blockHash": "0xb5d80b05de08eb677c6df87d32b126c4a564d7d9a8db777017a74f8ce97d59fc",
          "blockNumber": "0x726a5c",
          "transactionHash": "0xf6cf3f7d52f4738c8d505bb6f4a0f228c65ea64b008bcf4432445b90fd6c216a",
          "transactionIndex": "0x58",
          "logIndex": "0xc6",
          "removed": false
        },
        {
          "address": "0xf1131ba797cc60d45f64017283062d35c8498357",
          "topics": [
            "0x7f26b83ff96e1f2b6a682f133852f6798a09c465da95921460cefb3847402498"
          ],
          "data": "0x0000000000000000000000000000000000000000000000000000000000000001",
          "blockHash": "0xb5d80b05de08eb677c6df87d32b126c4a564d7d9a8db777017a74f8ce97d59fc",
          "blockNumber": "0x726a5c",
          "transactionHash": "0xf6cf3f7d52f4738c8d505bb6f4a0f228c65ea64b008bcf4432445b90fd6c216a",
          "transactionIndex": "0x58",
          "logIndex": "0xc7",
          "removed": false
        },
        {
          "address": "0xb2b3909661552942ae1115e9fc99df0bc93d71d0",
          "topics": [
            "0xcf2f09cd0dbc149b12a3630a11b7d73476660f3d08d3dc7dcc79c6dec555ee7a",
            "0x000000000000000000000000f1131ba797cc60d45f64017283062d35c8498357",
            "0x000000000000000000000000a89a1a557b72dcee4ae0e70ed0a72d60c842f932",
            "0x0000000000000000000000002e323cf41acdedec044c79e24185a389f7f68485"
          ],
          "data": "0x000000000000000000000000660d023e7631b7691cd6531509e5861589b7d13000000000000000000000000000000000000000000000000000000000000000000000000000000000000000000000000000000000000000000000000000000000",
          "blockHash": "0xb5d80b05de08eb677c6df87d32b126c4a564d7d9a8db777017a74f8ce97d59fc",
          "blockNumber": "0x726a5c",
          "transactionHash": "0xf6cf3f7d52f4738c8d505bb6f4a0f228c65ea64b008bcf4432445b90fd6c216a",
          "transactionIndex": "0x58",
          "logIndex": "0xc8",
          "removed": false
        }
      ],
      "logsBloom": "0x00000000000010000000000000080000c040020004000000808000000000001000002000008000000000000000000000000000000002000200000000005080020000100400000000000000280000020000010000000004080040000080014000200000400200000005000000000008000000000100000000000040000000004046002500000001000c0008040000000410008000000080000004800000000400000008000200100100000000000400000600000000400000000028000000000000800020000202000100800000040041020000000000000000000000000020000000088000000000402000000080000220000000000008000001000002101401",
      "type": "0x2",
      "transactionHash": "0xf6cf3f7d52f4738c8d505bb6f4a0f228c65ea64b008bcf4432445b90fd6c216a",
      "transactionIndex": "0x58",
      "blockHash": "0xb5d80b05de08eb677c6df87d32b126c4a564d7d9a8db777017a74f8ce97d59fc",
      "blockNumber": "0x726a5c",
      "gasUsed": "0x139752",
      "effectiveGasPrice": "0x343a126d5",
      "from": "0x1310cedd03cc8f6ae50f2fb93848070facb042b8",
      "to": "0xb2b3909661552942ae1115e9fc99df0bc93d71d0",
      "contractAddress": null
    }
  ],
  "libraries": [],
  "pending": [],
  "returns": {},
  "timestamp": 1736962056,
  "chain": 11155111,
  "commit": "a63bf35"
}