{
  "transactions": [
    {
      "hash": "0x49f539901c47dbd5374424b93133f6f3947781185c4161150db4bbb52cfca956",
      "transactionType": "CREATE",
      "contractName": "CommunityVault",
      "contractAddress": "0x18209e281e67a9b9db09a9d17d6a84d30b27e2ab",
      "function": null,
      "arguments": null,
      "transaction": {
        "from": "0x1310cedd03cc8f6ae50f2fb93848070facb042b8",
        "gas": "0xc8cd9",
        "value": "0x0",
        "input": "0x608080604052346059575f8054336001600160a01b0319821681178355916001600160a01b03909116907f8be0079c531659141344cd1fd0a4f28419497f9722a3daafe3b4186f6b6457e09080a3610a0f908161005e8239f35b5f80fdfe6080604052600436101561001a575b3615610018575f80fd5b005b5f3560e01c806315270ace1461041757806347e7ef24146102f1578063523fba7f14610077578063715018a61461028d5780638da5cb5b14610268578063d9caed121461019a578063f2fde38b146100b35763f8b2cb4f0361000e575b346100af5760203660031901126100af576001600160a01b036100986105eb565b165f526001602052602060405f2054604051908152f35b5f80fd5b346100af5760203660031901126100af576001600160a01b036100d46105eb565b6100dc610782565b168015610130576001600160a01b035f548273ffffffffffffffffffffffffffffffffffffffff198216175f55167f8be0079c531659141344cd1fd0a4f28419497f9722a3daafe3b4186f6b6457e05f80a3005b608460405162461bcd60e51b815260206004820152602660248201527f4f776e61626c653a206e6577206f776e657220697320746865207a65726f206160448201527f64647265737300000000000000000000000000000000000000000000000000006064820152fd5b346100af5760603660031901126100af576101b36105eb565b6024356001600160a01b038116918282036100af5760207f9b1bfa7fa9ee420a16e124f794c35ac9f90472acc99140eb2f6447c714cad8eb916001600160a01b0360443591610200610782565b1693845f52600183526102198260405f20541015610656565b8185610259575f80808093610238955af16102326106eb565b5061072a565b835f526001825260405f2061024e828254610775565b9055604051908152a3005b61026391866107d9565b610238565b346100af575f3660031901126100af5760206001600160a01b035f5416604051908152f35b346100af575f3660031901126100af576102a5610782565b5f6001600160a01b03815473ffffffffffffffffffffffffffffffffffffffff1981168355167f8be0079c531659141344cd1fd0a4f28419497f9722a3daafe3b4186f6b6457e08280a3005b60403660031901126100af576103056105eb565b602435906001600160a01b0316806103bf5781340361037b575b805f52600160205260405f2080549083820180921161036757556040519182527f5548c837ab068cf56a2c2479df0882a4922fd203edb7517321831d95078c5f6260203393a3005b634e487b7160e01b5f52601160045260245ffd5b606460405162461bcd60e51b815260206004820152601460248201527f496e636f72726563742045544820616d6f756e740000000000000000000000006044820152fd5b6104126040517f23b872dd0000000000000000000000000000000000000000000000000000000060208201523360248201523060448201528360648201526064815261040c6084826106b5565b82610830565b61031f565b346100af5760603660031901126100af576104306105eb565b60243567ffffffffffffffff81116100af57610450903690600401610601565b60449291923567ffffffffffffffff81116100af57610473903690600401610601565b909161047d610782565b8181036105a757926001600160a01b0316908115905f5b85811061049d57005b600190845f52816020526104c260405f20546104ba83868a610632565b351115610656565b858782858b881561057a57610500946104f4845f96946104ee6104e9899889988998610632565b6106a1565b93610632565b35905af16102326106eb565b61050b818488610632565b35855f528260205261052260405f20918254610775565b90556105326104e982898b610632565b857fafdc1eb311d58306e249917b5ca0044a827a66f0ec535c334d63372c4055d36460206001600160a01b0361056986898d610632565b35946040519586521693a301610494565b6105a294506104e99291509261058f93610632565b61059a83868a610632565b3590876107d9565b610500565b606460405162461bcd60e51b815260206004820152601160248201527f4d69736d617463686564206172726179730000000000000000000000000000006044820152fd5b600435906001600160a01b03821682036100af57565b9181601f840112156100af5782359167ffffffffffffffff83116100af576020808501948460051b0101116100af57565b91908110156106425760051b0190565b634e487b7160e01b5f52603260045260245ffd5b1561065d57565b606460405162461bcd60e51b815260206004820152601460248201527f496e73756666696369656e742062616c616e63650000000000000000000000006044820152fd5b356001600160a01b03811681036100af5790565b90601f8019910116810190811067ffffffffffffffff8211176106d757604052565b634e487b7160e01b5f52604160045260245ffd5b3d15610725573d9067ffffffffffffffff82116106d7576040519161071a601f8201601f1916602001846106b5565b82523d5f602084013e565b606090565b1561073157565b606460405162461bcd60e51b815260206004820152601360248201527f455448207472616e73666572206661696c6564000000000000000000000000006044820152fd5b9190820391821161036757565b6001600160a01b035f5416330361079557565b606460405162461bcd60e51b815260206004820152602060248201527f4f776e61626c653a2063616c6c6572206973206e6f7420746865206f776e65726044820152fd5b61082e926001600160a01b03604051937fa9059cbb0000000000000000000000000000000000000000000000000000000060208601521660248401526044830152604482526108296064836106b5565b610830565b565b906001600160a01b0361089192165f806040519361084f6040866106b5565b602085527f5361666545524332303a206c6f772d6c6576656c2063616c6c206661696c6564602086015260208151910182855af161088b6106eb565b91610926565b80518061089c575050565b81602091810103126100af57602001518015908115036100af576108bc57565b608460405162461bcd60e51b815260206004820152602a60248201527f5361666545524332303a204552433230206f7065726174696f6e20646964206e60448201527f6f742073756363656564000000000000000000000000000000000000000000006064820152fd5b91929015610987575081511561093a575090565b3b156109435790565b606460405162461bcd60e51b815260206004820152601d60248201527f416464726573733a2063616c6c20746f206e6f6e2d636f6e74726163740000006044820152fd5b82519091501561099a5750805190602001fd5b604460209160405192839162461bcd60e51b83528160048401528051918291826024860152018484015e5f828201840152601f01601f19168101030190fdfea26469706673582212200b6cd06453bf561237850cca2161ad3bfcda0e0ccebc15c2da29f14f8cb9614964736f6c634300081b0033",
        "nonce": "0x1e3",
        "chainId": "0xaa36a7"
      },
      "additionalContracts": [],
      "isFixedGasLimit": false
    },
    {
      "hash": "0xcdb1973ab58963fb4de752a4fd10f0090e03b40ac564f734dce4a5ee8bd64e61",
      "transactionType": "CALL",
      "contractName": null,
      "contractAddress": "0xc22834581ebc8527d974f8a1c97e1bea4ef910bc",
      "function": "createProxy(address,bytes)",
      "arguments": [
        "0x69f4D1788e39c87893C980c06EdF4b7f686e2938",
        "0xb63e800d0000000000000000000000000000000000000000000000000000000000000120000000000000000000000000000000000000000000000000000000000000000100000000000000000000000000000000000000000000000000000000000000000000000000000000000000000000000000000000000000000000000000000180000000000000000000000000000000000000000000000000000000000000000000000000000000000000000000000000000000000000000000000000000000000000000000000000000000000000000000000000000000000000000000000000000000000000000000000000000000000000000000000000000000000000000000000000000000000000000018209e281e67a9b9db09a9d17d6a84d30b27e2ab00000000000000000000000000000000000000000000000000000000000000020000000000000000000000001310cedd03cc8f6ae50f2fb93848070facb042b80000000000000000000000001542612fee591ed35c05a3e980bab325265c06a30000000000000000000000000000000000000000000000000000000000000000"
      ],
      "transaction": {
        "from": "0x1310cedd03cc8f6ae50f2fb93848070facb042b8",
        "to": "0xc22834581ebc8527d974f8a1c97e1bea4ef910bc",
        "gas": "0x56ef1",
        "value": "0x0",
        "input": "0x61b69abd00000000000000000000000069f4d1788e39c87893c980c06edf4b7f686e2938000000000000000000000000000000000000000000000000000000000000004000000000000000000000000000000000000000000000000000000000000001a4b63e800d0000000000000000000000000000000000000000000000000000000000000120000000000000000000000000000000000000000000000000000000000000000100000000000000000000000000000000000000000000000000000000000000000000000000000000000000000000000000000000000000000000000000000180000000000000000000000000000000000000000000000000000000000000000000000000000000000000000000000000000000000000000000000000000000000000000000000000000000000000000000000000000000000000000000000000000000000000000000000000000000000000000000000000000000000000000000000000000000000000000018209e281e67a9b9db09a9d17d6a84d30b27e2ab00000000000000000000000000000000000000000000000000000000000000020000000000000000000000001310cedd03cc8f6ae50f2fb93848070facb042b80000000000000000000000001542612fee591ed35c05a3e980bab325265c06a3000000000000000000000000000000000000000000000000000000000000000000000000000000000000000000000000000000000000000000000000",
        "nonce": "0x1e4",
        "chainId": "0xaa36a7"
      },
      "additionalContracts": [
        {
          "transactionType": "CREATE",
          "address": "0x6ee36889d95c3ad4d0a69d2560549120ef6af258",
          "initCode": "0x608060405234801561001057600080fd5b506040516101e63803806101e68339818101604052602081101561003357600080fd5b8101908080519060200190929190505050600073ffffffffffffffffffffffffffffffffffffffff168173ffffffffffffffffffffffffffffffffffffffff1614156100ca576040517f08c379a00000000000000000000000000000000000000000000000000000000081526004018080602001828103825260228152602001806101c46022913960400191505060405180910390fd5b806000806101000a81548173ffffffffffffffffffffffffffffffffffffffff021916908373ffffffffffffffffffffffffffffffffffffffff1602179055505060ab806101196000396000f3fe608060405273ffffffffffffffffffffffffffffffffffffffff600054167fa619486e0000000000000000000000000000000000000000000000000000000060003514156050578060005260206000f35b3660008037600080366000845af43d6000803e60008114156070573d6000fd5b3d6000f3fea2646970667358221220d1429297349653a4918076d650332de1a1068c5f3e07c5c82360c277770b955264736f6c63430007060033496e76616c69642073696e676c65746f6e20616464726573732070726f766964656400000000000000000000000069f4d1788e39c87893c980c06edf4b7f686e2938"
        }
      ],
      "isFixedGasLimit": false
    },
    {
      "hash": "0x3102c208714541e9e2592cd2816d316779b1db400201edf4089ed1990a62a4c3",
      "transactionType": "CALL",
      "contractName": null,
      "contractAddress": "0x33267e2d3decebcae26fa8d837ef3f7608367ab2",
      "function": "summonBaal(bytes,bytes[],uint256)",
      "arguments": [
        "0x00000000000000000000000000000000000000000000000000000000000000c000000000000000000000000000000000000000000000000000000000000001000000000000000000000000000000000000000000000000000000000000000000000000000000000000000000000000000000000000000000000000000000000000000000000000000000000000000000000000000000000000000000000000000000000000000000000000000000000000000000000000000000000000000000000000000000000000000000000000000000000000000000000000000000000c48616d7a6120536861726573000000000000000000000000000000000000000000000000000000000000000000000000000000000000000000000000000000024853000000000000000000000000000000000000000000000000000000000000",
        "[0xb1e3f40c0000000000000000000000000000000000000000000000000000000000000040000000000000000000000000000000000000000000000000000000000000008000000000000000000000000000000000000000000000000000000000000000010000000000000000000000006ee36889d95c3ad4d0a69d2560549120ef6af25800000000000000000000000000000000000000000000000000000000000000010000000000000000000000000000000000000000000000000000000000000001, 0x056b0dcd00000000000000000000000000000000000000000000000000000000000000010000000000000000000000000000000000000000000000000000000000000000, 0xacca30a2, 0x4526d846000000000000000000000000000000000000000000000000000000000000004000000000000000000000000000000000000000000000000000000000000000a000000000000000000000000000000000000000000000000000000000000000020000000000000000000000001310cedd03cc8f6ae50f2fb93848070facb042b800000000000000000000000018209e281e67a9b9db09a9d17d6a84d30b27e2ab000000000000000000000000000000000000000000000000000000000000000200000000000000000000000000000000000000000000000000000000000000320000000000000000000000000000000000000000000000000000000000000032]",
        "5"
      ],
      "transaction": {
        "from": "0x1310cedd03cc8f6ae50f2fb93848070facb042b8",
        "to": "0x33267e2d3decebcae26fa8d837ef3f7608367ab2",
        "gas": "0x234cc0",
        "value": "0x0",
        "input": "0x4a8b0b32000000000000000000000000000000000000000000000000000000000000006000000000000000000000000000000000000000000000000000000000000001c00000000000000000000000000000000000000000000000000000000000000005000000000000000000000000000000000000000000000000000000000000014000000000000000000000000000000000000000000000000000000000000000c000000000000000000000000000000000000000000000000000000000000001000000000000000000000000000000000000000000000000000000000000000000000000000000000000000000000000000000000000000000000000000000000000000000000000000000000000000000000000000000000000000000000000000000000000000000000000000000000000000000000000000000000000000000000000000000000000000000000000000000000000000000000000000000000c48616d7a61205368617265730000000000000000000000000000000000000000000000000000000000000000000000000000000000000000000000000000000248530000000000000000000000000000000000000000000000000000000000000000000000000000000000000000000000000000000000000000000000000004000000000000000000000000000000000000000000000000000000000000008000000000000000000000000000000000000000000000000000000000000001800000000000000000000000000000000000000000000000000000000000000200000000000000000000000000000000000000000000000000000000000000024000000000000000000000000000000000000000000000000000000000000000c4b1e3f40c0000000000000000000000000000000000000000000000000000000000000040000000000000000000000000000000000000000000000000000000000000008000000000000000000000000000000000000000000000000000000000000000010000000000000000000000006ee36889d95c3ad4d0a69d2560549120ef6af25800000000000000000000000000000000000000000000000000000000000000010000000000000000000000000000000000000000000000000000000000000001000000000000000000000000000000000000000000000000000000000000000000000000000000000000000000000000000000000000000000000044056b0dcd00000000000000000000000000000000000000000000000000000000000000010000000000000000000000000000000000000000000000000000000000000000000000000000000000000000000000000000000000000000000000000000000000000000000000000000000000000000000000000000000000000004acca30a20000000000000000000000000000000000000000000000000000000000000000000000000000000000000000000000000000000000000000000001044526d846000000000000000000000000000000000000000000000000000000000000004000000000000000000000000000000000000000000000000000000000000000a000000000000000000000000000000000000000000000000000000000000000020000000000000000000000001310cedd03cc8f6ae50f2fb93848070facb042b800000000000000000000000018209e281e67a9b9db09a9d17d6a84d30b27e2ab00000000000000000000000000000000000000000000000000000000000000020000000000000000000000000000000000000000000000000000000000000032000000000000000000000000000000000000000000000000000000000000003200000000000000000000000000000000000000000000000000000000",
        "nonce": "0x1e5",
        "chainId": "0xaa36a7"
      },
      "additionalContracts": [
        {
          "transactionType": "CREATE2",
          "address": "0xbc2e5a6c60ba75d191533c5145299795318fcf73",
          "initCode": "0x602d8060093d393df3363d3d373d3d3d363d73efd9fcdc577a406b4f0d4867153f7cd38fdfda845af43d82803e903d91602b57fd5bf3"
        },
        {
          "transactionType": "CREATE",
          "address": "0x2abc2a3d2497bc3a8858bd2ec667df068045e997",
          "initCode": "0x60806040526103dc80380380610014816101f2565b9283398101906040818303126101ee5780516001600160a01b038116918282036101ee576020810151906001600160401b0382116101ee57019183601f840112156101ee57825161006c6100678261022b565b6101f2565b938185526020850195602083830101116101ee57815f926020809301885e85010152813b15610193577f360894a13ba1a3210667c828492db98dca3e2076cc3735a920a3ca505d382bbc80546001600160a01b031916821790557fbc7cd75a20ee27fd9adebab32041f755214dbc6bffa90cc0225b39da2e5c2d3b5f80a281511580159061018c575b610108575b60405160e190816102fb8239f35b5f8061017b9461011860606101f2565b94602786527f416464726573733a206c6f772d6c6576656c2064656c65676174652063616c6c6020870152660819985a5b195960ca1b60408701525190845af43d15610184573d9161016c6100678461022b565b9283523d5f602085013e610246565b505f80806100fa565b606091610246565b505f6100f5565b60405162461bcd60e51b815260206004820152602d60248201527f455243313936373a206e657720696d706c656d656e746174696f6e206973206e60448201526c1bdd08184818dbdb9d1c9858dd609a1b6064820152608490fd5b5f80fd5b6040519190601f01601f191682016001600160401b0381118382101761021757604052565b634e487b7160e01b5f52604160045260245ffd5b6001600160401b03811161021757601f01601f191660200190565b919290156102a8575081511561025a575090565b3b156102635790565b60405162461bcd60e51b815260206004820152601d60248201527f416464726573733a2063616c6c20746f206e6f6e2d636f6e74726163740000006044820152606490fd5b8251909150156102bb5750805190602001fd5b604460209160405192839162461bcd60e51b83528160048401528051918291826024860152018484015e5f828201840152601f01601f19168101030190fdfe60806040523615605c575f8073ffffffffffffffffffffffffffffffffffffffff7f360894a13ba1a3210667c828492db98dca3e2076cc3735a920a3ca505d382bbc5416368280378136915af43d5f803e156058573d5ff35b3d5ffd5b5f8073ffffffffffffffffffffffffffffffffffffffff7f360894a13ba1a3210667c828492db98dca3e2076cc3735a920a3ca505d382bbc5416368280378136915af43d5f803e156058573d5ff3fea26469706673582212206834139af60ce6efbaee0ecb90e3638e6e120efcfb9d81ae546d8a43922d2b1264736f6c634300081b003300000000000000000000000000768b047f73d88b6e9c14bca97221d6e179d468000000000000000000000000000000000000000000000000000000000000004000000000000000000000000000000000000000000000000000000000000000c4562d190d00000000000000000000000000000000000000000000000000000000000000400000000000000000000000000000000000000000000000000000000000000080000000000000000000000000000000000000000000000000000000000000001148616d7a6120536861726573204c4f4f54000000000000000000000000000000000000000000000000000000000000000000000000000000000000000000000748532d4c4f4f540000000000000000000000000000000000000000000000000000000000000000000000000000000000000000000000000000000000"
        },
        {
          "transactionType": "CREATE",
          "address": "0xce7df29e5b1edf428326c235aad1ffeadfa5c4fe",
          "initCode": "0x60806040526103dc80380380610014816101f2565b9283398101906040818303126101ee5780516001600160a01b038116918282036101ee576020810151906001600160401b0382116101ee57019183601f840112156101ee57825161006c6100678261022b565b6101f2565b938185526020850195602083830101116101ee57815f926020809301885e85010152813b15610193577f360894a13ba1a3210667c828492db98dca3e2076cc3735a920a3ca505d382bbc80546001600160a01b031916821790557fbc7cd75a20ee27fd9adebab32041f755214dbc6bffa90cc0225b39da2e5c2d3b5f80a281511580159061018c575b610108575b60405160e190816102fb8239f35b5f8061017b9461011860606101f2565b94602786527f416464726573733a206c6f772d6c6576656c2064656c65676174652063616c6c6020870152660819985a5b195960ca1b60408701525190845af43d15610184573d9161016c6100678461022b565b9283523d5f602085013e610246565b505f80806100fa565b606091610246565b505f6100f5565b60405162461bcd60e51b815260206004820152602d60248201527f455243313936373a206e657720696d706c656d656e746174696f6e206973206e60448201526c1bdd08184818dbdb9d1c9858dd609a1b6064820152608490fd5b5f80fd5b6040519190601f01601f191682016001600160401b0381118382101761021757604052565b634e487b7160e01b5f52604160045260245ffd5b6001600160401b03811161021757601f01601f191660200190565b919290156102a8575081511561025a575090565b3b156102635790565b60405162461bcd60e51b815260206004820152601d60248201527f416464726573733a2063616c6c20746f206e6f6e2d636f6e74726163740000006044820152606490fd5b8251909150156102bb5750805190602001fd5b604460209160405192839162461bcd60e51b83528160048401528051918291826024860152018484015e5f828201840152601f01601f19168101030190fdfe60806040523615605c575f8073ffffffffffffffffffffffffffffffffffffffff7f360894a13ba1a3210667c828492db98dca3e2076cc3735a920a3ca505d382bbc5416368280378136915af43d5f803e156058573d5ff35b3d5ffd5b5f8073ffffffffffffffffffffffffffffffffffffffff7f360894a13ba1a3210667c828492db98dca3e2076cc3735a920a3ca505d382bbc5416368280378136915af43d5f803e156058573d5ff3fea26469706673582212206834139af60ce6efbaee0ecb90e3638e6e120efcfb9d81ae546d8a43922d2b1264736f6c634300081b003300000000000000000000000052acf023d38a31f7e7bc92cce5e68d36cc9752d6000000000000000000000000000000000000000000000000000000000000004000000000000000000000000000000000000000000000000000000000000000c4562d190d00000000000000000000000000000000000000000000000000000000000000400000000000000000000000000000000000000000000000000000000000000080000000000000000000000000000000000000000000000000000000000000000c48616d7a612053686172657300000000000000000000000000000000000000000000000000000000000000000000000000000000000000000000000000000002485300000000000000000000000000000000000000000000000000000000000000000000000000000000000000000000000000000000000000000000"
        },
        {
          "transactionType": "CREATE2",
          "address": "0xee5ee4f87367429d3b97cd9ccf435701b298aa62",
          "initCode": "0x608060405234801561001057600080fd5b506040516101e63803806101e68339818101604052602081101561003357600080fd5b8101908080519060200190929190505050600073ffffffffffffffffffffffffffffffffffffffff168173ffffffffffffffffffffffffffffffffffffffff1614156100ca576040517f08c379a00000000000000000000000000000000000000000000000000000000081526004018080602001828103825260228152602001806101c46022913960400191505060405180910390fd5b806000806101000a81548173ffffffffffffffffffffffffffffffffffffffff021916908373ffffffffffffffffffffffffffffffffffffffff1602179055505060ab806101196000396000f3fe608060405273ffffffffffffffffffffffffffffffffffffffff600054167fa619486e0000000000000000000000000000000000000000000000000000000060003514156050578060005260206000f35b3660008037600080366000845af43d6000803e60008114156070573d6000fd5b3d6000f3fea2646970667358221220d1429297349653a4918076d650332de1a1068c5f3e07c5c82360c277770b955264736f6c63430007060033496e76616c69642073696e676c65746f6e20616464726573732070726f766964656400000000000000000000000069f4d1788e39c87893c980c06edf4b7f686e2938"
        }
      ],
      "isFixedGasLimit": false
    }
  ],
  "receipts": [
    {
      "status": "0x1",
      "cumulativeGasUsed": "0x1079b21",
      "logs": [
        {
          "address": "0x18209e281e67a9b9db09a9d17d6a84d30b27e2ab",
          "topics": [
            "0x8be0079c531659141344cd1fd0a4f28419497f9722a3daafe3b4186f6b6457e0",
            "0x0000000000000000000000000000000000000000000000000000000000000000",
            "0x0000000000000000000000001310cedd03cc8f6ae50f2fb93848070facb042b8"
          ],
          "data": "0x",
          "blockHash": "0xb2ebb4687b4a616955c980db05b24b9291ab67b6abd91490a22e77e5627ad8c3",
          "blockNumber": "0x728fb8",
          "transactionHash": "0x49f539901c47dbd5374424b93133f6f3947781185c4161150db4bbb52cfca956",
          "transactionIndex": "0xad",
          "logIndex": "0x109",
          "removed": false
        }
      ],
      "logsBloom": "0x00000000000000000000000000000000000000000000000000800000000000001000000000000000000000000000000000000000000000000000000000000000000000000040000000000000000000000001000000000000000000000000000000000000020000000000000000000800000000000000000000000000200001400000000000000000000000000000000000000000000000000000000000000000000000000000000000000000000000000000000000000000000000000000000000000000000000000000000000020000000000000000000000000000000020800000000000000000000000000000000000000000000000000000000000000000",
      "type": "0x2",
      "transactionHash": "0x49f539901c47dbd5374424b93133f6f3947781185c4161150db4bbb52cfca956",
      "transactionIndex": "0xad",
      "blockHash": "0xb2ebb4687b4a616955c980db05b24b9291ab67b6abd91490a22e77e5627ad8c3",
      "blockNumber": "0x728fb8",
      "gasUsed": "0x9a76c",
      "effectiveGasPrice": "0xf6b96",
      "from": "0x1310cedd03cc8f6ae50f2fb93848070facb042b8",
      "to": null,
      "contractAddress": "0x18209e281e67a9b9db09a9d17d6a84d30b27e2ab"
    },
    {
      "status": "0x1",
      "cumulativeGasUsed": "0x10b8a26",
      "logs": [
        {
          "address": "0x6ee36889d95c3ad4d0a69d2560549120ef6af258",
          "topics": [
            "0x141df868a6331af528e38c83b7aa03edc19be66e37ae67f9285bf4f8e3c6a1a8",
            "0x000000000000000000000000c22834581ebc8527d974f8a1c97e1bea4ef910bc"
          ],
          "data": "0x000000000000000000000000000000000000000000000000000000000000008000000000000000000000000000000000000000000000000000000000000000010000000000000000000000000000000000000000000000000000000000000000000000000000000000000000000000000000000000000000000000000000000000000000000000000000000000000000000000000000000000000000000000020000000000000000000000001310cedd03cc8f6ae50f2fb93848070facb042b80000000000000000000000001542612fee591ed35c05a3e980bab325265c06a3",
          "blockHash": "0xb2ebb4687b4a616955c980db05b24b9291ab67b6abd91490a22e77e5627ad8c3",
          "blockNumber": "0x728fb8",
          "transactionHash": "0xcdb1973ab58963fb4de752a4fd10f0090e03b40ac564f734dce4a5ee8bd64e61",
          "transactionIndex": "0xae",
          "logIndex": "0x10a",
          "removed": false
        },
        {
          "address": "0xc22834581ebc8527d974f8a1c97e1bea4ef910bc",
          "topics": [
            "0x4f51faf6c4561ff95f067657e43439f0f856d97c04d9ec9070a6199ad418e235"
          ],
          "data": "0x0000000000000000000000006ee36889d95c3ad4d0a69d2560549120ef6af25800000000000000000000000069f4d1788e39c87893c980c06edf4b7f686e2938",
          "blockHash": "0xb2ebb4687b4a616955c980db05b24b9291ab67b6abd91490a22e77e5627ad8c3",
          "blockNumber": "0x728fb8",
          "transactionHash": "0xcdb1973ab58963fb4de752a4fd10f0090e03b40ac564f734dce4a5ee8bd64e61",
          "transactionIndex": "0xae",
          "logIndex": "0x10b",
          "removed": false
        }
      ],
      "logsBloom": "0x00080000000000000000000000000000000000000000000000000000000000000000000000000040000000000000000000000000000020000000000000000000000010000000000000000000000000000010000000000008000000100000000000000000000000000500000000000000000000000000000000000000000000000000000000000000000000000000000000000000000000000000000000000000000000000000000000000000000000000000000000000000000000000000000000000000000002000000000000000000000000000000000000000000000000000000080000000000000000000000000020400000000008000000000000000001",
      "type": "0x2",
      "transactionHash": "0xcdb1973ab58963fb4de752a4fd10f0090e03b40ac564f734dce4a5ee8bd64e61",
      "transactionIndex": "0xae",
      "blockHash": "0xb2ebb4687b4a616955c980db05b24b9291ab67b6abd91490a22e77e5627ad8c3",
      "blockNumber": "0x728fb8",
      "gasUsed": "0x3ef05",
      "effectiveGasPrice": "0xf6b96",
      "from": "0x1310cedd03cc8f6ae50f2fb93848070facb042b8",
      "to": "0xc22834581ebc8527d974f8a1c97e1bea4ef910bc",
      "contractAddress": null
    },
    {
      "status": "0x1",
      "cumulativeGasUsed": "0x123ad20",
      "logs": [
        {
          "address": "0x00000000000dc7f163742eb4abef650037b1f588",
          "topics": [
            "0x2150ada912bf189ed721c44211199e270903fc88008c2a1e1e889ef30fe67c5f",
            "0x000000000000000000000000bc2e5a6c60ba75d191533c5145299795318fcf73",
            "0x000000000000000000000000efd9fcdc577a406b4f0d4867153f7cd38fdfda84"
          ],
          "data": "0x",
          "blockHash": "0xb2ebb4687b4a616955c980db05b24b9291ab67b6abd91490a22e77e5627ad8c3",
          "blockNumber": "0x728fb8",
          "transactionHash": "0x3102c208714541e9e2592cd2816d316779b1db400201edf4089ed1990a62a4c3",
          "transactionIndex": "0xaf",
          "logIndex": "0x10c",
          "removed": false
        },
        {
          "address": "0x2abc2a3d2497bc3a8858bd2ec667df068045e997",
          "topics": [
            "0xbc7cd75a20ee27fd9adebab32041f755214dbc6bffa90cc0225b39da2e5c2d3b",
            "0x00000000000000000000000000768b047f73d88b6e9c14bca97221d6e179d468"
          ],
          "data": "0x",
          "blockHash": "0xb2ebb4687b4a616955c980db05b24b9291ab67b6abd91490a22e77e5627ad8c3",
          "blockNumber": "0x728fb8",
          "transactionHash": "0x3102c208714541e9e2592cd2816d316779b1db400201edf4089ed1990a62a4c3",
          "transactionIndex": "0xaf",
          "logIndex": "0x10d",
          "removed": false
        },
        {
          "address": "0x2abc2a3d2497bc3a8858bd2ec667df068045e997",
          "topics": [
            "0x8be0079c531659141344cd1fd0a4f28419497f9722a3daafe3b4186f6b6457e0",
            "0x0000000000000000000000000000000000000000000000000000000000000000",
            "0x00000000000000000000000033267e2d3decebcae26fa8d837ef3f7608367ab2"
          ],
          "data": "0x",
          "blockHash": "0xb2ebb4687b4a616955c980db05b24b9291ab67b6abd91490a22e77e5627ad8c3",
          "blockNumber": "0x728fb8",
          "transactionHash": "0x3102c208714541e9e2592cd2816d316779b1db400201edf4089ed1990a62a4c3",
          "transactionIndex": "0xaf",
          "logIndex": "0x10e",
          "removed": false
        },
        {
          "address": "0x2abc2a3d2497bc3a8858bd2ec667df068045e997",
          "topics": [
            "0x7f26b83ff96e1f2b6a682f133852f6798a09c465da95921460cefb3847402498"
          ],
          "data": "0x0000000000000000000000000000000000000000000000000000000000000001",
          "blockHash": "0xb2ebb4687b4a616955c980db05b24b9291ab67b6abd91490a22e77e5627ad8c3",
          "blockNumber": "0x728fb8",
          "transactionHash": "0x3102c208714541e9e2592cd2816d316779b1db400201edf4089ed1990a62a4c3",
          "transactionIndex": "0xaf",
          "logIndex": "0x10f",
          "removed": false
        },
        {
          "address": "0xce7df29e5b1edf428326c235aad1ffeadfa5c4fe",
          "topics": [
            "0xbc7cd75a20ee27fd9adebab32041f755214dbc6bffa90cc0225b39da2e5c2d3b",
            "0x00000000000000000000000052acf023d38a31f7e7bc92cce5e68d36cc9752d6"
          ],
          "data": "0x",
          "blockHash": "0xb2ebb4687b4a616955c980db05b24b9291ab67b6abd91490a22e77e5627ad8c3",
          "blockNumber": "0x728fb8",
          "transactionHash": "0x3102c208714541e9e2592cd2816d316779b1db400201edf4089ed1990a62a4c3",
          "transactionIndex": "0xaf",
          "logIndex": "0x110",
          "removed": false
        },
        {
          "address": "0xce7df29e5b1edf428326c235aad1ffeadfa5c4fe",
          "topics": [
            "0x8be0079c531659141344cd1fd0a4f28419497f9722a3daafe3b4186f6b6457e0",
            "0x0000000000000000000000000000000000000000000000000000000000000000",
            "0x00000000000000000000000033267e2d3decebcae26fa8d837ef3f7608367ab2"
          ],
          "data": "0x",
          "blockHash": "0xb2ebb4687b4a616955c980db05b24b9291ab67b6abd91490a22e77e5627ad8c3",
          "blockNumber": "0x728fb8",
          "transactionHash": "0x3102c208714541e9e2592cd2816d316779b1db400201edf4089ed1990a62a4c3",
          "transactionIndex": "0xaf",
          "logIndex": "0x111",
          "removed": false
        },
        {
          "address": "0xce7df29e5b1edf428326c235aad1ffeadfa5c4fe",
          "topics": [
            "0x7f26b83ff96e1f2b6a682f133852f6798a09c465da95921460cefb3847402498"
          ],
          "data": "0x0000000000000000000000000000000000000000000000000000000000000001",
          "blockHash": "0xb2ebb4687b4a616955c980db05b24b9291ab67b6abd91490a22e77e5627ad8c3",
          "blockNumber": "0x728fb8",
          "transactionHash": "0x3102c208714541e9e2592cd2816d316779b1db400201edf4089ed1990a62a4c3",
          "transactionIndex": "0xaf",
          "logIndex": "0x112",
          "removed": false
        },
        {
          "address": "0x33267e2d3decebcae26fa8d837ef3f7608367ab2",
          "topics": [
            "0xfb5849d45e916a3192059973d782e08b2b3888fa796f536d99af0c7bd01ca16c"
          ],
          "data": "0x0000000000000000000000002abc2a3d2497bc3a8858bd2ec667df068045e997000000000000000000000000ce7df29e5b1edf428326c235aad1ffeadfa5c4fe",
          "blockHash": "0xb2ebb4687b4a616955c980db05b24b9291ab67b6abd91490a22e77e5627ad8c3",
          "blockNumber": "0x728fb8",
          "transactionHash": "0x3102c208714541e9e2592cd2816d316779b1db400201edf4089ed1990a62a4c3",
          "transactionIndex": "0xaf",
          "logIndex": "0x113",
          "removed": false
        },
        {
          "address": "0x2abc2a3d2497bc3a8858bd2ec667df068045e997",
          "topics": [
            "0x62e78cea01bee320cd4e420270b5ea74000d11b0c9f74754ebdbfc544b05a258"
          ],
          "data": "0x00000000000000000000000033267e2d3decebcae26fa8d837ef3f7608367ab2",
          "blockHash": "0xb2ebb4687b4a616955c980db05b24b9291ab67b6abd91490a22e77e5627ad8c3",
          "blockNumber": "0x728fb8",
          "transactionHash": "0x3102c208714541e9e2592cd2816d316779b1db400201edf4089ed1990a62a4c3",
          "transactionIndex": "0xaf",
          "logIndex": "0x114",
          "removed": false
        },
        {
          "address": "0xce7df29e5b1edf428326c235aad1ffeadfa5c4fe",
          "topics": [
            "0x62e78cea01bee320cd4e420270b5ea74000d11b0c9f74754ebdbfc544b05a258"
          ],
          "data": "0x00000000000000000000000033267e2d3decebcae26fa8d837ef3f7608367ab2",
          "blockHash": "0xb2ebb4687b4a616955c980db05b24b9291ab67b6abd91490a22e77e5627ad8c3",
          "blockNumber": "0x728fb8",
          "transactionHash": "0x3102c208714541e9e2592cd2816d316779b1db400201edf4089ed1990a62a4c3",
          "transactionIndex": "0xaf",
          "logIndex": "0x115",
          "removed": false
        },
        {
          "address": "0x2abc2a3d2497bc3a8858bd2ec667df068045e997",
          "topics": [
            "0x8be0079c531659141344cd1fd0a4f28419497f9722a3daafe3b4186f6b6457e0",
            "0x00000000000000000000000033267e2d3decebcae26fa8d837ef3f7608367ab2",
            "0x000000000000000000000000bc2e5a6c60ba75d191533c5145299795318fcf73"
          ],
          "data": "0x",
          "blockHash": "0xb2ebb4687b4a616955c980db05b24b9291ab67b6abd91490a22e77e5627ad8c3",
          "blockNumber": "0x728fb8",
          "transactionHash": "0x3102c208714541e9e2592cd2816d316779b1db400201edf4089ed1990a62a4c3",
          "transactionIndex": "0xaf",
          "logIndex": "0x116",
          "removed": false
        },
        {
          "address": "0xce7df29e5b1edf428326c235aad1ffeadfa5c4fe",
          "topics": [
            "0x8be0079c531659141344cd1fd0a4f28419497f9722a3daafe3b4186f6b6457e0",
            "0x00000000000000000000000033267e2d3decebcae26fa8d837ef3f7608367ab2",
            "0x000000000000000000000000bc2e5a6c60ba75d191533c5145299795318fcf73"
          ],
          "data": "0x",
          "blockHash": "0xb2ebb4687b4a616955c980db05b24b9291ab67b6abd91490a22e77e5627ad8c3",
          "blockNumber": "0x728fb8",
          "transactionHash": "0x3102c208714541e9e2592cd2816d316779b1db400201edf4089ed1990a62a4c3",
          "transactionIndex": "0xaf",
          "logIndex": "0x117",
          "removed": false
        },
        {
          "address": "0xc22834581ebc8527d974f8a1c97e1bea4ef910bc",
          "topics": [
            "0x4f51faf6c4561ff95f067657e43439f0f856d97c04d9ec9070a6199ad418e235"
          ],
          "data": "0x000000000000000000000000ee5ee4f87367429d3b97cd9ccf435701b298aa6200000000000000000000000069f4d1788e39c87893c980c06edf4b7f686e2938",
          "blockHash": "0xb2ebb4687b4a616955c980db05b24b9291ab67b6abd91490a22e77e5627ad8c3",
          "blockNumber": "0x728fb8",
          "transactionHash": "0x3102c208714541e9e2592cd2816d316779b1db400201edf4089ed1990a62a4c3",
          "transactionIndex": "0xaf",
          "logIndex": "0x118",
          "removed": false
        },
        {
          "address": "0xee5ee4f87367429d3b97cd9ccf435701b298aa62",
          "topics": [
            "0xecdf3a3effea5783a3c4c2140e677577666428d44ed9d474a0b3a4c9943f8440"
          ],
          "data": "0x000000000000000000000000bc2e5a6c60ba75d191533c5145299795318fcf73",
          "blockHash": "0xb2ebb4687b4a616955c980db05b24b9291ab67b6abd91490a22e77e5627ad8c3",
          "blockNumber": "0x728fb8",
          "transactionHash": "0x3102c208714541e9e2592cd2816d316779b1db400201edf4089ed1990a62a4c3",
          "transactionIndex": "0xaf",
          "logIndex": "0x119",
          "removed": false
        },
        {
          "address": "0xee5ee4f87367429d3b97cd9ccf435701b298aa62",
          "topics": [
            "0x141df868a6331af528e38c83b7aa03edc19be66e37ae67f9285bf4f8e3c6a1a8",
            "0x00000000000000000000000033267e2d3decebcae26fa8d837ef3f7608367ab2"
          ],
          "data": "0x00000000000000000000000000000000000000000000000000000000000000800000000000000000000000000000000000000000000000000000000000000001000000000000000000000000998739bfdaadde7c933b942a68053933098f9eda000000000000000000000000017062a1de2fe6b99be3d9d37841fed19f5738040000000000000000000000000000000000000000000000000000000000000001000000000000000000000000bc2e5a6c60ba75d191533c5145299795318fcf73",
          "blockHash": "0xb2ebb4687b4a616955c980db05b24b9291ab67b6abd91490a22e77e5627ad8c3",
          "blockNumber": "0x728fb8",
          "transactionHash": "0x3102c208714541e9e2592cd2816d316779b1db400201edf4089ed1990a62a4c3",
          "transactionIndex": "0xaf",
          "logIndex": "0x11a",
          "removed": false
        },
        {
          "address": "0x33267e2d3decebcae26fa8d837ef3f7608367ab2",
          "topics": [
            "0x7ad675e6593a2c3bdf52607876353caf39853572dd787d2a5eed1cc99097b3f0"
          ],
          "data": "0x000000000000000000000000ee5ee4f87367429d3b97cd9ccf435701b298aa62000000000000000000000000bc2e5a6c60ba75d191533c5145299795318fcf73",
          "blockHash": "0xb2ebb4687b4a616955c980db05b24b9291ab67b6abd91490a22e77e5627ad8c3",
          "blockNumber": "0x728fb8",
          "transactionHash": "0x3102c208714541e9e2592cd2816d316779b1db400201edf4089ed1990a62a4c3",
          "transactionIndex": "0xaf",
          "logIndex": "0x11b",
          "removed": false
        },
        {
          "address": "0xbc2e5a6c60ba75d191533c5145299795318fcf73",
          "topics": [
            "0x8be0079c531659141344cd1fd0a4f28419497f9722a3daafe3b4186f6b6457e0",
            "0x0000000000000000000000000000000000000000000000000000000000000000",
            "0x00000000000000000000000033267e2d3decebcae26fa8d837ef3f7608367ab2"
          ],
          "data": "0x",
          "blockHash": "0xb2ebb4687b4a616955c980db05b24b9291ab67b6abd91490a22e77e5627ad8c3",
          "blockNumber": "0x728fb8",
          "transactionHash": "0x3102c208714541e9e2592cd2816d316779b1db400201edf4089ed1990a62a4c3",
          "transactionIndex": "0xaf",
          "logIndex": "0x11c",
          "removed": false
        },
        {
          "address": "0xbc2e5a6c60ba75d191533c5145299795318fcf73",
          "topics": [
            "0x8be0079c531659141344cd1fd0a4f28419497f9722a3daafe3b4186f6b6457e0",
            "0x00000000000000000000000033267e2d3decebcae26fa8d837ef3f7608367ab2",
            "0x000000000000000000000000ee5ee4f87367429d3b97cd9ccf435701b298aa62"
          ],
          "data": "0x",
          "blockHash": "0xb2ebb4687b4a616955c980db05b24b9291ab67b6abd91490a22e77e5627ad8c3",
          "blockNumber": "0x728fb8",
          "transactionHash": "0x3102c208714541e9e2592cd2816d316779b1db400201edf4089ed1990a62a4c3",
          "transactionIndex": "0xaf",
          "logIndex": "0x11d",
          "removed": false
        },
        {
          "address": "0xce7df29e5b1edf428326c235aad1ffeadfa5c4fe",
          "topics": [
            "0xdec2bacdd2f05b59de34da9b523dff8be42e5e38e818c82fdb0bae774387a724",
            "0x0000000000000000000000006ee36889d95c3ad4d0a69d2560549120ef6af258"
          ],
          "data": "0x00000000000000000000000000000000000000000000000000000000000000000000000000000000000000000000000000000000000000000000000000000001",
          "blockHash": "0xb2ebb4687b4a616955c980db05b24b9291ab67b6abd91490a22e77e5627ad8c3",
          "blockNumber": "0x728fb8",
          "transactionHash": "0x3102c208714541e9e2592cd2816d316779b1db400201edf4089ed1990a62a4c3",
          "transactionIndex": "0xaf",
          "logIndex": "0x11e",
          "removed": false
        },
        {
          "address": "0xce7df29e5b1edf428326c235aad1ffeadfa5c4fe",
          "topics": [
            "0xddf252ad1be2c89b69c2b068fc378daa952ba7f163c4a11628f55a4df523b3ef",
            "0x0000000000000000000000000000000000000000000000000000000000000000",
            "0x0000000000000000000000006ee36889d95c3ad4d0a69d2560549120ef6af258"
          ],
          "data": "0x0000000000000000000000000000000000000000000000000000000000000001",
          "blockHash": "0xb2ebb4687b4a616955c980db05b24b9291ab67b6abd91490a22e77e5627ad8c3",
          "blockNumber": "0x728fb8",
          "transactionHash": "0x3102c208714541e9e2592cd2816d316779b1db400201edf4089ed1990a62a4c3",
          "transactionIndex": "0xaf",
          "logIndex": "0x11f",
          "removed": false
        },
        {
          "address": "0x2abc2a3d2497bc3a8858bd2ec667df068045e997",
          "topics": [
            "0x5db9ee0a495bf2e6ff9c91a7834c1ba4fdd244a5e8aa4e537bd38aeae4b073aa"
          ],
          "data": "0x000000000000000000000000bc2e5a6c60ba75d191533c5145299795318fcf73",
          "blockHash": "0xb2ebb4687b4a616955c980db05b24b9291ab67b6abd91490a22e77e5627ad8c3",
          "blockNumber": "0x728fb8",
          "transactionHash": "0x3102c208714541e9e2592cd2816d316779b1db400201edf4089ed1990a62a4c3",
          "transactionIndex": "0xaf",
          "logIndex": "0x120",
          "removed": false
        },
        {
          "address": "0xbc2e5a6c60ba75d191533c5145299795318fcf73",
          "topics": [
            "0x21b897e32ff7464f696022c4d6dfbf2d4eb300d162ad28e0d90f1136f5fea9cb"
          ],
          "data": "0x0000000000000000000000000000000000000000000000000000000000000000",
          "blockHash": "0xb2ebb4687b4a616955c980db05b24b9291ab67b6abd91490a22e77e5627ad8c3",
          "blockNumber": "0x728fb8",
          "transactionHash": "0x3102c208714541e9e2592cd2816d316779b1db400201edf4089ed1990a62a4c3",
          "transactionIndex": "0xaf",
          "logIndex": "0x121",
          "removed": false
        },
        {
          "address": "0xbc2e5a6c60ba75d191533c5145299795318fcf73",
          "topics": [
            "0xb496b9628e839102454d8b483ba451c4be96675009b637273a00e4ab6a59db72"
          ],
          "data": "0x0000000000000000000000000000000000000000000000000000000000000001",
          "blockHash": "0xb2ebb4687b4a616955c980db05b24b9291ab67b6abd91490a22e77e5627ad8c3",
          "blockNumber": "0x728fb8",
          "transactionHash": "0x3102c208714541e9e2592cd2816d316779b1db400201edf4089ed1990a62a4c3",
          "transactionIndex": "0xaf",
          "logIndex": "0x122",
          "removed": false
        },
        {
          "address": "0x2abc2a3d2497bc3a8858bd2ec667df068045e997",
          "topics": [
            "0xddf252ad1be2c89b69c2b068fc378daa952ba7f163c4a11628f55a4df523b3ef",
            "0x0000000000000000000000000000000000000000000000000000000000000000",
            "0x0000000000000000000000001310cedd03cc8f6ae50f2fb93848070facb042b8"
          ],
          "data": "0x0000000000000000000000000000000000000000000000000000000000000032",
          "blockHash": "0xb2ebb4687b4a616955c980db05b24b9291ab67b6abd91490a22e77e5627ad8c3",
          "blockNumber": "0x728fb8",
          "transactionHash": "0x3102c208714541e9e2592cd2816d316779b1db400201edf4089ed1990a62a4c3",
          "transactionIndex": "0xaf",
          "logIndex": "0x123",
          "removed": false
        },
        {
          "address": "0x2abc2a3d2497bc3a8858bd2ec667df068045e997",
          "topics": [
            "0xddf252ad1be2c89b69c2b068fc378daa952ba7f163c4a11628f55a4df523b3ef",
            "0x0000000000000000000000000000000000000000000000000000000000000000",
            "0x00000000000000000000000018209e281e67a9b9db09a9d17d6a84d30b27e2ab"
          ],
          "data": "0x0000000000000000000000000000000000000000000000000000000000000032",
          "blockHash": "0xb2ebb4687b4a616955c980db05b24b9291ab67b6abd91490a22e77e5627ad8c3",
          "blockNumber": "0x728fb8",
          "transactionHash": "0x3102c208714541e9e2592cd2816d316779b1db400201edf4089ed1990a62a4c3",
          "transactionIndex": "0xaf",
          "logIndex": "0x124",
          "removed": false
        },
        {
          "address": "0xee5ee4f87367429d3b97cd9ccf435701b298aa62",
          "topics": [
            "0x6895c13664aa4f67288b25d7a21d7aaa34916e355fb9b6fae0a139a9085becb8",
            "0x000000000000000000000000bc2e5a6c60ba75d191533c5145299795318fcf73"
          ],
          "data": "0x",
          "blockHash": "0xb2ebb4687b4a616955c980db05b24b9291ab67b6abd91490a22e77e5627ad8c3",
          "blockNumber": "0x728fb8",
          "transactionHash": "0x3102c208714541e9e2592cd2816d316779b1db400201edf4089ed1990a62a4c3",
          "transactionIndex": "0xaf",
          "logIndex": "0x125",
          "removed": false
        },
        {
          "address": "0xbc2e5a6c60ba75d191533c5145299795318fcf73",
          "topics": [
            "0x916f812584e0b001e8c6ab604fa549cc16c9d0b2f60b17aa0b4ff5eefe3e7725"
          ],
          "data": "0x00000000000000000000000000000000000000000000000000000000000000000000000000000000000000000000000000000000000000000000000000000001000000000000000000000000000000000000000000000000000000000000000000000000000000000000000000000000000000000000000000000000000000000000000000000000000000000000000000000000000000000000000000000000000000000000000000000000000000000000000000000000000000000000000000000000000000000000000000000000000000000000000000000000000000000000000000000000000000000000000000000000000000000000000000000000000000000000000000000000000000000000000000000000000000000000018000000000000000000000000000000000000000000000000000000000000001c000000000000000000000000000000000000000000000000000000000000000010000000000000000000000000000000000000000000000000000000000000064000000000000000000000000000000000000000000000000000000000000000c48616d7a6120536861726573000000000000000000000000000000000000000000000000000000000000000000000000000000000000000000000000000000024853000000000000000000000000000000000000000000000000000000000000",
          "blockHash": "0xb2ebb4687b4a616955c980db05b24b9291ab67b6abd91490a22e77e5627ad8c3",
          "blockNumber": "0x728fb8",
          "transactionHash": "0x3102c208714541e9e2592cd2816d316779b1db400201edf4089ed1990a62a4c3",
          "transactionIndex": "0xaf",
          "logIndex": "0x126",
          "removed": false
        },
        {
          "address": "0xbc2e5a6c60ba75d191533c5145299795318fcf73",
          "topics": [
            "0x7f26b83ff96e1f2b6a682f133852f6798a09c465da95921460cefb3847402498"
          ],
          "data": "0x0000000000000000000000000000000000000000000000000000000000000001",
          "blockHash": "0xb2ebb4687b4a616955c980db05b24b9291ab67b6abd91490a22e77e5627ad8c3",
          "blockNumber": "0x728fb8",
          "transactionHash": "0x3102c208714541e9e2592cd2816d316779b1db400201edf4089ed1990a62a4c3",
          "transactionIndex": "0xaf",
          "logIndex": "0x127",
          "removed": false
        },
        {
          "address": "0x33267e2d3decebcae26fa8d837ef3f7608367ab2",
          "topics": [
            "0xcf2f09cd0dbc149b12a3630a11b7d73476660f3d08d3dc7dcc79c6dec555ee7a",
            "0x000000000000000000000000bc2e5a6c60ba75d191533c5145299795318fcf73",
            "0x0000000000000000000000002abc2a3d2497bc3a8858bd2ec667df068045e997",
            "0x000000000000000000000000ce7df29e5b1edf428326c235aad1ffeadfa5c4fe"
          ],
          "data": "0x000000000000000000000000ee5ee4f87367429d3b97cd9ccf435701b298aa6200000000000000000000000000000000000000000000000000000000000000000000000000000000000000000000000000000000000000000000000000000000",
          "blockHash": "0xb2ebb4687b4a616955c980db05b24b9291ab67b6abd91490a22e77e5627ad8c3",
          "blockNumber": "0x728fb8",
          "transactionHash": "0x3102c208714541e9e2592cd2816d316779b1db400201edf4089ed1990a62a4c3",
          "transactionIndex": "0xaf",
          "logIndex": "0x128",
          "removed": false
        }
      ],
      "logsBloom": "0x04000000000414000000000800100000c0000000080000008080000000000400100020000000120000000000000100000000000000024000000044000001000200481000000000800000002800000200000100000000040800400000a080020000000040020000000540000000000800000000010000000000000010000001404700010100000180040008000000000610208008000180000040800000000000043c28800200000000000000000400000200004000200000800020000000000000040022000302000100800000060001000000000000000000080000000020000000088004000000000002000080000220000000000008000001002000002401",
      "type": "0x2",
      "transactionHash": "0x3102c208714541e9e2592cd2816d316779b1db400201edf4089ed1990a62a4c3",
      "transactionIndex": "0xaf",
      "blockHash": "0xb2ebb4687b4a616955c980db05b24b9291ab67b6abd91490a22e77e5627ad8c3",
      "blockNumber": "0x728fb8",
      "gasUsed": "0x1822fa",
      "effectiveGasPrice": "0xf6b96",
      "from": "0x1310cedd03cc8f6ae50f2fb93848070facb042b8",
      "to": "0x33267e2d3decebcae26fa8d837ef3f7608367ab2",
      "contractAddress": null
    }
  ],
  "libraries": [],
  "pending": [],
  "returns": {},
  "timestamp": 1737077245,
  "chain": 11155111,
  "commit": "03322f9"
}