{
  "transactions": [
    {
      "hash": null,
      "transactionType": "CALL",
      "contractName": null,
      "contractAddress": "0xc22834581ebc8527d974f8a1c97e1bea4ef910bc",
      "function": "createProxy(address,bytes)",
      "arguments": [
        "0x69f4D1788e39c87893C980c06EdF4b7f686e2938",
        "0xb63e800d0000000000000000000000000000000000000000000000000000000000000100000000000000000000000000000000000000000000000000000000000000000100000000000000000000000000000000000000000000000000000000000000000000000000000000000000000000000000000000000000000000000000000160000000000000000000000000000000000000000000000000000000000000000000000000000000000000000000000000000000000000000000000000000000000000000000000000000000000000000000000000000000000000000000000000000000000000000000000000000000000000000000000000000000000000000000000000000000000000000000000000000000000000000000000000000000020000000000000000000000001310cedd03cc8f6ae50f2fb93848070facb042b80000000000000000000000001542612fee591ed35c05a3e980bab325265c06a30000000000000000000000000000000000000000000000000000000000000000"
      ],
      "transaction": {
        "from": "0x1310cedd03cc8f6ae50f2fb93848070facb042b8",
        "to": "0xc22834581ebc8527d974f8a1c97e1bea4ef910bc",
        "gas": "0x56cd3",
        "value": "0x0",
        "input": "0x61b69abd00000000000000000000000069f4d1788e39c87893c980c06edf4b7f686e293800000000000000000000000000000000000000000000000000000000000000400000000000000000000000000000000000000000000000000000000000000184b63e800d0000000000000000000000000000000000000000000000000000000000000100000000000000000000000000000000000000000000000000000000000000000100000000000000000000000000000000000000000000000000000000000000000000000000000000000000000000000000000000000000000000000000000160000000000000000000000000000000000000000000000000000000000000000000000000000000000000000000000000000000000000000000000000000000000000000000000000000000000000000000000000000000000000000000000000000000000000000000000000000000000000000000000000000000000000000000000000000000000000000000000000000000000000000000000000000000020000000000000000000000001310cedd03cc8f6ae50f2fb93848070facb042b80000000000000000000000001542612fee591ed35c05a3e980bab325265c06a3000000000000000000000000000000000000000000000000000000000000000000000000000000000000000000000000000000000000000000000000",
        "nonce": "0x1e9",
        "chainId": "0xaa36a7"
      },
      "additionalContracts": [
        {
          "transactionType": "CREATE",
          "address": "0xafe1ee91439d752078ea4ad177d56f3697ca79d3",
          "initCode": "0x608060405234801561001057600080fd5b506040516101e63803806101e68339818101604052602081101561003357600080fd5b8101908080519060200190929190505050600073ffffffffffffffffffffffffffffffffffffffff168173ffffffffffffffffffffffffffffffffffffffff1614156100ca576040517f08c379a00000000000000000000000000000000000000000000000000000000081526004018080602001828103825260228152602001806101c46022913960400191505060405180910390fd5b806000806101000a81548173ffffffffffffffffffffffffffffffffffffffff021916908373ffffffffffffffffffffffffffffffffffffffff1602179055505060ab806101196000396000f3fe608060405273ffffffffffffffffffffffffffffffffffffffff600054167fa619486e0000000000000000000000000000000000000000000000000000000060003514156050578060005260206000f35b3660008037600080366000845af43d6000803e60008114156070573d6000fd5b3d6000f3fea2646970667358221220d1429297349653a4918076d650332de1a1068c5f3e07c5c82360c277770b955264736f6c63430007060033496e76616c69642073696e676c65746f6e20616464726573732070726f766964656400000000000000000000000069f4d1788e39c87893c980c06edf4b7f686e2938"
        }
      ],
      "isFixedGasLimit": false
    },
    {
      "hash": null,
      "transactionType": "CREATE",
      "contractName": "EligibilityModule",
      "contractAddress": "0x5b2845e4b973b67a955de712c05d026fa498067f",
      "function": null,
      "arguments": [
        "0xaFE1EE91439d752078Ea4aD177d56F3697cA79D3"
      ],
      "transaction": {
        "from": "0xafe1ee91439d752078ea4ad177d56f3697ca79d3",
        "gas": "0x5a67e",
        "value": "0x0",
        "input": "0x608034606f57601f61044b38819003918201601f19168301916001600160401b03831184841017607357808492602094604052833981010312606f57516001600160a01b03811690819003606f575f80546001600160a01b0319169190911790556040516103c390816100888239f35b5f80fd5b634e487b7160e01b5f52604160045260245ffdfe6080806040526004361015610012575f80fd5b5f3560e01c908163370d8fba146102895750806358675ae8146101b157806375829def14610100578063bd683872146100895763f851a44014610053575f80fd5b34610085575f36600319011261008557602073ffffffffffffffffffffffffffffffffffffffff5f5416604051908152f35b5f80fd5b34610085576040366003190112610085576100a26102d2565b506024355f52600160205260406020815f206100bc610340565b90549060ff80831615159283835260081c16151592839101525f146100f9576001905b156100f35760015b82519182526020820152f35b5f6100e7565b5f906100df565b34610085576020366003190112610085576101196102d2565b73ffffffffffffffffffffffffffffffffffffffff5f549161013e82841633146102f5565b1690811561016d577fffffffffffffffffffffffff000000000000000000000000000000000000000016175f55005b606460405162461bcd60e51b815260206004820152600c60248201527f5a65726f206164647265737300000000000000000000000000000000000000006044820152fd5b346100855760603660031901126100855760043560243580151590818103610085576044359081151592838303610085577f31965539da4d3faf051b3068a0cd8e46c009cddfaba1b4488a46d05268da6c549361022673ffffffffffffffffffffffffffffffffffffffff5f541633146102f5565b61022e610340565b91825260208201908152855f52600160205260405f20915115159060ff61ff0084549251151560081b1692169061ffff191617179055610284604051928392839092916020906040830194151583521515910152565b0390a2005b34610085576020366003190112610085576004355f526001602052806102ce60405f205460ff808260081c169116839092916020906040830194151583521515910152565b0390f35b6004359073ffffffffffffffffffffffffffffffffffffffff8216820361008557565b156102fc57565b606460405162461bcd60e51b815260206004820152601060248201527f4e6f74206d6f64756c652061646d696e000000000000000000000000000000006044820152fd5b604051906040820182811067ffffffffffffffff82111761036057604052565b7f4e487b71000000000000000000000000000000000000000000000000000000005f52604160045260245ffdfea264697066735822122056886ae33b176982d6f50c4668420f1d460310b4afc75211780493cbe187b2ec64736f6c634300081b0033000000000000000000000000afe1ee91439d752078ea4ad177d56f3697ca79d3",
        "nonce": "0x1",
        "chainId": "0xaa36a7"
      },
      "additionalContracts": [],
      "isFixedGasLimit": false
    },
    {
      "hash": null,
      "transactionType": "CREATE",
      "contractName": "ToggleModule",
      "contractAddress": "0x8d3ee03b43794dcb168eef9c224944d46931f970",
      "function": null,
      "arguments": [
        "0xaFE1EE91439d752078Ea4aD177d56F3697cA79D3"
      ],
      "transaction": {
        "from": "0xafe1ee91439d752078ea4ad177d56f3697ca79d3",
        "gas": "0x491b0",
        "value": "0x0",
        "input": "0x608034606f57601f61034d38819003918201601f19168301916001600160401b03831184841017607357808492602094604052833981010312606f57516001600160a01b03811690819003606f575f80546001600160a01b0319169190911790556040516102c590816100888239f35b5f80fd5b634e487b7160e01b5f52604160045260245ffdfe60806040526004361015610011575f80fd5b5f3560e01c806375829def1461017e57806396208f7a1461013d578063b8a27d0b1461010e578063c43dc177146100865763f851a44014610050575f80fd5b34610082575f36600319011261008257602073ffffffffffffffffffffffffffffffffffffffff5f5416604051908152f35b5f80fd5b34610082576040366003190112610082576004356024358015158091036100825760207f7a5b9053a8082029af84e35eaf597e3d1c1f826b93a622dbefe354ad36f31152916100ed73ffffffffffffffffffffffffffffffffffffffff5f54163314610244565b835f526001825260405f2060ff1981541660ff8316179055604051908152a2005b34610082576020366003190112610082576004355f526001602052602060ff60405f2054166040519015158152f35b34610082576020366003190112610082576004355f52600160205260ff60405f2054165f1461017657602060015b60ff60405191168152f35b60205f61016b565b346100825760203660031901126100825760043573ffffffffffffffffffffffffffffffffffffffff8116809103610082575f546101d373ffffffffffffffffffffffffffffffffffffffff82163314610244565b8115610200577fffffffffffffffffffffffff000000000000000000000000000000000000000016175f55005b606460405162461bcd60e51b815260206004820152600c60248201527f5a65726f206164647265737300000000000000000000000000000000000000006044820152fd5b1561024b57565b606460405162461bcd60e51b815260206004820152601060248201527f4e6f7420746f67676c652061646d696e000000000000000000000000000000006044820152fdfea2646970667358221220ead6be160fe35bfe6a44f1216e79ed69c94ce48897adb394d2ee3b989ce7795464736f6c634300081b0033000000000000000000000000afe1ee91439d752078ea4ad177d56f3697ca79d3",
        "nonce": "0x2",
        "chainId": "0xaa36a7"
      },
      "additionalContracts": [],
      "isFixedGasLimit": false
    },
    {
      "hash": null,
      "transactionType": "CALL",
      "contractName": null,
      "contractAddress": "0x3bc1a0ad72417f2d411118085256fc53cbddd137",
      "function": "mintTopHat(address,string,string)",
      "arguments": [
        "0xaFE1EE91439d752078Ea4aD177d56F3697cA79D3",
        "ipfs://bafkreih3vqseitn7pijlkl2jcawbjrhae3dfb2pakqtgd4epvxxfulwoqq",
        ""
      ],
      "transaction": {
        "from": "0xafe1ee91439d752078ea4ad177d56f3697ca79d3",
        "to": "0x3bc1a0ad72417f2d411118085256fc53cbddd137",
        "gas": "0x41dc8",
        "value": "0x0",
        "input": "0x1a64dfad000000000000000000000000afe1ee91439d752078ea4ad177d56f3697ca79d3000000000000000000000000000000000000000000000000000000000000006000000000000000000000000000000000000000000000000000000000000000e00000000000000000000000000000000000000000000000000000000000000042697066733a2f2f6261666b72656968337671736569746e3770696a6c6b6c326a636177626a72686165336466623270616b7174676434657076787866756c776f71710000000000000000000000000000000000000000000000000000000000000000000000000000000000000000000000000000000000000000000000000000",
        "nonce": "0x3",
        "chainId": "0xaa36a7"
      },
      "additionalContracts": [],
      "isFixedGasLimit": false
    },
    {
      "hash": null,
      "transactionType": "CALL",
      "contractName": null,
      "contractAddress": "0x3bc1a0ad72417f2d411118085256fc53cbddd137",
      "function": "createHat(uint256,string,uint32,address,address,bool,string)",
      "arguments": [
        "21406197653717607996965609979093586754867892671497214549996266537877504",
        "ipfs://bafkreicbhbvddt2f475inukntzh6n72ehm4iyljstyyjsmizdsojmbdase",
        "2",
        "0x5b2845e4b973B67a955de712C05D026Fa498067F",
        "0x8d3EE03B43794dCb168eEf9C224944d46931F970",
        "true",
        ""
      ],
      "transaction": {
        "from": "0xafe1ee91439d752078ea4ad177d56f3697ca79d3",
        "to": "0x3bc1a0ad72417f2d411118085256fc53cbddd137",
        "gas": "0x41b8c",
        "value": "0x0",
        "input": "0xb052925e0000031a0000000000000000000000000000000000000000000000000000000000000000000000000000000000000000000000000000000000000000000000e000000000000000000000000000000000000000000000000000000000000000020000000000000000000000005b2845e4b973b67a955de712c05d026fa498067f0000000000000000000000008d3ee03b43794dcb168eef9c224944d46931f970000000000000000000000000000000000000000000000000000000000000000100000000000000000000000000000000000000000000000000000000000001600000000000000000000000000000000000000000000000000000000000000042697066733a2f2f6261666b72656963626862766464743266343735696e756b6e747a68366e373265686d3469796c6a737479796a736d697a64736f6a6d62646173650000000000000000000000000000000000000000000000000000000000000000000000000000000000000000000000000000000000000000000000000000",
        "nonce": "0x4",
        "chainId": "0xaa36a7"
      },
      "additionalContracts": [],
      "isFixedGasLimit": false
    },
    {
      "hash": null,
      "transactionType": "CALL",
      "contractName": null,
      "contractAddress": "0x3bc1a0ad72417f2d411118085256fc53cbddd137",
      "function": "createHat(uint256,string,uint32,address,address,bool,string)",
      "arguments": [
        "21406197653717607996965609979093586754867892671497214549996266537877504",
        "ipfs://bafkreic2f5b6ykdvafs5nhkouruvlql73caou5etgdrx67yt6ofp6pwf24",
        "2",
        "0x5b2845e4b973B67a955de712C05D026Fa498067F",
        "0x8d3EE03B43794dCb168eEf9C224944d46931F970",
        "true",
        ""
      ],
      "transaction": {
        "from": "0xafe1ee91439d752078ea4ad177d56f3697ca79d3",
        "to": "0x3bc1a0ad72417f2d411118085256fc53cbddd137",
        "gas": "0x41b8c",
        "value": "0x0",
        "input": "0xb052925e0000031a0000000000000000000000000000000000000000000000000000000000000000000000000000000000000000000000000000000000000000000000e000000000000000000000000000000000000000000000000000000000000000020000000000000000000000005b2845e4b973b67a955de712c05d026fa498067f0000000000000000000000008d3ee03b43794dcb168eef9c224944d46931f970000000000000000000000000000000000000000000000000000000000000000100000000000000000000000000000000000000000000000000000000000001600000000000000000000000000000000000000000000000000000000000000042697066733a2f2f6261666b726569633266356236796b6476616673356e686b6f757275766c716c373363616f753565746764727836377974366f66703670776632340000000000000000000000000000000000000000000000000000000000000000000000000000000000000000000000000000000000000000000000000000",
        "nonce": "0x5",
        "chainId": "0xaa36a7"
      },
      "additionalContracts": [],
      "isFixedGasLimit": false
    },
    {
      "hash": null,
      "transactionType": "CALL",
      "contractName": null,
      "contractAddress": "0x3bc1a0ad72417f2d411118085256fc53cbddd137",
      "function": "createHat(uint256,string,uint32,address,address,bool,string)",
      "arguments": [
        "21406197653717607996965609979093586754867892671497214549996266537877504",
        "ipfs://bafkreie2vxohaw7cneknlwv6hq7h4askkv6jfcadho6efz5bxfx66fqu3q",
        "2",
        "0x5b2845e4b973B67a955de712C05D026Fa498067F",
        "0x8d3EE03B43794dCb168eEf9C224944d46931F970",
        "true",
        ""
      ],
      "transaction": {
        "from": "0xafe1ee91439d752078ea4ad177d56f3697ca79d3",
        "to": "0x3bc1a0ad72417f2d411118085256fc53cbddd137",
        "gas": "0x41b8c",
        "value": "0x0",
        "input": "0xb052925e0000031a0000000000000000000000000000000000000000000000000000000000000000000000000000000000000000000000000000000000000000000000e000000000000000000000000000000000000000000000000000000000000000020000000000000000000000005b2845e4b973b67a955de712c05d026fa498067f0000000000000000000000008d3ee03b43794dcb168eef9c224944d46931f970000000000000000000000000000000000000000000000000000000000000000100000000000000000000000000000000000000000000000000000000000001600000000000000000000000000000000000000000000000000000000000000042697066733a2f2f6261666b726569653276786f68617737636e656b6e6c777636687137683461736b6b76366a66636164686f3665667a3562786678363666717533710000000000000000000000000000000000000000000000000000000000000000000000000000000000000000000000000000000000000000000000000000",
        "nonce": "0x6",
        "chainId": "0xaa36a7"
      },
      "additionalContracts": [],
      "isFixedGasLimit": false
    },
    {
      "hash": null,
      "transactionType": "CALL",
      "contractName": null,
      "contractAddress": "0x3bc1a0ad72417f2d411118085256fc53cbddd137",
      "function": "createHat(uint256,string,uint32,address,address,bool,string)",
      "arguments": [
        "21406197653717607996965609979093586754867892671497214549996266537877504",
        "ipfs://bafkreiczfbtftesggzcfnumcy7rfru665a77uyznbabdk5b6ftfo2hvjw4",
        "2",
        "0x5b2845e4b973B67a955de712C05D026Fa498067F",
        "0x8d3EE03B43794dCb168eEf9C224944d46931F970",
        "true",
        ""
      ],
      "transaction": {
        "from": "0xafe1ee91439d752078ea4ad177d56f3697ca79d3",
        "to": "0x3bc1a0ad72417f2d411118085256fc53cbddd137",
        "gas": "0x41b8c",
        "value": "0x0",
        "input": "0xb052925e0000031a0000000000000000000000000000000000000000000000000000000000000000000000000000000000000000000000000000000000000000000000e000000000000000000000000000000000000000000000000000000000000000020000000000000000000000005b2845e4b973b67a955de712c05d026fa498067f0000000000000000000000008d3ee03b43794dcb168eef9c224944d46931f970000000000000000000000000000000000000000000000000000000000000000100000000000000000000000000000000000000000000000000000000000001600000000000000000000000000000000000000000000000000000000000000042697066733a2f2f6261666b726569637a6662746674657367677a63666e756d6379377266727536363561373775797a6e626162646b3562366674666f3268766a77340000000000000000000000000000000000000000000000000000000000000000000000000000000000000000000000000000000000000000000000000000",
        "nonce": "0x7",
        "chainId": "0xaa36a7"
      },
      "additionalContracts": [],
      "isFixedGasLimit": false
    },
    {
      "hash": null,
      "transactionType": "CREATE",
      "contractName": "HatsSecurityContext",
      "contractAddress": "0x370f1578d63a11bab5970240e9a8d9c38b960bf9",
      "function": null,
      "arguments": [
        "0x3bc1A0Ad72417f2d411118085256fC53CBdDd137",
        "21406197653717607996965609979093586754867892671497214549996266537877504"
      ],
      "transaction": {
        "from": "0xafe1ee91439d752078ea4ad177d56f3697ca79d3",
        "gas": "0x5caea",
        "value": "0x0",
        "input": "0x60803461010e57601f61049738819003918201601f19168301916001600160401b0383118484101761011257808492604094855283398101031261010e5780516001600160a01b038116919082900361010e57602001519080156100c9575f80546001600160a01b0319169190911781557fa49807205ce4d355092ef5a8a18f56e8913cf4a201fbe287825b095693c21775905260016020527f50efbde2d46c37e9785f1791697f77e94bb7b701e19f1930a668820722d376945560405161037090816101278239f35b60405162461bcd60e51b815260206004820152601b60248201527f4861747320616464726573732063616e6e6f74206265207a65726f00000000006044820152606490fd5b5f80fd5b634e487b7160e01b5f52604160045260245ffdfe60806040526004361015610011575f80fd5b5f3560e01c806391d1485414610203578063b23e0dbe146101d9578063dfbe6d4e1461007b5763f99f023814610045575f80fd5b34610077575f36600319011261007757602073ffffffffffffffffffffffffffffffffffffffff5f5416604051908152f35b5f80fd5b34610077576040366003190112610077575f80547fa49807205ce4d355092ef5a8a18f56e8913cf4a201fbe287825b095693c21775909152600160209081527f50efbde2d46c37e9785f1791697f77e94bb7b701e19f1930a668820722d37694546040516321a9204d60e11b81523360048201526024810191909152918290604490829073ffffffffffffffffffffffffffffffffffffffff165afa9081156101ce575f9161019f575b5015610141576004355f52600160205260243560405f20555f80f35b60646040517f08c379a000000000000000000000000000000000000000000000000000000000815260206004820152601360248201527f43616c6c6572206973206e6f742061646d696e000000000000000000000000006044820152fd5b6101c1915060203d6020116101c7575b6101b9818361024c565b81019061029b565b81610125565b503d6101af565b6040513d5f823e3d90fd5b34610077576020366003190112610077576004355f526001602052602060405f2054604051908152f35b346100775760403660031901126100775760243573ffffffffffffffffffffffffffffffffffffffff81168103610077576102426020916004356102b3565b6040519015158152f35b90601f8019910116810190811067ffffffffffffffff82111761026e57604052565b7f4e487b71000000000000000000000000000000000000000000000000000000005f52604160045260245ffd5b90816020910312610077575180151581036100775790565b5f52600160205260405f2054908115610334575f546040516321a9204d60e11b815273ffffffffffffffffffffffffffffffffffffffff9283166004820152602481019390935260209183916044918391165afa9081156101ce575f91610318575090565b610331915060203d6020116101c7576101b9818361024c565b90565b50505f9056fea26469706673582212200296494086216f3eacc4c4d4a7ab05d6ae9878543b09b400ba2bde22dbacfb1464736f6c634300081b00330000000000000000000000003bc1a0ad72417f2d411118085256fc53cbddd1370000031a00000000000000000000000000000000000000000000000000000000",
        "nonce": "0x8",
        "chainId": "0xaa36a7"
      },
      "additionalContracts": [],
      "isFixedGasLimit": false
    },
    {
      "hash": null,
      "transactionType": "CALL",
      "contractName": "EligibilityModule",
      "contractAddress": "0x5b2845e4b973b67a955de712c05d026fa498067f",
      "function": "setHatRules(uint256,bool,bool)",
      "arguments": [
        "21406197653717607996965609979093586754867892671497214549996266537877504",
        "true",
        "true"
      ],
      "transaction": {
        "from": "0xafe1ee91439d752078ea4ad177d56f3697ca79d3",
        "to": "0x5b2845e4b973b67a955de712c05d026fa498067f",
        "gas": "0x102e3",
        "value": "0x0",
        "input": "0x58675ae80000031a0000000000000000000000000000000000000000000000000000000000000000000000000000000000000000000000000000000000000000000000010000000000000000000000000000000000000000000000000000000000000001",
        "nonce": "0x9",
        "chainId": "0xaa36a7"
      },
      "additionalContracts": [],
      "isFixedGasLimit": false
    },
    {
      "hash": null,
      "transactionType": "CALL",
      "contractName": "EligibilityModule",
      "contractAddress": "0x5b2845e4b973b67a955de712c05d026fa498067f",
      "function": "setHatRules(uint256,bool,bool)",
      "arguments": [
        "21406198065093747327267120517835882394205518917181180958391232375029760",
        "true",
        "true"
      ],
      "transaction": {
        "from": "0xafe1ee91439d752078ea4ad177d56f3697ca79d3",
        "to": "0x5b2845e4b973b67a955de712c05d026fa498067f",
        "gas": "0x11230",
        "value": "0x0",
        "input": "0x58675ae80000031a0001000000000000000000000000000000000000000000000000000000000000000000000000000000000000000000000000000000000000000000010000000000000000000000000000000000000000000000000000000000000001",
        "nonce": "0xa",
        "chainId": "0xaa36a7"
      },
      "additionalContracts": [],
      "isFixedGasLimit": false
    },
    {
      "hash": null,
      "transactionType": "CALL",
      "contractName": "EligibilityModule",
      "contractAddress": "0x5b2845e4b973b67a955de712c05d026fa498067f",
      "function": "setHatRules(uint256,bool,bool)",
      "arguments": [
        "21406198476469886657568631056578178033543145162865147366786198212182016",
        "true",
        "true"
      ],
      "transaction": {
        "from": "0xafe1ee91439d752078ea4ad177d56f3697ca79d3",
        "to": "0x5b2845e4b973b67a955de712c05d026fa498067f",
        "gas": "0x11230",
        "value": "0x0",
        "input": "0x58675ae80000031a0002000000000000000000000000000000000000000000000000000000000000000000000000000000000000000000000000000000000000000000010000000000000000000000000000000000000000000000000000000000000001",
        "nonce": "0xb",
        "chainId": "0xaa36a7"
      },
      "additionalContracts": [],
      "isFixedGasLimit": false
    },
    {
      "hash": null,
      "transactionType": "CALL",
      "contractName": "EligibilityModule",
      "contractAddress": "0x5b2845e4b973b67a955de712c05d026fa498067f",
      "function": "setHatRules(uint256,bool,bool)",
      "arguments": [
        "21406198887846025987870141595320473672880771408549113775181164049334272",
        "true",
        "true"
      ],
      "transaction": {
        "from": "0xafe1ee91439d752078ea4ad177d56f3697ca79d3",
        "to": "0x5b2845e4b973b67a955de712c05d026fa498067f",
        "gas": "0x11230",
        "value": "0x0",
        "input": "0x58675ae80000031a0003000000000000000000000000000000000000000000000000000000000000000000000000000000000000000000000000000000000000000000010000000000000000000000000000000000000000000000000000000000000001",
        "nonce": "0xc",
        "chainId": "0xaa36a7"
      },
      "additionalContracts": [],
      "isFixedGasLimit": false
    },
    {
      "hash": null,
      "transactionType": "CALL",
      "contractName": "EligibilityModule",
      "contractAddress": "0x5b2845e4b973b67a955de712c05d026fa498067f",
      "function": "setHatRules(uint256,bool,bool)",
      "arguments": [
        "21406199299222165318171652134062769312218397654233080183576129886486528",
        "true",
        "true"
      ],
      "transaction": {
        "from": "0xafe1ee91439d752078ea4ad177d56f3697ca79d3",
        "to": "0x5b2845e4b973b67a955de712c05d026fa498067f",
        "gas": "0x11230",
        "value": "0x0",
        "input": "0x58675ae80000031a0004000000000000000000000000000000000000000000000000000000000000000000000000000000000000000000000000000000000000000000010000000000000000000000000000000000000000000000000000000000000001",
        "nonce": "0xd",
        "chainId": "0xaa36a7"
      },
      "additionalContracts": [],
      "isFixedGasLimit": false
    },
    {
      "hash": null,
      "transactionType": "CALL",
      "contractName": "ToggleModule",
      "contractAddress": "0x8d3ee03b43794dcb168eef9c224944d46931f970",
      "function": "setHatStatus(uint256,bool)",
      "arguments": [
        "21406197653717607996965609979093586754867892671497214549996266537877504",
        "true"
      ],
      "transaction": {
        "from": "0xafe1ee91439d752078ea4ad177d56f3697ca79d3",
        "to": "0x8d3ee03b43794dcb168eef9c224944d46931f970",
        "gas": "0xff6e",
        "value": "0x0",
        "input": "0xc43dc1770000031a000000000000000000000000000000000000000000000000000000000000000000000000000000000000000000000000000000000000000000000001",
        "nonce": "0xe",
        "chainId": "0xaa36a7"
      },
      "additionalContracts": [],
      "isFixedGasLimit": false
    },
    {
      "hash": null,
      "transactionType": "CALL",
      "contractName": "ToggleModule",
      "contractAddress": "0x8d3ee03b43794dcb168eef9c224944d46931f970",
      "function": "setHatStatus(uint256,bool)",
      "arguments": [
        "21406198065093747327267120517835882394205518917181180958391232375029760",
        "true"
      ],
      "transaction": {
        "from": "0xafe1ee91439d752078ea4ad177d56f3697ca79d3",
        "to": "0x8d3ee03b43794dcb168eef9c224944d46931f970",
        "gas": "0x10e86",
        "value": "0x0",
        "input": "0xc43dc1770000031a000100000000000000000000000000000000000000000000000000000000000000000000000000000000000000000000000000000000000000000001",
        "nonce": "0xf",
        "chainId": "0xaa36a7"
      },
      "additionalContracts": [],
      "isFixedGasLimit": false
    },
    {
      "hash": null,
      "transactionType": "CALL",
      "contractName": "ToggleModule",
      "contractAddress": "0x8d3ee03b43794dcb168eef9c224944d46931f970",
      "function": "setHatStatus(uint256,bool)",
      "arguments": [
        "21406198476469886657568631056578178033543145162865147366786198212182016",
        "true"
      ],
      "transaction": {
        "from": "0xafe1ee91439d752078ea4ad177d56f3697ca79d3",
        "to": "0x8d3ee03b43794dcb168eef9c224944d46931f970",
        "gas": "0x10e86",
        "value": "0x0",
        "input": "0xc43dc1770000031a000200000000000000000000000000000000000000000000000000000000000000000000000000000000000000000000000000000000000000000001",
        "nonce": "0x10",
        "chainId": "0xaa36a7"
      },
      "additionalContracts": [],
      "isFixedGasLimit": false
    },
    {
      "hash": null,
      "transactionType": "CALL",
      "contractName": "ToggleModule",
      "contractAddress": "0x8d3ee03b43794dcb168eef9c224944d46931f970",
      "function": "setHatStatus(uint256,bool)",
      "arguments": [
        "21406198887846025987870141595320473672880771408549113775181164049334272",
        "true"
      ],
      "transaction": {
        "from": "0xafe1ee91439d752078ea4ad177d56f3697ca79d3",
        "to": "0x8d3ee03b43794dcb168eef9c224944d46931f970",
        "gas": "0x10e86",
        "value": "0x0",
        "input": "0xc43dc1770000031a000300000000000000000000000000000000000000000000000000000000000000000000000000000000000000000000000000000000000000000001",
        "nonce": "0x11",
        "chainId": "0xaa36a7"
      },
      "additionalContracts": [],
      "isFixedGasLimit": false
    },
    {
      "hash": null,
      "transactionType": "CALL",
      "contractName": "ToggleModule",
      "contractAddress": "0x8d3ee03b43794dcb168eef9c224944d46931f970",
      "function": "setHatStatus(uint256,bool)",
      "arguments": [
        "21406199299222165318171652134062769312218397654233080183576129886486528",
        "true"
      ],
      "transaction": {
        "from": "0xafe1ee91439d752078ea4ad177d56f3697ca79d3",
        "to": "0x8d3ee03b43794dcb168eef9c224944d46931f970",
        "gas": "0x10e86",
        "value": "0x0",
        "input": "0xc43dc1770000031a000400000000000000000000000000000000000000000000000000000000000000000000000000000000000000000000000000000000000000000001",
        "nonce": "0x12",
        "chainId": "0xaa36a7"
      },
      "additionalContracts": [],
      "isFixedGasLimit": false
    },
    {
      "hash": null,
      "transactionType": "CALL",
      "contractName": null,
      "contractAddress": "0x3bc1a0ad72417f2d411118085256fc53cbddd137",
      "function": "mintHat(uint256,address)",
      "arguments": [
        "21406198065093747327267120517835882394205518917181180958391232375029760",
        "0x1310cEdD03Cc8F6aE50F2Fb93848070FACB042b8"
      ],
      "transaction": {
        "from": "0xafe1ee91439d752078ea4ad177d56f3697ca79d3",
        "to": "0x3bc1a0ad72417f2d411118085256fc53cbddd137",
        "gas": "0x1b497",
        "value": "0x0",
        "input": "0x641f776e0000031a000100000000000000000000000000000000000000000000000000000000000000000000000000001310cedd03cc8f6ae50f2fb93848070facb042b8",
        "nonce": "0x13",
        "chainId": "0xaa36a7"
      },
      "additionalContracts": [],
      "isFixedGasLimit": false
    },
    {
      "hash": null,
      "transactionType": "CALL",
      "contractName": null,
      "contractAddress": "0x3bc1a0ad72417f2d411118085256fc53cbddd137",
      "function": "mintHat(uint256,address)",
      "arguments": [
        "21406198065093747327267120517835882394205518917181180958391232375029760",
        "0x1542612fee591eD35C05A3E980bAB325265c06a3"
      ],
      "transaction": {
        "from": "0xafe1ee91439d752078ea4ad177d56f3697ca79d3",
        "to": "0x3bc1a0ad72417f2d411118085256fc53cbddd137",
        "gas": "0x1b497",
        "value": "0x0",
        "input": "0x641f776e0000031a000100000000000000000000000000000000000000000000000000000000000000000000000000001542612fee591ed35c05a3e980bab325265c06a3",
        "nonce": "0x14",
        "chainId": "0xaa36a7"
      },
      "additionalContracts": [],
      "isFixedGasLimit": false
    },
    {
      "hash": null,
      "transactionType": "CALL",
      "contractName": null,
      "contractAddress": "0x3bc1a0ad72417f2d411118085256fc53cbddd137",
      "function": "mintHat(uint256,address)",
      "arguments": [
        "21406198476469886657568631056578178033543145162865147366786198212182016",
        "0x1310cEdD03Cc8F6aE50F2Fb93848070FACB042b8"
      ],
      "transaction": {
        "from": "0xafe1ee91439d752078ea4ad177d56f3697ca79d3",
        "to": "0x3bc1a0ad72417f2d411118085256fc53cbddd137",
        "gas": "0x1b497",
        "value": "0x0",
        "input": "0x641f776e0000031a000200000000000000000000000000000000000000000000000000000000000000000000000000001310cedd03cc8f6ae50f2fb93848070facb042b8",
        "nonce": "0x15",
        "chainId": "0xaa36a7"
      },
      "additionalContracts": [],
      "isFixedGasLimit": false
    },
    {
      "hash": null,
      "transactionType": "CALL",
      "contractName": null,
      "contractAddress": "0x3bc1a0ad72417f2d411118085256fc53cbddd137",
      "function": "mintHat(uint256,address)",
      "arguments": [
        "21406198476469886657568631056578178033543145162865147366786198212182016",
        "0x1542612fee591eD35C05A3E980bAB325265c06a3"
      ],
      "transaction": {
        "from": "0xafe1ee91439d752078ea4ad177d56f3697ca79d3",
        "to": "0x3bc1a0ad72417f2d411118085256fc53cbddd137",
        "gas": "0x1b497",
        "value": "0x0",
        "input": "0x641f776e0000031a000200000000000000000000000000000000000000000000000000000000000000000000000000001542612fee591ed35c05a3e980bab325265c06a3",
        "nonce": "0x16",
        "chainId": "0xaa36a7"
      },
      "additionalContracts": [],
      "isFixedGasLimit": false
    },
    {
      "hash": null,
      "transactionType": "CALL",
      "contractName": null,
      "contractAddress": "0x3bc1a0ad72417f2d411118085256fc53cbddd137",
      "function": "mintHat(uint256,address)",
      "arguments": [
        "21406198887846025987870141595320473672880771408549113775181164049334272",
        "0x1310cEdD03Cc8F6aE50F2Fb93848070FACB042b8"
      ],
      "transaction": {
        "from": "0xafe1ee91439d752078ea4ad177d56f3697ca79d3",
        "to": "0x3bc1a0ad72417f2d411118085256fc53cbddd137",
        "gas": "0x1b497",
        "value": "0x0",
        "input": "0x641f776e0000031a000300000000000000000000000000000000000000000000000000000000000000000000000000001310cedd03cc8f6ae50f2fb93848070facb042b8",
        "nonce": "0x17",
        "chainId": "0xaa36a7"
      },
      "additionalContracts": [],
      "isFixedGasLimit": false
    },
    {
      "hash": null,
      "transactionType": "CALL",
      "contractName": null,
      "contractAddress": "0x3bc1a0ad72417f2d411118085256fc53cbddd137",
      "function": "mintHat(uint256,address)",
      "arguments": [
        "21406198887846025987870141595320473672880771408549113775181164049334272",
        "0x1542612fee591eD35C05A3E980bAB325265c06a3"
      ],
      "transaction": {
        "from": "0xafe1ee91439d752078ea4ad177d56f3697ca79d3",
        "to": "0x3bc1a0ad72417f2d411118085256fc53cbddd137",
        "gas": "0x1b497",
        "value": "0x0",
        "input": "0x641f776e0000031a000300000000000000000000000000000000000000000000000000000000000000000000000000001542612fee591ed35c05a3e980bab325265c06a3",
        "nonce": "0x18",
        "chainId": "0xaa36a7"
      },
      "additionalContracts": [],
      "isFixedGasLimit": false
    },
    {
      "hash": null,
      "transactionType": "CALL",
      "contractName": null,
      "contractAddress": "0x3bc1a0ad72417f2d411118085256fc53cbddd137",
      "function": "mintHat(uint256,address)",
      "arguments": [
        "21406199299222165318171652134062769312218397654233080183576129886486528",
        "0x1310cEdD03Cc8F6aE50F2Fb93848070FACB042b8"
      ],
      "transaction": {
        "from": "0xafe1ee91439d752078ea4ad177d56f3697ca79d3",
        "to": "0x3bc1a0ad72417f2d411118085256fc53cbddd137",
        "gas": "0x1b497",
        "value": "0x0",
        "input": "0x641f776e0000031a000400000000000000000000000000000000000000000000000000000000000000000000000000001310cedd03cc8f6ae50f2fb93848070facb042b8",
        "nonce": "0x19",
        "chainId": "0xaa36a7"
      },
      "additionalContracts": [],
      "isFixedGasLimit": false
    },
    {
      "hash": null,
      "transactionType": "CALL",
      "contractName": null,
      "contractAddress": "0x3bc1a0ad72417f2d411118085256fc53cbddd137",
      "function": "mintHat(uint256,address)",
      "arguments": [
        "21406199299222165318171652134062769312218397654233080183576129886486528",
        "0x1542612fee591eD35C05A3E980bAB325265c06a3"
      ],
      "transaction": {
        "from": "0xafe1ee91439d752078ea4ad177d56f3697ca79d3",
        "to": "0x3bc1a0ad72417f2d411118085256fc53cbddd137",
        "gas": "0x1b497",
        "value": "0x0",
        "input": "0x641f776e0000031a000400000000000000000000000000000000000000000000000000000000000000000000000000001542612fee591ed35c05a3e980bab325265c06a3",
        "nonce": "0x1a",
        "chainId": "0xaa36a7"
      },
      "additionalContracts": [],
      "isFixedGasLimit": false
    },
    {
      "hash": null,
      "transactionType": "CALL",
      "contractName": "HatsSecurityContext",
      "contractAddress": "0x370f1578d63a11bab5970240e9a8d9c38b960bf9",
      "function": "setRoleHat(bytes32,uint256)",
      "arguments": [
        "0xbb08418a67729a078f87bbc8d02a770929bb68f5bfdf134ae2ead6ed38e2f4ae",
        "21406198065093747327267120517835882394205518917181180958391232375029760"
      ],
      "transaction": {
        "from": "0xafe1ee91439d752078ea4ad177d56f3697ca79d3",
        "to": "0x370f1578d63a11bab5970240e9a8d9c38b960bf9",
        "gas": "0x172ee",
        "value": "0x0",
        "input": "0xdfbe6d4ebb08418a67729a078f87bbc8d02a770929bb68f5bfdf134ae2ead6ed38e2f4ae0000031a00010000000000000000000000000000000000000000000000000000",
        "nonce": "0x1b",
        "chainId": "0xaa36a7"
      },
      "additionalContracts": [],
      "isFixedGasLimit": false
    },
    {
      "hash": null,
      "transactionType": "CALL",
      "contractName": "HatsSecurityContext",
      "contractAddress": "0x370f1578d63a11bab5970240e9a8d9c38b960bf9",
      "function": "setRoleHat(bytes32,uint256)",
      "arguments": [
        "0x3b5d4cc60d3ec3516ee8ae083bd60934f6eb2a6c54b1229985c41bfb092b2603",
        "21406198476469886657568631056578178033543145162865147366786198212182016"
      ],
      "transaction": {
        "from": "0xafe1ee91439d752078ea4ad177d56f3697ca79d3",
        "to": "0x370f1578d63a11bab5970240e9a8d9c38b960bf9",
        "gas": "0x172ee",
        "value": "0x0",
        "input": "0xdfbe6d4e3b5d4cc60d3ec3516ee8ae083bd60934f6eb2a6c54b1229985c41bfb092b26030000031a00020000000000000000000000000000000000000000000000000000",
        "nonce": "0x1c",
        "chainId": "0xaa36a7"
      },
      "additionalContracts": [],
      "isFixedGasLimit": false
    },
    {
      "hash": null,
      "transactionType": "CALL",
      "contractName": "HatsSecurityContext",
      "contractAddress": "0x370f1578d63a11bab5970240e9a8d9c38b960bf9",
      "function": "setRoleHat(bytes32,uint256)",
      "arguments": [
        "0x5719df9ef2c4678b547f89e4f5ae410dbf400fc51cf3ded434c55f6adea2c43f",
        "21406198887846025987870141595320473672880771408549113775181164049334272"
      ],
      "transaction": {
        "from": "0xafe1ee91439d752078ea4ad177d56f3697ca79d3",
        "to": "0x370f1578d63a11bab5970240e9a8d9c38b960bf9",
        "gas": "0x172ee",
        "value": "0x0",
        "input": "0xdfbe6d4e5719df9ef2c4678b547f89e4f5ae410dbf400fc51cf3ded434c55f6adea2c43f0000031a00030000000000000000000000000000000000000000000000000000",
        "nonce": "0x1d",
        "chainId": "0xaa36a7"
      },
      "additionalContracts": [],
      "isFixedGasLimit": false
    },
    {
      "hash": null,
      "transactionType": "CALL",
      "contractName": "HatsSecurityContext",
      "contractAddress": "0x370f1578d63a11bab5970240e9a8d9c38b960bf9",
      "function": "setRoleHat(bytes32,uint256)",
      "arguments": [
        "0x65d7a28e3265b37a6474929f336521b332c1681b933f6cb9f3376673440d862a",
        "21406199299222165318171652134062769312218397654233080183576129886486528"
      ],
      "transaction": {
        "from": "0xafe1ee91439d752078ea4ad177d56f3697ca79d3",
        "to": "0x370f1578d63a11bab5970240e9a8d9c38b960bf9",
        "gas": "0x172ee",
        "value": "0x0",
        "input": "0xdfbe6d4e65d7a28e3265b37a6474929f336521b332c1681b933f6cb9f3376673440d862a0000031a00040000000000000000000000000000000000000000000000000000",
        "nonce": "0x1e",
        "chainId": "0xaa36a7"
      },
      "additionalContracts": [],
      "isFixedGasLimit": false
    }
  ],
  "receipts": [],
  "libraries": [],
  "pending": [],
  "returns": {},
  "timestamp": 1737401659,
  "chain": 11155111,
  "commit": "693cf4c"
}