{
  "transactions": [
    {
      "hash": "0xf07bb774b0839c61676eccc0a825198a8eb43bf28b468171513e701dc4e77e22",
      "transactionType": "CALL",
      "contractName": null,
      "contractAddress": "0xc22834581ebc8527d974f8a1c97e1bea4ef910bc",
      "function": "createProxy(address,bytes)",
      "arguments": [
        "0x69f4D1788e39c87893C980c06EdF4b7f686e2938",
        "0xb63e800d0000000000000000000000000000000000000000000000000000000000000100000000000000000000000000000000000000000000000000000000000000000100000000000000000000000000000000000000000000000000000000000000000000000000000000000000000000000000000000000000000000000000000160000000000000000000000000000000000000000000000000000000000000000000000000000000000000000000000000000000000000000000000000000000000000000000000000000000000000000000000000000000000000000000000000000000000000000000000000000000000000000000000000000000000000000000000000000000000000000000000000000000000000000000000000000000020000000000000000000000001310cedd03cc8f6ae50f2fb93848070facb042b80000000000000000000000001542612fee591ed35c05a3e980bab325265c06a30000000000000000000000000000000000000000000000000000000000000000"
      ],
      "transaction": {
        "from": "0x1310cedd03cc8f6ae50f2fb93848070facb042b8",
        "to": "0xc22834581ebc8527d974f8a1c97e1bea4ef910bc",
        "gas": "0x56cd3",
        "value": "0x0",
        "input": "0x61b69abd00000000000000000000000069f4d1788e39c87893c980c06edf4b7f686e293800000000000000000000000000000000000000000000000000000000000000400000000000000000000000000000000000000000000000000000000000000184b63e800d0000000000000000000000000000000000000000000000000000000000000100000000000000000000000000000000000000000000000000000000000000000100000000000000000000000000000000000000000000000000000000000000000000000000000000000000000000000000000000000000000000000000000160000000000000000000000000000000000000000000000000000000000000000000000000000000000000000000000000000000000000000000000000000000000000000000000000000000000000000000000000000000000000000000000000000000000000000000000000000000000000000000000000000000000000000000000000000000000000000000000000000000000000000000000000000000020000000000000000000000001310cedd03cc8f6ae50f2fb93848070facb042b80000000000000000000000001542612fee591ed35c05a3e980bab325265c06a3000000000000000000000000000000000000000000000000000000000000000000000000000000000000000000000000000000000000000000000000",
        "nonce": "0x287",
        "chainId": "0xaa36a7"
      },
      "additionalContracts": [
        {
          "transactionType": "CREATE",
          "address": "0x28eb5bd20a478e4aacecd831624e77e7e525c55d",
          "initCode": "0x608060405234801561001057600080fd5b506040516101e63803806101e68339818101604052602081101561003357600080fd5b8101908080519060200190929190505050600073ffffffffffffffffffffffffffffffffffffffff168173ffffffffffffffffffffffffffffffffffffffff1614156100ca576040517f08c379a00000000000000000000000000000000000000000000000000000000081526004018080602001828103825260228152602001806101c46022913960400191505060405180910390fd5b806000806101000a81548173ffffffffffffffffffffffffffffffffffffffff021916908373ffffffffffffffffffffffffffffffffffffffff1602179055505060ab806101196000396000f3fe608060405273ffffffffffffffffffffffffffffffffffffffff600054167fa619486e0000000000000000000000000000000000000000000000000000000060003514156050578060005260206000f35b3660008037600080366000845af43d6000803e60008114156070573d6000fd5b3d6000f3fea2646970667358221220d1429297349653a4918076d650332de1a1068c5f3e07c5c82360c277770b955264736f6c63430007060033496e76616c69642073696e676c65746f6e20616464726573732070726f766964656400000000000000000000000069f4d1788e39c87893c980c06edf4b7f686e2938"
        }
      ],
      "isFixedGasLimit": false
    },
    {
      "hash": "0xd33524365ebc00ee2a86c39523272ccdb7749896c78edcc3e7635bcb08143e83",
      "transactionType": "CREATE",
      "contractName": "EligibilityModule",
      "contractAddress": "0x0b9721c6e4b71e91256c0826a20ce5816b8251d1",
      "function": null,
      "arguments": [
        "0x28Eb5BD20A478E4aAcecD831624E77e7E525C55d"
      ],
      "transaction": {
        "from": "0x1310cedd03cc8f6ae50f2fb93848070facb042b8",
        "gas": "0x5a67e",
        "value": "0x0",
        "input": "0x608034606f57601f61044b38819003918201601f19168301916001600160401b03831184841017607357808492602094604052833981010312606f57516001600160a01b03811690819003606f575f80546001600160a01b0319169190911790556040516103c390816100888239f35b5f80fd5b634e487b7160e01b5f52604160045260245ffdfe6080806040526004361015610012575f80fd5b5f3560e01c908163370d8fba146102895750806358675ae8146101b157806375829def14610100578063bd683872146100895763f851a44014610053575f80fd5b34610085575f36600319011261008557602073ffffffffffffffffffffffffffffffffffffffff5f5416604051908152f35b5f80fd5b34610085576040366003190112610085576100a26102d2565b506024355f52600160205260406020815f206100bc610340565b90549060ff80831615159283835260081c16151592839101525f146100f9576001905b156100f35760015b82519182526020820152f35b5f6100e7565b5f906100df565b34610085576020366003190112610085576101196102d2565b73ffffffffffffffffffffffffffffffffffffffff5f549161013e82841633146102f5565b1690811561016d577fffffffffffffffffffffffff000000000000000000000000000000000000000016175f55005b606460405162461bcd60e51b815260206004820152600c60248201527f5a65726f206164647265737300000000000000000000000000000000000000006044820152fd5b346100855760603660031901126100855760043560243580151590818103610085576044359081151592838303610085577f31965539da4d3faf051b3068a0cd8e46c009cddfaba1b4488a46d05268da6c549361022673ffffffffffffffffffffffffffffffffffffffff5f541633146102f5565b61022e610340565b91825260208201908152855f52600160205260405f20915115159060ff61ff0084549251151560081b1692169061ffff191617179055610284604051928392839092916020906040830194151583521515910152565b0390a2005b34610085576020366003190112610085576004355f526001602052806102ce60405f205460ff808260081c169116839092916020906040830194151583521515910152565b0390f35b6004359073ffffffffffffffffffffffffffffffffffffffff8216820361008557565b156102fc57565b606460405162461bcd60e51b815260206004820152601060248201527f4e6f74206d6f64756c652061646d696e000000000000000000000000000000006044820152fd5b604051906040820182811067ffffffffffffffff82111761036057604052565b7f4e487b71000000000000000000000000000000000000000000000000000000005f52604160045260245ffdfea264697066735822122056886ae33b176982d6f50c4668420f1d460310b4afc75211780493cbe187b2ec64736f6c634300081b003300000000000000000000000028eb5bd20a478e4aacecd831624e77e7e525c55d",
        "nonce": "0x288",
        "chainId": "0xaa36a7"
      },
      "additionalContracts": [],
      "isFixedGasLimit": false
    },
    {
      "hash": "0x1f5073cc89f2e2bfe65866edb082ef2372699ba9b4f9b04a96ea1267ab898f63",
      "transactionType": "CREATE",
      "contractName": "ToggleModule",
      "contractAddress": "0x6108c146f671414956b76e1deea2784902bcf667",
      "function": null,
      "arguments": [
        "0x28Eb5BD20A478E4aAcecD831624E77e7E525C55d"
      ],
      "transaction": {
        "from": "0x1310cedd03cc8f6ae50f2fb93848070facb042b8",
        "gas": "0x491b0",
        "value": "0x0",
        "input": "0x608034606f57601f61034d38819003918201601f19168301916001600160401b03831184841017607357808492602094604052833981010312606f57516001600160a01b03811690819003606f575f80546001600160a01b0319169190911790556040516102c590816100888239f35b5f80fd5b634e487b7160e01b5f52604160045260245ffdfe60806040526004361015610011575f80fd5b5f3560e01c806375829def1461017e57806396208f7a1461013d578063b8a27d0b1461010e578063c43dc177146100865763f851a44014610050575f80fd5b34610082575f36600319011261008257602073ffffffffffffffffffffffffffffffffffffffff5f5416604051908152f35b5f80fd5b34610082576040366003190112610082576004356024358015158091036100825760207f7a5b9053a8082029af84e35eaf597e3d1c1f826b93a622dbefe354ad36f31152916100ed73ffffffffffffffffffffffffffffffffffffffff5f54163314610244565b835f526001825260405f2060ff1981541660ff8316179055604051908152a2005b34610082576020366003190112610082576004355f526001602052602060ff60405f2054166040519015158152f35b34610082576020366003190112610082576004355f52600160205260ff60405f2054165f1461017657602060015b60ff60405191168152f35b60205f61016b565b346100825760203660031901126100825760043573ffffffffffffffffffffffffffffffffffffffff8116809103610082575f546101d373ffffffffffffffffffffffffffffffffffffffff82163314610244565b8115610200577fffffffffffffffffffffffff000000000000000000000000000000000000000016175f55005b606460405162461bcd60e51b815260206004820152600c60248201527f5a65726f206164647265737300000000000000000000000000000000000000006044820152fd5b1561024b57565b606460405162461bcd60e51b815260206004820152601060248201527f4e6f7420746f67676c652061646d696e000000000000000000000000000000006044820152fdfea2646970667358221220ead6be160fe35bfe6a44f1216e79ed69c94ce48897adb394d2ee3b989ce7795464736f6c634300081b003300000000000000000000000028eb5bd20a478e4aacecd831624e77e7e525c55d",
        "nonce": "0x289",
        "chainId": "0xaa36a7"
      },
      "additionalContracts": [],
      "isFixedGasLimit": false
    },
    {
      "hash": "0x1aa2e9f44b46bbe4b7771779cb321b9eb383226cd86c2180aaa14caf58c4af66",
      "transactionType": "CALL",
      "contractName": "GnosisSafeProxy",
      "contractAddress": "0x28eb5bd20a478e4aacecd831624e77e7e525c55d",
      "function": null,
      "arguments": null,
      "transaction": {
        "from": "0x1310cedd03cc8f6ae50f2fb93848070facb042b8",
        "to": "0x28eb5bd20a478e4aacecd831624e77e7e525c55d",
        "gas": "0x50ddc",
        "value": "0x0",
        "input": "0x6a7612020000000000000000000000003bc1a0ad72417f2d411118085256fc53cbddd13700000000000000000000000000000000000000000000000000000000000000000000000000000000000000000000000000000000000000000000000000000140000000000000000000000000000000000000000000000000000000000000000000000000000000000000000000000000000000000000000000000000000000000000000000000000000000000000000000000000000000000000000000000000000000000000000000000000000000000000000000000000000000000000000000000000000000000000000000000000000000000000000000000000000000000000000000000000000000000000000000000000000000000000000000000000000000000000000000000000000000000000000000000000000000000000028000000000000000000000000000000000000000000000000000000000000001041a64dfad00000000000000000000000028eb5bd20a478e4aacecd831624e77e7e525c55d000000000000000000000000000000000000000000000000000000000000006000000000000000000000000000000000000000000000000000000000000000e00000000000000000000000000000000000000000000000000000000000000042697066733a2f2f6261666b72656968337671736569746e3770696a6c6b6c326a636177626a72686165336466623270616b7174676434657076787866756c776f717100000000000000000000000000000000000000000000000000000000000000000000000000000000000000000000000000000000000000000000000000000000000000000000000000000000000000000000000000000000000000000000000000000000000000000000000000000000000000000000000000410000000000000000000000001310cedd03cc8f6ae50f2fb93848070facb042b800000000000000000000000000000000000000000000000000000000000000000100000000000000000000000000000000000000000000000000000000000000",
        "nonce": "0x28a",
        "chainId": "0xaa36a7"
      },
      "additionalContracts": [],
      "isFixedGasLimit": false
    },
    {
      "hash": "0x65cd3952c56d74e40ddec50c5c4a031e039e674a17a7605830870d8d28dca399",
      "transactionType": "CALL",
      "contractName": "GnosisSafeProxy",
      "contractAddress": "0x28eb5bd20a478e4aacecd831624e77e7e525c55d",
      "function": null,
      "arguments": null,
      "transaction": {
        "from": "0x1310cedd03cc8f6ae50f2fb93848070facb042b8",
        "to": "0x28eb5bd20a478e4aacecd831624e77e7e525c55d",
        "gas": "0x47554",
        "value": "0x0",
        "input": "0x6a7612020000000000000000000000003bc1a0ad72417f2d411118085256fc53cbddd1370000000000000000000000000000000000000000000000000000000000000000000000000000000000000000000000000000000000000000000000000000014000000000000000000000000000000000000000000000000000000000000000000000000000000000000000000000000000000000000000000000000000000000000000000000000000000000000000000000000000000000000000000000000000000000000000000000000000000000000000000000000000000000000000000000000000000000000000000000000000000000000000000000000000000000000000000000000000000000000000000000000000000000000000000000000000000000000000000000000000000000000000000000000000000000000003000000000000000000000000000000000000000000000000000000000000000184b052925e0000031b0000000000000000000000000000000000000000000000000000000000000000000000000000000000000000000000000000000000000000000000e000000000000000000000000000000000000000000000000000000000000000020000000000000000000000000b9721c6e4b71e91256c0826a20ce5816b8251d10000000000000000000000006108c146f671414956b76e1deea2784902bcf667000000000000000000000000000000000000000000000000000000000000000100000000000000000000000000000000000000000000000000000000000001600000000000000000000000000000000000000000000000000000000000000042697066733a2f2f6261666b72656963626862766464743266343735696e756b6e747a68366e373265686d3469796c6a737479796a736d697a64736f6a6d626461736500000000000000000000000000000000000000000000000000000000000000000000000000000000000000000000000000000000000000000000000000000000000000000000000000000000000000000000000000000000000000000000000000000000000000000000000000000000000000000000000000410000000000000000000000001310cedd03cc8f6ae50f2fb93848070facb042b800000000000000000000000000000000000000000000000000000000000000000100000000000000000000000000000000000000000000000000000000000000",
        "nonce": "0x28b",
        "chainId": "0xaa36a7"
      },
      "additionalContracts": [],
      "isFixedGasLimit": false
    },
    {
      "hash": "0x7723e38889cd11718bc0fc08c6899c08c2cb8db6f8385fd52dc0e84de9f18d37",
      "transactionType": "CALL",
      "contractName": "GnosisSafeProxy",
      "contractAddress": "0x28eb5bd20a478e4aacecd831624e77e7e525c55d",
      "function": null,
      "arguments": null,
      "transaction": {
        "from": "0x1310cedd03cc8f6ae50f2fb93848070facb042b8",
        "to": "0x28eb5bd20a478e4aacecd831624e77e7e525c55d",
        "gas": "0x47554",
        "value": "0x0",
        "input": "0x6a7612020000000000000000000000003bc1a0ad72417f2d411118085256fc53cbddd1370000000000000000000000000000000000000000000000000000000000000000000000000000000000000000000000000000000000000000000000000000014000000000000000000000000000000000000000000000000000000000000000000000000000000000000000000000000000000000000000000000000000000000000000000000000000000000000000000000000000000000000000000000000000000000000000000000000000000000000000000000000000000000000000000000000000000000000000000000000000000000000000000000000000000000000000000000000000000000000000000000000000000000000000000000000000000000000000000000000000000000000000000000000000000000000003000000000000000000000000000000000000000000000000000000000000000184b052925e0000031b0000000000000000000000000000000000000000000000000000000000000000000000000000000000000000000000000000000000000000000000e000000000000000000000000000000000000000000000000000000000000000020000000000000000000000000b9721c6e4b71e91256c0826a20ce5816b8251d10000000000000000000000006108c146f671414956b76e1deea2784902bcf667000000000000000000000000000000000000000000000000000000000000000100000000000000000000000000000000000000000000000000000000000001600000000000000000000000000000000000000000000000000000000000000042697066733a2f2f6261666b726569633266356236796b6476616673356e686b6f757275766c716c373363616f753565746764727836377974366f667036707766323400000000000000000000000000000000000000000000000000000000000000000000000000000000000000000000000000000000000000000000000000000000000000000000000000000000000000000000000000000000000000000000000000000000000000000000000000000000000000000000000000410000000000000000000000001310cedd03cc8f6ae50f2fb93848070facb042b800000000000000000000000000000000000000000000000000000000000000000100000000000000000000000000000000000000000000000000000000000000",
        "nonce": "0x28c",
        "chainId": "0xaa36a7"
      },
      "additionalContracts": [],
      "isFixedGasLimit": false
    },
    {
      "hash": "0xe6d1bf2a3ce301378487940b0d8393be3034d0afad1adbdbd8286aea92d3bcd7",
      "transactionType": "CALL",
      "contractName": "GnosisSafeProxy",
      "contractAddress": "0x28eb5bd20a478e4aacecd831624e77e7e525c55d",
      "function": null,
      "arguments": null,
      "transaction": {
        "from": "0x1310cedd03cc8f6ae50f2fb93848070facb042b8",
        "to": "0x28eb5bd20a478e4aacecd831624e77e7e525c55d",
        "gas": "0x47554",
        "value": "0x0",
        "input": "0x6a7612020000000000000000000000003bc1a0ad72417f2d411118085256fc53cbddd1370000000000000000000000000000000000000000000000000000000000000000000000000000000000000000000000000000000000000000000000000000014000000000000000000000000000000000000000000000000000000000000000000000000000000000000000000000000000000000000000000000000000000000000000000000000000000000000000000000000000000000000000000000000000000000000000000000000000000000000000000000000000000000000000000000000000000000000000000000000000000000000000000000000000000000000000000000000000000000000000000000000000000000000000000000000000000000000000000000000000000000000000000000000000000000000003000000000000000000000000000000000000000000000000000000000000000184b052925e0000031b0000000000000000000000000000000000000000000000000000000000000000000000000000000000000000000000000000000000000000000000e000000000000000000000000000000000000000000000000000000000000000020000000000000000000000000b9721c6e4b71e91256c0826a20ce5816b8251d10000000000000000000000006108c146f671414956b76e1deea2784902bcf667000000000000000000000000000000000000000000000000000000000000000100000000000000000000000000000000000000000000000000000000000001600000000000000000000000000000000000000000000000000000000000000042697066733a2f2f6261666b726569653276786f68617737636e656b6e6c777636687137683461736b6b76366a66636164686f3665667a35627866783636667175337100000000000000000000000000000000000000000000000000000000000000000000000000000000000000000000000000000000000000000000000000000000000000000000000000000000000000000000000000000000000000000000000000000000000000000000000000000000000000000000000000410000000000000000000000001310cedd03cc8f6ae50f2fb93848070facb042b800000000000000000000000000000000000000000000000000000000000000000100000000000000000000000000000000000000000000000000000000000000",
        "nonce": "0x28d",
        "chainId": "0xaa36a7"
      },
      "additionalContracts": [],
      "isFixedGasLimit": false
    },
    {
      "hash": "0x4acdfd36e17e90ac359e75f97ae4ccbee4458b12866bbb0828cecfc3d15a1136",
      "transactionType": "CALL",
      "contractName": "GnosisSafeProxy",
      "contractAddress": "0x28eb5bd20a478e4aacecd831624e77e7e525c55d",
      "function": null,
      "arguments": null,
      "transaction": {
        "from": "0x1310cedd03cc8f6ae50f2fb93848070facb042b8",
        "to": "0x28eb5bd20a478e4aacecd831624e77e7e525c55d",
        "gas": "0x47554",
        "value": "0x0",
        "input": "0x6a7612020000000000000000000000003bc1a0ad72417f2d411118085256fc53cbddd1370000000000000000000000000000000000000000000000000000000000000000000000000000000000000000000000000000000000000000000000000000014000000000000000000000000000000000000000000000000000000000000000000000000000000000000000000000000000000000000000000000000000000000000000000000000000000000000000000000000000000000000000000000000000000000000000000000000000000000000000000000000000000000000000000000000000000000000000000000000000000000000000000000000000000000000000000000000000000000000000000000000000000000000000000000000000000000000000000000000000000000000000000000000000000000000003000000000000000000000000000000000000000000000000000000000000000184b052925e0000031b0000000000000000000000000000000000000000000000000000000000000000000000000000000000000000000000000000000000000000000000e000000000000000000000000000000000000000000000000000000000000000020000000000000000000000000b9721c6e4b71e91256c0826a20ce5816b8251d10000000000000000000000006108c146f671414956b76e1deea2784902bcf667000000000000000000000000000000000000000000000000000000000000000100000000000000000000000000000000000000000000000000000000000001600000000000000000000000000000000000000000000000000000000000000042697066733a2f2f6261666b726569637a6662746674657367677a63666e756d6379377266727536363561373775797a6e626162646b3562366674666f3268766a773400000000000000000000000000000000000000000000000000000000000000000000000000000000000000000000000000000000000000000000000000000000000000000000000000000000000000000000000000000000000000000000000000000000000000000000000000000000000000000000000000410000000000000000000000001310cedd03cc8f6ae50f2fb93848070facb042b800000000000000000000000000000000000000000000000000000000000000000100000000000000000000000000000000000000000000000000000000000000",
        "nonce": "0x28e",
        "chainId": "0xaa36a7"
      },
      "additionalContracts": [],
      "isFixedGasLimit": false
    },
    {
      "hash": "0x0fb11f277d739a025bcc14848f37ee8c292b9d853c5ee9a5b9bafb2a2085b022",
      "transactionType": "CREATE",
      "contractName": "HatsSecurityContext",
      "contractAddress": "0x2cf8a12acd03abd1d2aeef1245c1c296216880d4",
      "function": null,
      "arguments": [
        "0x3bc1A0Ad72417f2d411118085256fC53CBdDd137",
        "21433157600384758636760276994180606385541529815919755122477370148126720"
      ],
      "transaction": {
        "from": "0x1310cedd03cc8f6ae50f2fb93848070facb042b8",
        "gas": "0x5caea",
        "value": "0x0",
        "input": "0x60803461010e57601f61049738819003918201601f19168301916001600160401b0383118484101761011257808492604094855283398101031261010e5780516001600160a01b038116919082900361010e57602001519080156100c9575f80546001600160a01b0319169190911781557fa49807205ce4d355092ef5a8a18f56e8913cf4a201fbe287825b095693c21775905260016020527f50efbde2d46c37e9785f1791697f77e94bb7b701e19f1930a668820722d376945560405161037090816101278239f35b60405162461bcd60e51b815260206004820152601b60248201527f4861747320616464726573732063616e6e6f74206265207a65726f00000000006044820152606490fd5b5f80fd5b634e487b7160e01b5f52604160045260245ffdfe60806040526004361015610011575f80fd5b5f3560e01c806391d1485414610203578063b23e0dbe146101d9578063dfbe6d4e1461007b5763f99f023814610045575f80fd5b34610077575f36600319011261007757602073ffffffffffffffffffffffffffffffffffffffff5f5416604051908152f35b5f80fd5b34610077576040366003190112610077575f80547fa49807205ce4d355092ef5a8a18f56e8913cf4a201fbe287825b095693c21775909152600160209081527f50efbde2d46c37e9785f1791697f77e94bb7b701e19f1930a668820722d37694546040516321a9204d60e11b81523360048201526024810191909152918290604490829073ffffffffffffffffffffffffffffffffffffffff165afa9081156101ce575f9161019f575b5015610141576004355f52600160205260243560405f20555f80f35b60646040517f08c379a000000000000000000000000000000000000000000000000000000000815260206004820152601360248201527f43616c6c6572206973206e6f742061646d696e000000000000000000000000006044820152fd5b6101c1915060203d6020116101c7575b6101b9818361024c565b81019061029b565b81610125565b503d6101af565b6040513d5f823e3d90fd5b34610077576020366003190112610077576004355f526001602052602060405f2054604051908152f35b346100775760403660031901126100775760243573ffffffffffffffffffffffffffffffffffffffff81168103610077576102426020916004356102b3565b6040519015158152f35b90601f8019910116810190811067ffffffffffffffff82111761026e57604052565b7f4e487b71000000000000000000000000000000000000000000000000000000005f52604160045260245ffd5b90816020910312610077575180151581036100775790565b5f52600160205260405f2054908115610334575f546040516321a9204d60e11b815273ffffffffffffffffffffffffffffffffffffffff9283166004820152602481019390935260209183916044918391165afa9081156101ce575f91610318575090565b610331915060203d6020116101c7576101b9818361024c565b90565b50505f9056fea26469706673582212200296494086216f3eacc4c4d4a7ab05d6ae9878543b09b400ba2bde22dbacfb1464736f6c634300081b00330000000000000000000000003bc1a0ad72417f2d411118085256fc53cbddd1370000031b00000000000000000000000000000000000000000000000000000000",
        "nonce": "0x28f",
        "chainId": "0xaa36a7"
      },
      "additionalContracts": [],
      "isFixedGasLimit": false
    },
    {
      "hash": "0xccbd12f7c67246acbf7211fb7fe96329da2eb52b066cef9407f460059b3dcd65",
      "transactionType": "CALL",
      "contractName": "GnosisSafeProxy",
      "contractAddress": "0x28eb5bd20a478e4aacecd831624e77e7e525c55d",
      "function": null,
      "arguments": null,
      "transaction": {
        "from": "0x1310cedd03cc8f6ae50f2fb93848070facb042b8",
        "to": "0x28eb5bd20a478e4aacecd831624e77e7e525c55d",
        "gas": "0x1960f",
        "value": "0x0",
        "input": "0x6a7612020000000000000000000000000b9721c6e4b71e91256c0826a20ce5816b8251d10000000000000000000000000000000000000000000000000000000000000000000000000000000000000000000000000000000000000000000000000000014000000000000000000000000000000000000000000000000000000000000000000000000000000000000000000000000000000000000000000000000000000000000000000000000000000000000000000000000000000000000000000000000000000000000000000000000000000000000000000000000000000000000000000000000000000000000000000000000000000000000000000000000000000000000000000000000000000000000000000000000000000000000000000000000000000000000000000000000000000000000000000000000000000000000001e0000000000000000000000000000000000000000000000000000000000000006458675ae80000031b00000000000000000000000000000000000000000000000000000000000000000000000000000000000000000000000000000000000000000000000100000000000000000000000000000000000000000000000000000000000000010000000000000000000000000000000000000000000000000000000000000000000000000000000000000000000000000000000000000000000000410000000000000000000000001310cedd03cc8f6ae50f2fb93848070facb042b800000000000000000000000000000000000000000000000000000000000000000100000000000000000000000000000000000000000000000000000000000000",
        "nonce": "0x290",
        "chainId": "0xaa36a7"
      },
      "additionalContracts": [],
      "isFixedGasLimit": false
    },
    {
      "hash": "0xdaf1a638206bda014c48b2eb3fe7fab96ecc4c19b70cb6a01f3d3a20359e693c",
      "transactionType": "CALL",
      "contractName": "GnosisSafeProxy",
      "contractAddress": "0x28eb5bd20a478e4aacecd831624e77e7e525c55d",
      "function": null,
      "arguments": null,
      "transaction": {
        "from": "0x1310cedd03cc8f6ae50f2fb93848070facb042b8",
        "to": "0x28eb5bd20a478e4aacecd831624e77e7e525c55d",
        "gas": "0x19620",
        "value": "0x0",
        "input": "0x6a7612020000000000000000000000000b9721c6e4b71e91256c0826a20ce5816b8251d10000000000000000000000000000000000000000000000000000000000000000000000000000000000000000000000000000000000000000000000000000014000000000000000000000000000000000000000000000000000000000000000000000000000000000000000000000000000000000000000000000000000000000000000000000000000000000000000000000000000000000000000000000000000000000000000000000000000000000000000000000000000000000000000000000000000000000000000000000000000000000000000000000000000000000000000000000000000000000000000000000000000000000000000000000000000000000000000000000000000000000000000000000000000000000000001e0000000000000000000000000000000000000000000000000000000000000006458675ae80000031b00010000000000000000000000000000000000000000000000000000000000000000000000000000000000000000000000000000000000000000000100000000000000000000000000000000000000000000000000000000000000010000000000000000000000000000000000000000000000000000000000000000000000000000000000000000000000000000000000000000000000410000000000000000000000001310cedd03cc8f6ae50f2fb93848070facb042b800000000000000000000000000000000000000000000000000000000000000000100000000000000000000000000000000000000000000000000000000000000",
        "nonce": "0x291",
        "chainId": "0xaa36a7"
      },
      "additionalContracts": [],
      "isFixedGasLimit": false
    },
    {
      "hash": "0x3ea1b8cffbb1f0b992d946dfa885e7c08d8286347d4ccb927d80fa2df59d70f5",
      "transactionType": "CALL",
      "contractName": "GnosisSafeProxy",
      "contractAddress": "0x28eb5bd20a478e4aacecd831624e77e7e525c55d",
      "function": null,
      "arguments": null,
      "transaction": {
        "from": "0x1310cedd03cc8f6ae50f2fb93848070facb042b8",
        "to": "0x28eb5bd20a478e4aacecd831624e77e7e525c55d",
        "gas": "0x19620",
        "value": "0x0",
        "input": "0x6a7612020000000000000000000000000b9721c6e4b71e91256c0826a20ce5816b8251d10000000000000000000000000000000000000000000000000000000000000000000000000000000000000000000000000000000000000000000000000000014000000000000000000000000000000000000000000000000000000000000000000000000000000000000000000000000000000000000000000000000000000000000000000000000000000000000000000000000000000000000000000000000000000000000000000000000000000000000000000000000000000000000000000000000000000000000000000000000000000000000000000000000000000000000000000000000000000000000000000000000000000000000000000000000000000000000000000000000000000000000000000000000000000000000001e0000000000000000000000000000000000000000000000000000000000000006458675ae80000031b00020000000000000000000000000000000000000000000000000000000000000000000000000000000000000000000000000000000000000000000100000000000000000000000000000000000000000000000000000000000000010000000000000000000000000000000000000000000000000000000000000000000000000000000000000000000000000000000000000000000000410000000000000000000000001310cedd03cc8f6ae50f2fb93848070facb042b800000000000000000000000000000000000000000000000000000000000000000100000000000000000000000000000000000000000000000000000000000000",
        "nonce": "0x292",
        "chainId": "0xaa36a7"
      },
      "additionalContracts": [],
      "isFixedGasLimit": false
    },
    {
      "hash": "0x6ce9abe5234d2d93cc9cad6749930bf2b496d320d0489cd5b0ad0a102d5fa040",
      "transactionType": "CALL",
      "contractName": "GnosisSafeProxy",
      "contractAddress": "0x28eb5bd20a478e4aacecd831624e77e7e525c55d",
      "function": null,
      "arguments": null,
      "transaction": {
        "from": "0x1310cedd03cc8f6ae50f2fb93848070facb042b8",
        "to": "0x28eb5bd20a478e4aacecd831624e77e7e525c55d",
        "gas": "0x19620",
        "value": "0x0",
        "input": "0x6a7612020000000000000000000000000b9721c6e4b71e91256c0826a20ce5816b8251d10000000000000000000000000000000000000000000000000000000000000000000000000000000000000000000000000000000000000000000000000000014000000000000000000000000000000000000000000000000000000000000000000000000000000000000000000000000000000000000000000000000000000000000000000000000000000000000000000000000000000000000000000000000000000000000000000000000000000000000000000000000000000000000000000000000000000000000000000000000000000000000000000000000000000000000000000000000000000000000000000000000000000000000000000000000000000000000000000000000000000000000000000000000000000000000001e0000000000000000000000000000000000000000000000000000000000000006458675ae80000031b00030000000000000000000000000000000000000000000000000000000000000000000000000000000000000000000000000000000000000000000100000000000000000000000000000000000000000000000000000000000000010000000000000000000000000000000000000000000000000000000000000000000000000000000000000000000000000000000000000000000000410000000000000000000000001310cedd03cc8f6ae50f2fb93848070facb042b800000000000000000000000000000000000000000000000000000000000000000100000000000000000000000000000000000000000000000000000000000000",
        "nonce": "0x293",
        "chainId": "0xaa36a7"
      },
      "additionalContracts": [],
      "isFixedGasLimit": false
    },
    {
      "hash": "0xf3a055786ef7f5a86d9fdef310b21652ccc6517310e332def1cfbc3453dcef66",
      "transactionType": "CALL",
      "contractName": "GnosisSafeProxy",
      "contractAddress": "0x28eb5bd20a478e4aacecd831624e77e7e525c55d",
      "function": null,
      "arguments": null,
      "transaction": {
        "from": "0x1310cedd03cc8f6ae50f2fb93848070facb042b8",
        "to": "0x28eb5bd20a478e4aacecd831624e77e7e525c55d",
        "gas": "0x19620",
        "value": "0x0",
        "input": "0x6a7612020000000000000000000000000b9721c6e4b71e91256c0826a20ce5816b8251d10000000000000000000000000000000000000000000000000000000000000000000000000000000000000000000000000000000000000000000000000000014000000000000000000000000000000000000000000000000000000000000000000000000000000000000000000000000000000000000000000000000000000000000000000000000000000000000000000000000000000000000000000000000000000000000000000000000000000000000000000000000000000000000000000000000000000000000000000000000000000000000000000000000000000000000000000000000000000000000000000000000000000000000000000000000000000000000000000000000000000000000000000000000000000000000001e0000000000000000000000000000000000000000000000000000000000000006458675ae80000031b00040000000000000000000000000000000000000000000000000000000000000000000000000000000000000000000000000000000000000000000100000000000000000000000000000000000000000000000000000000000000010000000000000000000000000000000000000000000000000000000000000000000000000000000000000000000000000000000000000000000000410000000000000000000000001310cedd03cc8f6ae50f2fb93848070facb042b800000000000000000000000000000000000000000000000000000000000000000100000000000000000000000000000000000000000000000000000000000000",
        "nonce": "0x294",
        "chainId": "0xaa36a7"
      },
      "additionalContracts": [],
      "isFixedGasLimit": false
    },
    {
      "hash": "0x158436dcd3d1fa0a9b6b4ad859eae983d97800ba55a6a7b90a3db55f48f10bd0",
      "transactionType": "CALL",
      "contractName": "GnosisSafeProxy",
      "contractAddress": "0x28eb5bd20a478e4aacecd831624e77e7e525c55d",
      "function": null,
      "arguments": null,
      "transaction": {
        "from": "0x1310cedd03cc8f6ae50f2fb93848070facb042b8",
        "to": "0x28eb5bd20a478e4aacecd831624e77e7e525c55d",
        "gas": "0x1927e",
        "value": "0x0",
        "input": "0x6a7612020000000000000000000000006108c146f671414956b76e1deea2784902bcf6670000000000000000000000000000000000000000000000000000000000000000000000000000000000000000000000000000000000000000000000000000014000000000000000000000000000000000000000000000000000000000000000000000000000000000000000000000000000000000000000000000000000000000000000000000000000000000000000000000000000000000000000000000000000000000000000000000000000000000000000000000000000000000000000000000000000000000000000000000000000000000000000000000000000000000000000000000000000000000000000000000000000000000000000000000000000000000000000000000000000000000000000000000000000000000000001c00000000000000000000000000000000000000000000000000000000000000044c43dc1770000031b0000000000000000000000000000000000000000000000000000000000000000000000000000000000000000000000000000000000000000000000010000000000000000000000000000000000000000000000000000000000000000000000000000000000000000000000000000000000000000000000410000000000000000000000001310cedd03cc8f6ae50f2fb93848070facb042b800000000000000000000000000000000000000000000000000000000000000000100000000000000000000000000000000000000000000000000000000000000",
        "nonce": "0x295",
        "chainId": "0xaa36a7"
      },
      "additionalContracts": [],
      "isFixedGasLimit": false
    },
    {
      "hash": "0x36a13f0e6d77c0c4a2b6f27d490fc55a374e81902c5c90c7107eae5870a1bd54",
      "transactionType": "CALL",
      "contractName": "GnosisSafeProxy",
      "contractAddress": "0x28eb5bd20a478e4aacecd831624e77e7e525c55d",
      "function": null,
      "arguments": null,
      "transaction": {
        "from": "0x1310cedd03cc8f6ae50f2fb93848070facb042b8",
        "to": "0x28eb5bd20a478e4aacecd831624e77e7e525c55d",
        "gas": "0x1aa3c",
        "value": "0x0",
        "input": "0x6a7612020000000000000000000000006108c146f671414956b76e1deea2784902bcf6670000000000000000000000000000000000000000000000000000000000000000000000000000000000000000000000000000000000000000000000000000014000000000000000000000000000000000000000000000000000000000000000000000000000000000000000000000000000000000000000000000000000000000000000000000000000000000000000000000000000000000000000000000000000000000000000000000000000000000000000000000000000000000000000000000000000000000000000000000000000000000000000000000000000000000000000000000000000000000000000000000000000000000000000000000000000000000000000000000000000000000000000000000000000000000000001c00000000000000000000000000000000000000000000000000000000000000044c43dc1770000031b0001000000000000000000000000000000000000000000000000000000000000000000000000000000000000000000000000000000000000000000010000000000000000000000000000000000000000000000000000000000000000000000000000000000000000000000000000000000000000000000410000000000000000000000001310cedd03cc8f6ae50f2fb93848070facb042b800000000000000000000000000000000000000000000000000000000000000000100000000000000000000000000000000000000000000000000000000000000",
        "nonce": "0x296",
        "chainId": "0xaa36a7"
      },
      "additionalContracts": [],
      "isFixedGasLimit": false
    },
    {
      "hash": "0x38ab6b6b1e927949d46fdd5c525593dbb78fec532e85b262aa2b252055f96227",
      "transactionType": "CALL",
      "contractName": "GnosisSafeProxy",
      "contractAddress": "0x28eb5bd20a478e4aacecd831624e77e7e525c55d",
      "function": null,
      "arguments": null,
      "transaction": {
        "from": "0x1310cedd03cc8f6ae50f2fb93848070facb042b8",
        "to": "0x28eb5bd20a478e4aacecd831624e77e7e525c55d",
        "gas": "0x1aa3c",
        "value": "0x0",
        "input": "0x6a7612020000000000000000000000006108c146f671414956b76e1deea2784902bcf6670000000000000000000000000000000000000000000000000000000000000000000000000000000000000000000000000000000000000000000000000000014000000000000000000000000000000000000000000000000000000000000000000000000000000000000000000000000000000000000000000000000000000000000000000000000000000000000000000000000000000000000000000000000000000000000000000000000000000000000000000000000000000000000000000000000000000000000000000000000000000000000000000000000000000000000000000000000000000000000000000000000000000000000000000000000000000000000000000000000000000000000000000000000000000000000001c00000000000000000000000000000000000000000000000000000000000000044c43dc1770000031b0002000000000000000000000000000000000000000000000000000000000000000000000000000000000000000000000000000000000000000000010000000000000000000000000000000000000000000000000000000000000000000000000000000000000000000000000000000000000000000000410000000000000000000000001310cedd03cc8f6ae50f2fb93848070facb042b800000000000000000000000000000000000000000000000000000000000000000100000000000000000000000000000000000000000000000000000000000000",
        "nonce": "0x297",
        "chainId": "0xaa36a7"
      },
      "additionalContracts": [],
      "isFixedGasLimit": false
    },
    {
      "hash": "0xe91c31da507b674c1338ced257e31fdaf979f88094aa77addf17f0fc3c813b8a",
      "transactionType": "CALL",
      "contractName": "GnosisSafeProxy",
      "contractAddress": "0x28eb5bd20a478e4aacecd831624e77e7e525c55d",
      "function": null,
      "arguments": null,
      "transaction": {
        "from": "0x1310cedd03cc8f6ae50f2fb93848070facb042b8",
        "to": "0x28eb5bd20a478e4aacecd831624e77e7e525c55d",
        "gas": "0x1aa3c",
        "value": "0x0",
        "input": "0x6a7612020000000000000000000000006108c146f671414956b76e1deea2784902bcf6670000000000000000000000000000000000000000000000000000000000000000000000000000000000000000000000000000000000000000000000000000014000000000000000000000000000000000000000000000000000000000000000000000000000000000000000000000000000000000000000000000000000000000000000000000000000000000000000000000000000000000000000000000000000000000000000000000000000000000000000000000000000000000000000000000000000000000000000000000000000000000000000000000000000000000000000000000000000000000000000000000000000000000000000000000000000000000000000000000000000000000000000000000000000000000000001c00000000000000000000000000000000000000000000000000000000000000044c43dc1770000031b0003000000000000000000000000000000000000000000000000000000000000000000000000000000000000000000000000000000000000000000010000000000000000000000000000000000000000000000000000000000000000000000000000000000000000000000000000000000000000000000410000000000000000000000001310cedd03cc8f6ae50f2fb93848070facb042b800000000000000000000000000000000000000000000000000000000000000000100000000000000000000000000000000000000000000000000000000000000",
        "nonce": "0x298",
        "chainId": "0xaa36a7"
      },
      "additionalContracts": [],
      "isFixedGasLimit": false
    },
    {
      "hash": "0x43138098d4f46525d1ab7d4967bbcab0a868518adee6746e376faed014c431c6",
      "transactionType": "CALL",
      "contractName": "GnosisSafeProxy",
      "contractAddress": "0x28eb5bd20a478e4aacecd831624e77e7e525c55d",
      "function": null,
      "arguments": null,
      "transaction": {
        "from": "0x1310cedd03cc8f6ae50f2fb93848070facb042b8",
        "to": "0x28eb5bd20a478e4aacecd831624e77e7e525c55d",
        "gas": "0x1aa3c",
        "value": "0x0",
        "input": "0x6a7612020000000000000000000000006108c146f671414956b76e1deea2784902bcf6670000000000000000000000000000000000000000000000000000000000000000000000000000000000000000000000000000000000000000000000000000014000000000000000000000000000000000000000000000000000000000000000000000000000000000000000000000000000000000000000000000000000000000000000000000000000000000000000000000000000000000000000000000000000000000000000000000000000000000000000000000000000000000000000000000000000000000000000000000000000000000000000000000000000000000000000000000000000000000000000000000000000000000000000000000000000000000000000000000000000000000000000000000000000000000000001c00000000000000000000000000000000000000000000000000000000000000044c43dc1770000031b0004000000000000000000000000000000000000000000000000000000000000000000000000000000000000000000000000000000000000000000010000000000000000000000000000000000000000000000000000000000000000000000000000000000000000000000000000000000000000000000410000000000000000000000001310cedd03cc8f6ae50f2fb93848070facb042b800000000000000000000000000000000000000000000000000000000000000000100000000000000000000000000000000000000000000000000000000000000",
        "nonce": "0x299",
        "chainId": "0xaa36a7"
      },
      "additionalContracts": [],
      "isFixedGasLimit": false
    },
    {
      "hash": "0x721fc101181759affa4216049a94eec2c56052571144f1772eb62731a88cd789",
      "transactionType": "CALL",
      "contractName": "GnosisSafeProxy",
      "contractAddress": "0x28eb5bd20a478e4aacecd831624e77e7e525c55d",
      "function": null,
      "arguments": null,
      "transaction": {
        "from": "0x1310cedd03cc8f6ae50f2fb93848070facb042b8",
        "to": "0x28eb5bd20a478e4aacecd831624e77e7e525c55d",
        "gas": "0x247a6",
        "value": "0x0",
        "input": "0x6a7612020000000000000000000000003bc1a0ad72417f2d411118085256fc53cbddd1370000000000000000000000000000000000000000000000000000000000000000000000000000000000000000000000000000000000000000000000000000014000000000000000000000000000000000000000000000000000000000000000000000000000000000000000000000000000000000000000000000000000000000000000000000000000000000000000000000000000000000000000000000000000000000000000000000000000000000000000000000000000000000000000000000000000000000000000000000000000000000000000000000000000000000000000000000000000000000000000000000000000000000000000000000000000000000000000000000000000000000000000000000000000000000000001c00000000000000000000000000000000000000000000000000000000000000044641f776e0000031b000100000000000000000000000000000000000000000000000000000000000000000000000000001310cedd03cc8f6ae50f2fb93848070facb042b80000000000000000000000000000000000000000000000000000000000000000000000000000000000000000000000000000000000000000000000410000000000000000000000001310cedd03cc8f6ae50f2fb93848070facb042b800000000000000000000000000000000000000000000000000000000000000000100000000000000000000000000000000000000000000000000000000000000",
        "nonce": "0x29a",
        "chainId": "0xaa36a7"
      },
      "additionalContracts": [],
      "isFixedGasLimit": false
    },
    {
      "hash": "0x53d32e69d1cd009f2a11ae90be226e4b741552fc08b9dfe1329c511869c642e3",
      "transactionType": "CALL",
      "contractName": "GnosisSafeProxy",
      "contractAddress": "0x28eb5bd20a478e4aacecd831624e77e7e525c55d",
      "function": null,
      "arguments": null,
      "transaction": {
        "from": "0x1310cedd03cc8f6ae50f2fb93848070facb042b8",
        "to": "0x28eb5bd20a478e4aacecd831624e77e7e525c55d",
        "gas": "0x247a6",
        "value": "0x0",
        "input": "0x6a7612020000000000000000000000003bc1a0ad72417f2d411118085256fc53cbddd1370000000000000000000000000000000000000000000000000000000000000000000000000000000000000000000000000000000000000000000000000000014000000000000000000000000000000000000000000000000000000000000000000000000000000000000000000000000000000000000000000000000000000000000000000000000000000000000000000000000000000000000000000000000000000000000000000000000000000000000000000000000000000000000000000000000000000000000000000000000000000000000000000000000000000000000000000000000000000000000000000000000000000000000000000000000000000000000000000000000000000000000000000000000000000000000001c00000000000000000000000000000000000000000000000000000000000000044641f776e0000031b000100000000000000000000000000000000000000000000000000000000000000000000000000001542612fee591ed35c05a3e980bab325265c06a30000000000000000000000000000000000000000000000000000000000000000000000000000000000000000000000000000000000000000000000410000000000000000000000001310cedd03cc8f6ae50f2fb93848070facb042b800000000000000000000000000000000000000000000000000000000000000000100000000000000000000000000000000000000000000000000000000000000",
        "nonce": "0x29b",
        "chainId": "0xaa36a7"
      },
      "additionalContracts": [],
      "isFixedGasLimit": false
    },
    {
      "hash": "0x4a57e176741861b8fc0b52c000471947e6f52d53278d7a1e469ffd9f50f2c1a2",
      "transactionType": "CALL",
      "contractName": "GnosisSafeProxy",
      "contractAddress": "0x28eb5bd20a478e4aacecd831624e77e7e525c55d",
      "function": null,
      "arguments": null,
      "transaction": {
        "from": "0x1310cedd03cc8f6ae50f2fb93848070facb042b8",
        "to": "0x28eb5bd20a478e4aacecd831624e77e7e525c55d",
        "gas": "0x247a6",
        "value": "0x0",
        "input": "0x6a7612020000000000000000000000003bc1a0ad72417f2d411118085256fc53cbddd1370000000000000000000000000000000000000000000000000000000000000000000000000000000000000000000000000000000000000000000000000000014000000000000000000000000000000000000000000000000000000000000000000000000000000000000000000000000000000000000000000000000000000000000000000000000000000000000000000000000000000000000000000000000000000000000000000000000000000000000000000000000000000000000000000000000000000000000000000000000000000000000000000000000000000000000000000000000000000000000000000000000000000000000000000000000000000000000000000000000000000000000000000000000000000000000001c00000000000000000000000000000000000000000000000000000000000000044641f776e0000031b000200000000000000000000000000000000000000000000000000000000000000000000000000001310cedd03cc8f6ae50f2fb93848070facb042b80000000000000000000000000000000000000000000000000000000000000000000000000000000000000000000000000000000000000000000000410000000000000000000000001310cedd03cc8f6ae50f2fb93848070facb042b800000000000000000000000000000000000000000000000000000000000000000100000000000000000000000000000000000000000000000000000000000000",
        "nonce": "0x29c",
        "chainId": "0xaa36a7"
      },
      "additionalContracts": [],
      "isFixedGasLimit": false
    },
    {
      "hash": "0xcb68a4e9543aa4d5c4c354563edafdfa78231d398c4334037a0a9b7723fb79ed",
      "transactionType": "CALL",
      "contractName": "GnosisSafeProxy",
      "contractAddress": "0x28eb5bd20a478e4aacecd831624e77e7e525c55d",
      "function": null,
      "arguments": null,
      "transaction": {
        "from": "0x1310cedd03cc8f6ae50f2fb93848070facb042b8",
        "to": "0x28eb5bd20a478e4aacecd831624e77e7e525c55d",
        "gas": "0x247a6",
        "value": "0x0",
        "input": "0x6a7612020000000000000000000000003bc1a0ad72417f2d411118085256fc53cbddd1370000000000000000000000000000000000000000000000000000000000000000000000000000000000000000000000000000000000000000000000000000014000000000000000000000000000000000000000000000000000000000000000000000000000000000000000000000000000000000000000000000000000000000000000000000000000000000000000000000000000000000000000000000000000000000000000000000000000000000000000000000000000000000000000000000000000000000000000000000000000000000000000000000000000000000000000000000000000000000000000000000000000000000000000000000000000000000000000000000000000000000000000000000000000000000000001c00000000000000000000000000000000000000000000000000000000000000044641f776e0000031b000200000000000000000000000000000000000000000000000000000000000000000000000000001542612fee591ed35c05a3e980bab325265c06a30000000000000000000000000000000000000000000000000000000000000000000000000000000000000000000000000000000000000000000000410000000000000000000000001310cedd03cc8f6ae50f2fb93848070facb042b800000000000000000000000000000000000000000000000000000000000000000100000000000000000000000000000000000000000000000000000000000000",
        "nonce": "0x29d",
        "chainId": "0xaa36a7"
      },
      "additionalContracts": [],
      "isFixedGasLimit": false
    },
    {
      "hash": "0x66f52f2566fb6169c3e7d5ba6141ec14a781c91655beaf736664a273e3b0264e",
      "transactionType": "CALL",
      "contractName": "GnosisSafeProxy",
      "contractAddress": "0x28eb5bd20a478e4aacecd831624e77e7e525c55d",
      "function": null,
      "arguments": null,
      "transaction": {
        "from": "0x1310cedd03cc8f6ae50f2fb93848070facb042b8",
        "to": "0x28eb5bd20a478e4aacecd831624e77e7e525c55d",
        "gas": "0x247a6",
        "value": "0x0",
        "input": "0x6a7612020000000000000000000000003bc1a0ad72417f2d411118085256fc53cbddd1370000000000000000000000000000000000000000000000000000000000000000000000000000000000000000000000000000000000000000000000000000014000000000000000000000000000000000000000000000000000000000000000000000000000000000000000000000000000000000000000000000000000000000000000000000000000000000000000000000000000000000000000000000000000000000000000000000000000000000000000000000000000000000000000000000000000000000000000000000000000000000000000000000000000000000000000000000000000000000000000000000000000000000000000000000000000000000000000000000000000000000000000000000000000000000000001c00000000000000000000000000000000000000000000000000000000000000044641f776e0000031b000300000000000000000000000000000000000000000000000000000000000000000000000000001310cedd03cc8f6ae50f2fb93848070facb042b80000000000000000000000000000000000000000000000000000000000000000000000000000000000000000000000000000000000000000000000410000000000000000000000001310cedd03cc8f6ae50f2fb93848070facb042b800000000000000000000000000000000000000000000000000000000000000000100000000000000000000000000000000000000000000000000000000000000",
        "nonce": "0x29e",
        "chainId": "0xaa36a7"
      },
      "additionalContracts": [],
      "isFixedGasLimit": false
    },
    {
      "hash": "0xc9f9ef2fe0b98d108a98417576d9c32cefd454afff56479507f4d4270791e939",
      "transactionType": "CALL",
      "contractName": "GnosisSafeProxy",
      "contractAddress": "0x28eb5bd20a478e4aacecd831624e77e7e525c55d",
      "function": null,
      "arguments": null,
      "transaction": {
        "from": "0x1310cedd03cc8f6ae50f2fb93848070facb042b8",
        "to": "0x28eb5bd20a478e4aacecd831624e77e7e525c55d",
        "gas": "0x247a6",
        "value": "0x0",
        "input": "0x6a7612020000000000000000000000003bc1a0ad72417f2d411118085256fc53cbddd1370000000000000000000000000000000000000000000000000000000000000000000000000000000000000000000000000000000000000000000000000000014000000000000000000000000000000000000000000000000000000000000000000000000000000000000000000000000000000000000000000000000000000000000000000000000000000000000000000000000000000000000000000000000000000000000000000000000000000000000000000000000000000000000000000000000000000000000000000000000000000000000000000000000000000000000000000000000000000000000000000000000000000000000000000000000000000000000000000000000000000000000000000000000000000000000001c00000000000000000000000000000000000000000000000000000000000000044641f776e0000031b000300000000000000000000000000000000000000000000000000000000000000000000000000001542612fee591ed35c05a3e980bab325265c06a30000000000000000000000000000000000000000000000000000000000000000000000000000000000000000000000000000000000000000000000410000000000000000000000001310cedd03cc8f6ae50f2fb93848070facb042b800000000000000000000000000000000000000000000000000000000000000000100000000000000000000000000000000000000000000000000000000000000",
        "nonce": "0x29f",
        "chainId": "0xaa36a7"
      },
      "additionalContracts": [],
      "isFixedGasLimit": false
    },
    {
      "hash": "0xe5700d8c26cc0b5c8660652ffada6f687e41c23d660f65540c532b5d80575caf",
      "transactionType": "CALL",
      "contractName": "GnosisSafeProxy",
      "contractAddress": "0x28eb5bd20a478e4aacecd831624e77e7e525c55d",
      "function": null,
      "arguments": null,
      "transaction": {
        "from": "0x1310cedd03cc8f6ae50f2fb93848070facb042b8",
        "to": "0x28eb5bd20a478e4aacecd831624e77e7e525c55d",
        "gas": "0x247a6",
        "value": "0x0",
        "input": "0x6a7612020000000000000000000000003bc1a0ad72417f2d411118085256fc53cbddd1370000000000000000000000000000000000000000000000000000000000000000000000000000000000000000000000000000000000000000000000000000014000000000000000000000000000000000000000000000000000000000000000000000000000000000000000000000000000000000000000000000000000000000000000000000000000000000000000000000000000000000000000000000000000000000000000000000000000000000000000000000000000000000000000000000000000000000000000000000000000000000000000000000000000000000000000000000000000000000000000000000000000000000000000000000000000000000000000000000000000000000000000000000000000000000000001c00000000000000000000000000000000000000000000000000000000000000044641f776e0000031b000400000000000000000000000000000000000000000000000000000000000000000000000000001310cedd03cc8f6ae50f2fb93848070facb042b80000000000000000000000000000000000000000000000000000000000000000000000000000000000000000000000000000000000000000000000410000000000000000000000001310cedd03cc8f6ae50f2fb93848070facb042b800000000000000000000000000000000000000000000000000000000000000000100000000000000000000000000000000000000000000000000000000000000",
        "nonce": "0x2a0",
        "chainId": "0xaa36a7"
      },
      "additionalContracts": [],
      "isFixedGasLimit": false
    },
    {
      "hash": "0x2cc72a1937f7fc8a96d94879efb461bcbac7f747d6d376b7a8216afc1258e51e",
      "transactionType": "CALL",
      "contractName": "GnosisSafeProxy",
      "contractAddress": "0x28eb5bd20a478e4aacecd831624e77e7e525c55d",
      "function": null,
      "arguments": null,
      "transaction": {
        "from": "0x1310cedd03cc8f6ae50f2fb93848070facb042b8",
        "to": "0x28eb5bd20a478e4aacecd831624e77e7e525c55d",
        "gas": "0x247a6",
        "value": "0x0",
        "input": "0x6a7612020000000000000000000000003bc1a0ad72417f2d411118085256fc53cbddd1370000000000000000000000000000000000000000000000000000000000000000000000000000000000000000000000000000000000000000000000000000014000000000000000000000000000000000000000000000000000000000000000000000000000000000000000000000000000000000000000000000000000000000000000000000000000000000000000000000000000000000000000000000000000000000000000000000000000000000000000000000000000000000000000000000000000000000000000000000000000000000000000000000000000000000000000000000000000000000000000000000000000000000000000000000000000000000000000000000000000000000000000000000000000000000000001c00000000000000000000000000000000000000000000000000000000000000044641f776e0000031b000400000000000000000000000000000000000000000000000000000000000000000000000000001542612fee591ed35c05a3e980bab325265c06a30000000000000000000000000000000000000000000000000000000000000000000000000000000000000000000000000000000000000000000000410000000000000000000000001310cedd03cc8f6ae50f2fb93848070facb042b800000000000000000000000000000000000000000000000000000000000000000100000000000000000000000000000000000000000000000000000000000000",
        "nonce": "0x2a1",
        "chainId": "0xaa36a7"
      },
      "additionalContracts": [],
      "isFixedGasLimit": false
    },
    {
      "hash": "0xcac574ab27f5940947b1e07a8e1195e93d27bd95d06c1c4ed4c5e3d62f5b9e4b",
      "transactionType": "CALL",
      "contractName": "GnosisSafeProxy",
      "contractAddress": "0x28eb5bd20a478e4aacecd831624e77e7e525c55d",
      "function": null,
      "arguments": null,
      "transaction": {
        "from": "0x1310cedd03cc8f6ae50f2fb93848070facb042b8",
        "to": "0x28eb5bd20a478e4aacecd831624e77e7e525c55d",
        "gas": "0x20ea4",
        "value": "0x0",
        "input": "0x6a7612020000000000000000000000002cf8a12acd03abd1d2aeef1245c1c296216880d40000000000000000000000000000000000000000000000000000000000000000000000000000000000000000000000000000000000000000000000000000014000000000000000000000000000000000000000000000000000000000000000000000000000000000000000000000000000000000000000000000000000000000000000000000000000000000000000000000000000000000000000000000000000000000000000000000000000000000000000000000000000000000000000000000000000000000000000000000000000000000000000000000000000000000000000000000000000000000000000000000000000000000000000000000000000000000000000000000000000000000000000000000000000000000000001c00000000000000000000000000000000000000000000000000000000000000044dfbe6d4ebb08418a67729a078f87bbc8d02a770929bb68f5bfdf134ae2ead6ed38e2f4ae0000031b000100000000000000000000000000000000000000000000000000000000000000000000000000000000000000000000000000000000000000000000000000000000000000000000000000000000000000000000000000410000000000000000000000001310cedd03cc8f6ae50f2fb93848070facb042b800000000000000000000000000000000000000000000000000000000000000000100000000000000000000000000000000000000000000000000000000000000",
        "nonce": "0x2a2",
        "chainId": "0xaa36a7"
      },
      "additionalContracts": [],
      "isFixedGasLimit": false
    },
    {
      "hash": "0xc05a37cdb0d2129c22531e33e7f49c60d5251d3f3d32340497e4092d42ea4f5b",
      "transactionType": "CALL",
      "contractName": "GnosisSafeProxy",
      "contractAddress": "0x28eb5bd20a478e4aacecd831624e77e7e525c55d",
      "function": null,
      "arguments": null,
      "transaction": {
        "from": "0x1310cedd03cc8f6ae50f2fb93848070facb042b8",
        "to": "0x28eb5bd20a478e4aacecd831624e77e7e525c55d",
        "gas": "0x20ea4",
        "value": "0x0",
        "input": "0x6a7612020000000000000000000000002cf8a12acd03abd1d2aeef1245c1c296216880d40000000000000000000000000000000000000000000000000000000000000000000000000000000000000000000000000000000000000000000000000000014000000000000000000000000000000000000000000000000000000000000000000000000000000000000000000000000000000000000000000000000000000000000000000000000000000000000000000000000000000000000000000000000000000000000000000000000000000000000000000000000000000000000000000000000000000000000000000000000000000000000000000000000000000000000000000000000000000000000000000000000000000000000000000000000000000000000000000000000000000000000000000000000000000000000001c00000000000000000000000000000000000000000000000000000000000000044dfbe6d4e3b5d4cc60d3ec3516ee8ae083bd60934f6eb2a6c54b1229985c41bfb092b26030000031b000200000000000000000000000000000000000000000000000000000000000000000000000000000000000000000000000000000000000000000000000000000000000000000000000000000000000000000000000000410000000000000000000000001310cedd03cc8f6ae50f2fb93848070facb042b800000000000000000000000000000000000000000000000000000000000000000100000000000000000000000000000000000000000000000000000000000000",
        "nonce": "0x2a3",
        "chainId": "0xaa36a7"
      },
      "additionalContracts": [],
      "isFixedGasLimit": false
    },
    {
      "hash": "0x9f6b0fe08645954ae16500809dd76f84a4dd42c80d6fce01175062b06224c017",
      "transactionType": "CALL",
      "contractName": "GnosisSafeProxy",
      "contractAddress": "0x28eb5bd20a478e4aacecd831624e77e7e525c55d",
      "function": null,
      "arguments": null,
      "transaction": {
        "from": "0x1310cedd03cc8f6ae50f2fb93848070facb042b8",
        "to": "0x28eb5bd20a478e4aacecd831624e77e7e525c55d",
        "gas": "0x20ea4",
        "value": "0x0",
        "input": "0x6a7612020000000000000000000000002cf8a12acd03abd1d2aeef1245c1c296216880d40000000000000000000000000000000000000000000000000000000000000000000000000000000000000000000000000000000000000000000000000000014000000000000000000000000000000000000000000000000000000000000000000000000000000000000000000000000000000000000000000000000000000000000000000000000000000000000000000000000000000000000000000000000000000000000000000000000000000000000000000000000000000000000000000000000000000000000000000000000000000000000000000000000000000000000000000000000000000000000000000000000000000000000000000000000000000000000000000000000000000000000000000000000000000000000001c00000000000000000000000000000000000000000000000000000000000000044dfbe6d4e5719df9ef2c4678b547f89e4f5ae410dbf400fc51cf3ded434c55f6adea2c43f0000031b000300000000000000000000000000000000000000000000000000000000000000000000000000000000000000000000000000000000000000000000000000000000000000000000000000000000000000000000000000410000000000000000000000001310cedd03cc8f6ae50f2fb93848070facb042b800000000000000000000000000000000000000000000000000000000000000000100000000000000000000000000000000000000000000000000000000000000",
        "nonce": "0x2a4",
        "chainId": "0xaa36a7"
      },
      "additionalContracts": [],
      "isFixedGasLimit": false
    },
    {
      "hash": "0xcffaf8a9fb5ef0863b700a09ba90ed01828368d7af2e5a8c6acd59f13fde57db",
      "transactionType": "CALL",
      "contractName": "GnosisSafeProxy",
      "contractAddress": "0x28eb5bd20a478e4aacecd831624e77e7e525c55d",
      "function": null,
      "arguments": null,
      "transaction": {
        "from": "0x1310cedd03cc8f6ae50f2fb93848070facb042b8",
        "to": "0x28eb5bd20a478e4aacecd831624e77e7e525c55d",
        "gas": "0x20ea4",
        "value": "0x0",
        "input": "0x6a7612020000000000000000000000002cf8a12acd03abd1d2aeef1245c1c296216880d40000000000000000000000000000000000000000000000000000000000000000000000000000000000000000000000000000000000000000000000000000014000000000000000000000000000000000000000000000000000000000000000000000000000000000000000000000000000000000000000000000000000000000000000000000000000000000000000000000000000000000000000000000000000000000000000000000000000000000000000000000000000000000000000000000000000000000000000000000000000000000000000000000000000000000000000000000000000000000000000000000000000000000000000000000000000000000000000000000000000000000000000000000000000000000000001c00000000000000000000000000000000000000000000000000000000000000044dfbe6d4e65d7a28e3265b37a6474929f336521b332c1681b933f6cb9f3376673440d862a0000031b000400000000000000000000000000000000000000000000000000000000000000000000000000000000000000000000000000000000000000000000000000000000000000000000000000000000000000000000000000410000000000000000000000001310cedd03cc8f6ae50f2fb93848070facb042b800000000000000000000000000000000000000000000000000000000000000000100000000000000000000000000000000000000000000000000000000000000",
        "nonce": "0x2a5",
        "chainId": "0xaa36a7"
      },
      "additionalContracts": [],
      "isFixedGasLimit": false
    }
  ],
  "receipts": [
    {
      "status": "0x1",
      "cumulativeGasUsed": "0xc9c2a3",
      "logs": [
        {
          "address": "0x28eb5bd20a478e4aacecd831624e77e7e525c55d",
          "topics": [
            "0x141df868a6331af528e38c83b7aa03edc19be66e37ae67f9285bf4f8e3c6a1a8",
            "0x000000000000000000000000c22834581ebc8527d974f8a1c97e1bea4ef910bc"
          ],
          "data": "0x000000000000000000000000000000000000000000000000000000000000008000000000000000000000000000000000000000000000000000000000000000010000000000000000000000000000000000000000000000000000000000000000000000000000000000000000000000000000000000000000000000000000000000000000000000000000000000000000000000000000000000000000000000020000000000000000000000001310cedd03cc8f6ae50f2fb93848070facb042b80000000000000000000000001542612fee591ed35c05a3e980bab325265c06a3",
          "blockHash": "0xa4f6d76f51124ba73462a4a9782e758089b67c19ab20ce0d29c14413fc8b72af",
          "blockNumber": "0x72fb61",
          "transactionHash": "0xf07bb774b0839c61676eccc0a825198a8eb43bf28b468171513e701dc4e77e22",
          "transactionIndex": "0x87",
          "logIndex": "0xdf",
          "removed": false
        },
        {
          "address": "0xc22834581ebc8527d974f8a1c97e1bea4ef910bc",
          "topics": [
            "0x4f51faf6c4561ff95f067657e43439f0f856d97c04d9ec9070a6199ad418e235"
          ],
          "data": "0x00000000000000000000000028eb5bd20a478e4aacecd831624e77e7e525c55d00000000000000000000000069f4d1788e39c87893c980c06edf4b7f686e2938",
          "blockHash": "0xa4f6d76f51124ba73462a4a9782e758089b67c19ab20ce0d29c14413fc8b72af",
          "blockNumber": "0x72fb61",
          "transactionHash": "0xf07bb774b0839c61676eccc0a825198a8eb43bf28b468171513e701dc4e77e22",
          "transactionIndex": "0x87",
          "logIndex": "0xe0",
          "removed": false
        }
      ],
      "logsBloom": "0x00080000000000000000000000000000000000000000000000000000000000000000000000000040000000000000000000000000000000000000000000000000000010000000000000000000000000000010000000000008000000000000000000000200000000000500000000000000000000000000000000000000000000000000000000000000000000000000000000000000000000000000000000000000000000000000000000000040000000000000000000000000000000000000000000000000000002000000000000000000000000000000000000000000000000000000080000000000000000000000000020000000000008000100000000000001",
      "type": "0x2",
      "transactionHash": "0xf07bb774b0839c61676eccc0a825198a8eb43bf28b468171513e701dc4e77e22",
      "transactionIndex": "0x87",
      "blockHash": "0xa4f6d76f51124ba73462a4a9782e758089b67c19ab20ce0d29c14413fc8b72af",
      "blockNumber": "0x72fb61",
      "gasUsed": "0x3ed7d",
      "effectiveGasPrice": "0x3358c762",
      "from": "0x1310cedd03cc8f6ae50f2fb93848070facb042b8",
      "to": "0xc22834581ebc8527d974f8a1c97e1bea4ef910bc",
      "contractAddress": null
    },
    {
      "status": "0x1",
      "cumulativeGasUsed": "0xce1b53",
      "logs": [],
      "logsBloom": "0x00000000000000000000000000000000000000000000000000000000000000000000000000000000000000000000000000000000000000000000000000000000000000000000000000000000000000000000000000000000000000000000000000000000000000000000000000000000000000000000000000000000000000000000000000000000000000000000000000000000000000000000000000000000000000000000000000000000000000000000000000000000000000000000000000000000000000000000000000000000000000000000000000000000000000000000000000000000000000000000000000000000000000000000000000000000",
      "type": "0x2",
      "transactionHash": "0xd33524365ebc00ee2a86c39523272ccdb7749896c78edcc3e7635bcb08143e83",
      "transactionIndex": "0x88",
      "blockHash": "0xa4f6d76f51124ba73462a4a9782e758089b67c19ab20ce0d29c14413fc8b72af",
      "blockNumber": "0x72fb61",
      "gasUsed": "0x458b0",
      "effectiveGasPrice": "0x3358c762",
      "from": "0x1310cedd03cc8f6ae50f2fb93848070facb042b8",
      "to": null,
      "contractAddress": "0x0b9721c6e4b71e91256c0826a20ce5816b8251d1"
    },
    {
      "status": "0x1",
      "cumulativeGasUsed": "0xd19f16",
      "logs": [],
      "logsBloom": "0x00000000000000000000000000000000000000000000000000000000000000000000000000000000000000000000000000000000000000000000000000000000000000000000000000000000000000000000000000000000000000000000000000000000000000000000000000000000000000000000000000000000000000000000000000000000000000000000000000000000000000000000000000000000000000000000000000000000000000000000000000000000000000000000000000000000000000000000000000000000000000000000000000000000000000000000000000000000000000000000000000000000000000000000000000000000",
      "type": "0x2",
      "transactionHash": "0x1f5073cc89f2e2bfe65866edb082ef2372699ba9b4f9b04a96ea1267ab898f63",
      "transactionIndex": "0x89",
      "blockHash": "0xa4f6d76f51124ba73462a4a9782e758089b67c19ab20ce0d29c14413fc8b72af",
      "blockNumber": "0x72fb61",
      "gasUsed": "0x383c3",
      "effectiveGasPrice": "0x3358c762",
      "from": "0x1310cedd03cc8f6ae50f2fb93848070facb042b8",
      "to": null,
      "contractAddress": "0x6108c146f671414956b76e1deea2784902bcf667"
    },
    {
      "status": "0x1",
      "cumulativeGasUsed": "0xd547d2",
      "logs": [
        {
          "address": "0x3bc1a0ad72417f2d411118085256fc53cbddd137",
          "topics": [
            "0x4d38ad12136291322128027bb8c3af7db2261be395032c1d26dd0ad20cf29415"
          ],
          "data": "0x0000031b0000000000000000000000000000000000000000000000000000000000000000000000000000000000000000000000000000000000000000000000e0000000000000000000000000000000000000000000000000000000000000000100000000000000000000000000000000000000000000000000000000000000000000000000000000000000000000000000000000000000000000000000000000000000000000000000000000000000000000000000000000000000000000000000000000000000000000000000000000000000000000000000000000000001600000000000000000000000000000000000000000000000000000000000000042697066733a2f2f6261666b72656968337671736569746e3770696a6c6b6c326a636177626a72686165336466623270616b7174676434657076787866756c776f71710000000000000000000000000000000000000000000000000000000000000000000000000000000000000000000000000000000000000000000000000000",
          "blockHash": "0xa4f6d76f51124ba73462a4a9782e758089b67c19ab20ce0d29c14413fc8b72af",
          "blockNumber": "0x72fb61",
          "transactionHash": "0x1aa2e9f44b46bbe4b7771779cb321b9eb383226cd86c2180aaa14caf58c4af66",
          "transactionIndex": "0x8a",
          "logIndex": "0xe1",
          "removed": false
        },
        {
          "address": "0x3bc1a0ad72417f2d411118085256fc53cbddd137",
          "topics": [
            "0xc3d58168c5ae7397731d063d5bbf3d657854427343f4c083240f7aacaa2d0f62",
            "0x00000000000000000000000028eb5bd20a478e4aacecd831624e77e7e525c55d",
            "0x0000000000000000000000000000000000000000000000000000000000000000",
            "0x00000000000000000000000028eb5bd20a478e4aacecd831624e77e7e525c55d"
          ],
          "data": "0x0000031b000000000000000000000000000000000000000000000000000000000000000000000000000000000000000000000000000000000000000000000001",
          "blockHash": "0xa4f6d76f51124ba73462a4a9782e758089b67c19ab20ce0d29c14413fc8b72af",
          "blockNumber": "0x72fb61",
          "transactionHash": "0x1aa2e9f44b46bbe4b7771779cb321b9eb383226cd86c2180aaa14caf58c4af66",
          "transactionIndex": "0x8a",
          "logIndex": "0xe2",
          "removed": false
        },
        {
          "address": "0x28eb5bd20a478e4aacecd831624e77e7e525c55d",
          "topics": [
            "0x442e715f626346e8c54381002da614f62bee8d27386535b2521ec8540898556e"
          ],
          "data": "0x848861e8e586a2f8bdc282300686966320c73aadceee7e1b03ffa1c1b2ae96780000000000000000000000000000000000000000000000000000000000000000",
          "blockHash": "0xa4f6d76f51124ba73462a4a9782e758089b67c19ab20ce0d29c14413fc8b72af",
          "blockNumber": "0x72fb61",
          "transactionHash": "0x1aa2e9f44b46bbe4b7771779cb321b9eb383226cd86c2180aaa14caf58c4af66",
          "transactionIndex": "0x8a",
          "logIndex": "0xe3",
          "removed": false
        }
      ],
      "logsBloom": "0x00000000400000000000000000002000000000000000000000000000040000000000000000000000800000000000000000000000000000020000000000002000000000000000000000000000000000000000000004000000000000000000000000000200020000000000000000000800000000000002000000000000000000000000000000000000000000000000000000000000000000000100000000000000000000000000000000000040000004000004000000000000000000000000000000000000000000000000000000000000000000000008000000000000000020000000000000000000000080000000000000000000000100000100080000000000",
      "type": "0x2",
      "transactionHash": "0x1aa2e9f44b46bbe4b7771779cb321b9eb383226cd86c2180aaa14caf58c4af66",
      "transactionIndex": "0x8a",
      "blockHash": "0xa4f6d76f51124ba73462a4a9782e758089b67c19ab20ce0d29c14413fc8b72af",
      "blockNumber": "0x72fb61",
      "gasUsed": "0x3a8bc",
      "effectiveGasPrice": "0x3358c762",
      "from": "0x1310cedd03cc8f6ae50f2fb93848070facb042b8",
      "to": "0x28eb5bd20a478e4aacecd831624e77e7e525c55d",
      "contractAddress": null
    },
    {
      "status": "0x1",
      "cumulativeGasUsed": "0xd8785c",
      "logs": [
        {
          "address": "0x3bc1a0ad72417f2d411118085256fc53cbddd137",
          "topics": [
            "0x4d38ad12136291322128027bb8c3af7db2261be395032c1d26dd0ad20cf29415"
          ],
          "data": "0x0000031b0001000000000000000000000000000000000000000000000000000000000000000000000000000000000000000000000000000000000000000000e000000000000000000000000000000000000000000000000000000000000000020000000000000000000000000b9721c6e4b71e91256c0826a20ce5816b8251d10000000000000000000000006108c146f671414956b76e1deea2784902bcf667000000000000000000000000000000000000000000000000000000000000000100000000000000000000000000000000000000000000000000000000000001600000000000000000000000000000000000000000000000000000000000000042697066733a2f2f6261666b72656963626862766464743266343735696e756b6e747a68366e373265686d3469796c6a737479796a736d697a64736f6a6d62646173650000000000000000000000000000000000000000000000000000000000000000000000000000000000000000000000000000000000000000000000000000",
          "blockHash": "0xa4f6d76f51124ba73462a4a9782e758089b67c19ab20ce0d29c14413fc8b72af",
          "blockNumber": "0x72fb61",
          "transactionHash": "0x65cd3952c56d74e40ddec50c5c4a031e039e674a17a7605830870d8d28dca399",
          "transactionIndex": "0x8b",
          "logIndex": "0xe4",
          "removed": false
        },
        {
          "address": "0x28eb5bd20a478e4aacecd831624e77e7e525c55d",
          "topics": [
            "0x442e715f626346e8c54381002da614f62bee8d27386535b2521ec8540898556e"
          ],
          "data": "0xcbca7ebfc8477e2f3a6f2b9176d6e5f46ded85a3765a4303d8fba051f6c51fb80000000000000000000000000000000000000000000000000000000000000000",
          "blockHash": "0xa4f6d76f51124ba73462a4a9782e758089b67c19ab20ce0d29c14413fc8b72af",
          "blockNumber": "0x72fb61",
          "transactionHash": "0x65cd3952c56d74e40ddec50c5c4a031e039e674a17a7605830870d8d28dca399",
          "transactionIndex": "0x8b",
          "logIndex": "0xe5",
          "removed": false
        }
      ],
      "logsBloom": "0x00000000400000000000000000002000000000000000000000000000040000000000000000000000800000000000000000000000000000020000000000000000000000000000000000000000000000000000000000000000000000000000000000000200000000000000000000000000000000000002000000000000000000000000000000000000000000000000000000000000000000000000000000000000000000000000000000000040000004000004000000000000000000000000000000000000000000000000000000000000000000000000000000000000000000000000000000000000000000000000000000000000000100000100000000000000",
      "type": "0x2",
      "transactionHash": "0x65cd3952c56d74e40ddec50c5c4a031e039e674a17a7605830870d8d28dca399",
      "transactionIndex": "0x8b",
      "blockHash": "0xa4f6d76f51124ba73462a4a9782e758089b67c19ab20ce0d29c14413fc8b72af",
      "blockNumber": "0x72fb61",
      "gasUsed": "0x3308a",
      "effectiveGasPrice": "0x3358c762",
      "from": "0x1310cedd03cc8f6ae50f2fb93848070facb042b8",
      "to": "0x28eb5bd20a478e4aacecd831624e77e7e525c55d",
      "contractAddress": null
    },
    {
      "status": "0x1",
      "cumulativeGasUsed": "0xdba8e6",
      "logs": [
        {
          "address": "0x3bc1a0ad72417f2d411118085256fc53cbddd137",
          "topics": [
            "0x4d38ad12136291322128027bb8c3af7db2261be395032c1d26dd0ad20cf29415"
          ],
          "data": "0x0000031b0002000000000000000000000000000000000000000000000000000000000000000000000000000000000000000000000000000000000000000000e000000000000000000000000000000000000000000000000000000000000000020000000000000000000000000b9721c6e4b71e91256c0826a20ce5816b8251d10000000000000000000000006108c146f671414956b76e1deea2784902bcf667000000000000000000000000000000000000000000000000000000000000000100000000000000000000000000000000000000000000000000000000000001600000000000000000000000000000000000000000000000000000000000000042697066733a2f2f6261666b726569633266356236796b6476616673356e686b6f757275766c716c373363616f753565746764727836377974366f66703670776632340000000000000000000000000000000000000000000000000000000000000000000000000000000000000000000000000000000000000000000000000000",
          "blockHash": "0xa4f6d76f51124ba73462a4a9782e758089b67c19ab20ce0d29c14413fc8b72af",
          "blockNumber": "0x72fb61",
          "transactionHash": "0x7723e38889cd11718bc0fc08c6899c08c2cb8db6f8385fd52dc0e84de9f18d37",
          "transactionIndex": "0x8c",
          "logIndex": "0xe6",
          "removed": false
        },
        {
          "address": "0x28eb5bd20a478e4aacecd831624e77e7e525c55d",
          "topics": [
            "0x442e715f626346e8c54381002da614f62bee8d27386535b2521ec8540898556e"
          ],
          "data": "0x6f8f717ef218db00f137afea6e3ee89c200b6da2389936a4bd89214d9f5a48210000000000000000000000000000000000000000000000000000000000000000",
          "blockHash": "0xa4f6d76f51124ba73462a4a9782e758089b67c19ab20ce0d29c14413fc8b72af",
          "blockNumber": "0x72fb61",
          "transactionHash": "0x7723e38889cd11718bc0fc08c6899c08c2cb8db6f8385fd52dc0e84de9f18d37",
          "transactionIndex": "0x8c",
          "logIndex": "0xe7",
          "removed": false
        }
      ],
      "logsBloom": "0x00000000400000000000000000002000000000000000000000000000040000000000000000000000800000000000000000000000000000020000000000000000000000000000000000000000000000000000000000000000000000000000000000000200000000000000000000000000000000000002000000000000000000000000000000000000000000000000000000000000000000000000000000000000000000000000000000000040000004000004000000000000000000000000000000000000000000000000000000000000000000000000000000000000000000000000000000000000000000000000000000000000000100000100000000000000",
      "type": "0x2",
      "transactionHash": "0x7723e38889cd11718bc0fc08c6899c08c2cb8db6f8385fd52dc0e84de9f18d37",
      "transactionIndex": "0x8c",
      "blockHash": "0xa4f6d76f51124ba73462a4a9782e758089b67c19ab20ce0d29c14413fc8b72af",
      "blockNumber": "0x72fb61",
      "gasUsed": "0x3308a",
      "effectiveGasPrice": "0x3358c762",
      "from": "0x1310cedd03cc8f6ae50f2fb93848070facb042b8",
      "to": "0x28eb5bd20a478e4aacecd831624e77e7e525c55d",
      "contractAddress": null
    },
    {
      "status": "0x1",
      "cumulativeGasUsed": "0xded970",
      "logs": [
        {
          "address": "0x3bc1a0ad72417f2d411118085256fc53cbddd137",
          "topics": [
            "0x4d38ad12136291322128027bb8c3af7db2261be395032c1d26dd0ad20cf29415"
          ],
          "data": "0x0000031b0003000000000000000000000000000000000000000000000000000000000000000000000000000000000000000000000000000000000000000000e000000000000000000000000000000000000000000000000000000000000000020000000000000000000000000b9721c6e4b71e91256c0826a20ce5816b8251d10000000000000000000000006108c146f671414956b76e1deea2784902bcf667000000000000000000000000000000000000000000000000000000000000000100000000000000000000000000000000000000000000000000000000000001600000000000000000000000000000000000000000000000000000000000000042697066733a2f2f6261666b726569653276786f68617737636e656b6e6c777636687137683461736b6b76366a66636164686f3665667a3562786678363666717533710000000000000000000000000000000000000000000000000000000000000000000000000000000000000000000000000000000000000000000000000000",
          "blockHash": "0xa4f6d76f51124ba73462a4a9782e758089b67c19ab20ce0d29c14413fc8b72af",
          "blockNumber": "0x72fb61",
          "transactionHash": "0xe6d1bf2a3ce301378487940b0d8393be3034d0afad1adbdbd8286aea92d3bcd7",
          "transactionIndex": "0x8d",
          "logIndex": "0xe8",
          "removed": false
        },
        {
          "address": "0x28eb5bd20a478e4aacecd831624e77e7e525c55d",
          "topics": [
            "0x442e715f626346e8c54381002da614f62bee8d27386535b2521ec8540898556e"
          ],
          "data": "0xae33c211a20c574b4cb3a614596e4278f7c76979571e4473cee2b8ed629b8fa30000000000000000000000000000000000000000000000000000000000000000",
          "blockHash": "0xa4f6d76f51124ba73462a4a9782e758089b67c19ab20ce0d29c14413fc8b72af",
          "blockNumber": "0x72fb61",
          "transactionHash": "0xe6d1bf2a3ce301378487940b0d8393be3034d0afad1adbdbd8286aea92d3bcd7",
          "transactionIndex": "0x8d",
          "logIndex": "0xe9",
          "removed": false
        }
      ],
      "logsBloom": "0x00000000400000000000000000002000000000000000000000000000040000000000000000000000800000000000000000000000000000020000000000000000000000000000000000000000000000000000000000000000000000000000000000000200000000000000000000000000000000000002000000000000000000000000000000000000000000000000000000000000000000000000000000000000000000000000000000000040000004000004000000000000000000000000000000000000000000000000000000000000000000000000000000000000000000000000000000000000000000000000000000000000000100000100000000000000",
      "type": "0x2",
      "transactionHash": "0xe6d1bf2a3ce301378487940b0d8393be3034d0afad1adbdbd8286aea92d3bcd7",
      "transactionIndex": "0x8d",
      "blockHash": "0xa4f6d76f51124ba73462a4a9782e758089b67c19ab20ce0d29c14413fc8b72af",
      "blockNumber": "0x72fb61",
      "gasUsed": "0x3308a",
      "effectiveGasPrice": "0x3358c762",
      "from": "0x1310cedd03cc8f6ae50f2fb93848070facb042b8",
      "to": "0x28eb5bd20a478e4aacecd831624e77e7e525c55d",
      "contractAddress": null
    },
    {
      "status": "0x1",
      "cumulativeGasUsed": "0xe209fa",
      "logs": [
        {
          "address": "0x3bc1a0ad72417f2d411118085256fc53cbddd137",
          "topics": [
            "0x4d38ad12136291322128027bb8c3af7db2261be395032c1d26dd0ad20cf29415"
          ],
          "data": "0x0000031b0004000000000000000000000000000000000000000000000000000000000000000000000000000000000000000000000000000000000000000000e000000000000000000000000000000000000000000000000000000000000000020000000000000000000000000b9721c6e4b71e91256c0826a20ce5816b8251d10000000000000000000000006108c146f671414956b76e1deea2784902bcf667000000000000000000000000000000000000000000000000000000000000000100000000000000000000000000000000000000000000000000000000000001600000000000000000000000000000000000000000000000000000000000000042697066733a2f2f6261666b726569637a6662746674657367677a63666e756d6379377266727536363561373775797a6e626162646b3562366674666f3268766a77340000000000000000000000000000000000000000000000000000000000000000000000000000000000000000000000000000000000000000000000000000",
          "blockHash": "0xa4f6d76f51124ba73462a4a9782e758089b67c19ab20ce0d29c14413fc8b72af",
          "blockNumber": "0x72fb61",
          "transactionHash": "0x4acdfd36e17e90ac359e75f97ae4ccbee4458b12866bbb0828cecfc3d15a1136",
          "transactionIndex": "0x8e",
          "logIndex": "0xea",
          "removed": false
        },
        {
          "address": "0x28eb5bd20a478e4aacecd831624e77e7e525c55d",
          "topics": [
            "0x442e715f626346e8c54381002da614f62bee8d27386535b2521ec8540898556e"
          ],
          "data": "0xbfc3f70e454c05e49c557a5782ab3c0725993873be7b23939bc015195f32d05b0000000000000000000000000000000000000000000000000000000000000000",
          "blockHash": "0xa4f6d76f51124ba73462a4a9782e758089b67c19ab20ce0d29c14413fc8b72af",
          "blockNumber": "0x72fb61",
          "transactionHash": "0x4acdfd36e17e90ac359e75f97ae4ccbee4458b12866bbb0828cecfc3d15a1136",
          "transactionIndex": "0x8e",
          "logIndex": "0xeb",
          "removed": false
        }
      ],
      "logsBloom": "0x00000000400000000000000000002000000000000000000000000000040000000000000000000000800000000000000000000000000000020000000000000000000000000000000000000000000000000000000000000000000000000000000000000200000000000000000000000000000000000002000000000000000000000000000000000000000000000000000000000000000000000000000000000000000000000000000000000040000004000004000000000000000000000000000000000000000000000000000000000000000000000000000000000000000000000000000000000000000000000000000000000000000100000100000000000000",
      "type": "0x2",
      "transactionHash": "0x4acdfd36e17e90ac359e75f97ae4ccbee4458b12866bbb0828cecfc3d15a1136",
      "transactionIndex": "0x8e",
      "blockHash": "0xa4f6d76f51124ba73462a4a9782e758089b67c19ab20ce0d29c14413fc8b72af",
      "blockNumber": "0x72fb61",
      "gasUsed": "0x3308a",
      "effectiveGasPrice": "0x3358c762",
      "from": "0x1310cedd03cc8f6ae50f2fb93848070facb042b8",
      "to": "0x28eb5bd20a478e4aacecd831624e77e7e525c55d",
      "contractAddress": null
    },
    {
      "status": "0x1",
      "cumulativeGasUsed": "0xe67eae",
      "logs": [],
      "logsBloom": "0x00000000000000000000000000000000000000000000000000000000000000000000000000000000000000000000000000000000000000000000000000000000000000000000000000000000000000000000000000000000000000000000000000000000000000000000000000000000000000000000000000000000000000000000000000000000000000000000000000000000000000000000000000000000000000000000000000000000000000000000000000000000000000000000000000000000000000000000000000000000000000000000000000000000000000000000000000000000000000000000000000000000000000000000000000000000",
      "type": "0x2",
      "transactionHash": "0x0fb11f277d739a025bcc14848f37ee8c292b9d853c5ee9a5b9bafb2a2085b022",
      "transactionIndex": "0x8f",
      "blockHash": "0xa4f6d76f51124ba73462a4a9782e758089b67c19ab20ce0d29c14413fc8b72af",
      "blockNumber": "0x72fb61",
      "gasUsed": "0x474b4",
      "effectiveGasPrice": "0x3358c762",
      "from": "0x1310cedd03cc8f6ae50f2fb93848070facb042b8",
      "to": null,
      "contractAddress": "0x2cf8a12acd03abd1d2aeef1245c1c296216880d4"
    },
    {
      "status": "0x1",
      "cumulativeGasUsed": "0xe7a4aa",
      "logs": [
        {
          "address": "0x0b9721c6e4b71e91256c0826a20ce5816b8251d1",
          "topics": [
            "0x31965539da4d3faf051b3068a0cd8e46c009cddfaba1b4488a46d05268da6c54",
            "0x0000031b00000000000000000000000000000000000000000000000000000000"
          ],
          "data": "0x00000000000000000000000000000000000000000000000000000000000000010000000000000000000000000000000000000000000000000000000000000001",
          "blockHash": "0xa4f6d76f51124ba73462a4a9782e758089b67c19ab20ce0d29c14413fc8b72af",
          "blockNumber": "0x72fb61",
          "transactionHash": "0xccbd12f7c67246acbf7211fb7fe96329da2eb52b066cef9407f460059b3dcd65",
          "transactionIndex": "0x90",
          "logIndex": "0xec",
          "removed": false
        },
        {
          "address": "0x28eb5bd20a478e4aacecd831624e77e7e525c55d",
          "topics": [
            "0x442e715f626346e8c54381002da614f62bee8d27386535b2521ec8540898556e"
          ],
          "data": "0x1227f1e261971ee02bb2c6fa15a660cb77755a4ef2c11c5d3c8b360b9f9b26b20000000000000000000000000000000000000000000000000000000000000000",
          "blockHash": "0xa4f6d76f51124ba73462a4a9782e758089b67c19ab20ce0d29c14413fc8b72af",
          "blockNumber": "0x72fb61",
          "transactionHash": "0xccbd12f7c67246acbf7211fb7fe96329da2eb52b066cef9407f460059b3dcd65",
          "transactionIndex": "0x90",
          "logIndex": "0xed",
          "removed": false
        }
      ],
      "logsBloom": "0x00000000400000000000000000080080000000000000000000000000040000000000000000100000000000000000100000000000000000000000000000000000000000000000000000000000000000000000000000000000000000000000000000000200000000000080000000000000000000000000000000200000000000000000000000000000000000000000000000000000000000000000000000000000000020000000000000000040000004000000000000000000000000000000000000000000000000000000000000000000000000000000000000000000001000000000000000000000000000000000000000000000000000040100000000000000",
      "type": "0x2",
      "transactionHash": "0xccbd12f7c67246acbf7211fb7fe96329da2eb52b066cef9407f460059b3dcd65",
      "transactionIndex": "0x90",
      "blockHash": "0xa4f6d76f51124ba73462a4a9782e758089b67c19ab20ce0d29c14413fc8b72af",
      "blockNumber": "0x72fb61",
      "gasUsed": "0x125fc",
      "effectiveGasPrice": "0x3358c762",
      "from": "0x1310cedd03cc8f6ae50f2fb93848070facb042b8",
      "to": "0x28eb5bd20a478e4aacecd831624e77e7e525c55d",
      "contractAddress": null
    },
    {
      "status": "0x1",
      "cumulativeGasUsed": "0xe8cab2",
      "logs": [
        {
          "address": "0x0b9721c6e4b71e91256c0826a20ce5816b8251d1",
          "topics": [
            "0x31965539da4d3faf051b3068a0cd8e46c009cddfaba1b4488a46d05268da6c54",
            "0x0000031b00010000000000000000000000000000000000000000000000000000"
          ],
          "data": "0x00000000000000000000000000000000000000000000000000000000000000010000000000000000000000000000000000000000000000000000000000000001",
          "blockHash": "0xa4f6d76f51124ba73462a4a9782e758089b67c19ab20ce0d29c14413fc8b72af",
          "blockNumber": "0x72fb61",
          "transactionHash": "0xdaf1a638206bda014c48b2eb3fe7fab96ecc4c19b70cb6a01f3d3a20359e693c",
          "transactionIndex": "0x91",
          "logIndex": "0xee",
          "removed": false
        },
        {
          "address": "0x28eb5bd20a478e4aacecd831624e77e7e525c55d",
          "topics": [
            "0x442e715f626346e8c54381002da614f62bee8d27386535b2521ec8540898556e"
          ],
          "data": "0x98d450abe63cfd93277bbf50af420fb305a0a0716cacb3f0368218e75cd75a130000000000000000000000000000000000000000000000000000000000000000",
          "blockHash": "0xa4f6d76f51124ba73462a4a9782e758089b67c19ab20ce0d29c14413fc8b72af",
          "blockNumber": "0x72fb61",
          "transactionHash": "0xdaf1a638206bda014c48b2eb3fe7fab96ecc4c19b70cb6a01f3d3a20359e693c",
          "transactionIndex": "0x91",
          "logIndex": "0xef",
          "removed": false
        }
      ],
      "logsBloom": "0x00000000400000000000000000000080000000000000000000000000040000000000000000000000000000000000100000000000000000000000000000000000000000000000000000000000000000000000000000000000000000000000000000000200000400000000000000000000000000000000000000200000000000000000000000000000000000000000000000000000000000020000000000000000000020000000000000000040000004000000000000000000000000000000000000000000000000000000000000000000000000000000000000000000001100000000000000000000000000000000000000000000000000040100000000000000",
      "type": "0x2",
      "transactionHash": "0xdaf1a638206bda014c48b2eb3fe7fab96ecc4c19b70cb6a01f3d3a20359e693c",
      "transactionIndex": "0x91",
      "blockHash": "0xa4f6d76f51124ba73462a4a9782e758089b67c19ab20ce0d29c14413fc8b72af",
      "blockNumber": "0x72fb61",
      "gasUsed": "0x12608",
      "effectiveGasPrice": "0x3358c762",
      "from": "0x1310cedd03cc8f6ae50f2fb93848070facb042b8",
      "to": "0x28eb5bd20a478e4aacecd831624e77e7e525c55d",
      "contractAddress": null
    },
    {
      "status": "0x1",
      "cumulativeGasUsed": "0xe9f0ba",
      "logs": [
        {
          "address": "0x0b9721c6e4b71e91256c0826a20ce5816b8251d1",
          "topics": [
            "0x31965539da4d3faf051b3068a0cd8e46c009cddfaba1b4488a46d05268da6c54",
            "0x0000031b00020000000000000000000000000000000000000000000000000000"
          ],
          "data": "0x00000000000000000000000000000000000000000000000000000000000000010000000000000000000000000000000000000000000000000000000000000001",
          "blockHash": "0xa4f6d76f51124ba73462a4a9782e758089b67c19ab20ce0d29c14413fc8b72af",
          "blockNumber": "0x72fb61",
          "transactionHash": "0x3ea1b8cffbb1f0b992d946dfa885e7c08d8286347d4ccb927d80fa2df59d70f5",
          "transactionIndex": "0x92",
          "logIndex": "0xf0",
          "removed": false
        },
        {
          "address": "0x28eb5bd20a478e4aacecd831624e77e7e525c55d",
          "topics": [
            "0x442e715f626346e8c54381002da614f62bee8d27386535b2521ec8540898556e"
          ],
          "data": "0xdc81cd792d7e13cb434593b9fcee3b85cf1ac20e031c25ac3eb3d61a49b26a000000000000000000000000000000000000000000000000000000000000000000",
          "blockHash": "0xa4f6d76f51124ba73462a4a9782e758089b67c19ab20ce0d29c14413fc8b72af",
          "blockNumber": "0x72fb61",
          "transactionHash": "0x3ea1b8cffbb1f0b992d946dfa885e7c08d8286347d4ccb927d80fa2df59d70f5",
          "transactionIndex": "0x92",
          "logIndex": "0xf1",
          "removed": false
        }
      ],
      "logsBloom": "0x00000000400000000000000000000080000000000000000000000000040000002000000000000000000000000000100000000000000000000000000000080000000000000000000000000000000000000000000000040000000000000000000000000200000000000000000000000000000000000000000000200000000000000000000000000000000000000000000000000000000000000000000000000000000020000000000000000040000004000000000000000000000000000000000000000000000000000000000000000000000000000000000000000000001000000000000000000000000000000000000000000000000000040100000000000000",
      "type": "0x2",
      "transactionHash": "0x3ea1b8cffbb1f0b992d946dfa885e7c08d8286347d4ccb927d80fa2df59d70f5",
      "transactionIndex": "0x92",
      "blockHash": "0xa4f6d76f51124ba73462a4a9782e758089b67c19ab20ce0d29c14413fc8b72af",
      "blockNumber": "0x72fb61",
      "gasUsed": "0x12608",
      "effectiveGasPrice": "0x3358c762",
      "from": "0x1310cedd03cc8f6ae50f2fb93848070facb042b8",
      "to": "0x28eb5bd20a478e4aacecd831624e77e7e525c55d",
      "contractAddress": null
    },
    {
      "status": "0x1",
      "cumulativeGasUsed": "0xeb16c2",
      "logs": [
        {
          "address": "0x0b9721c6e4b71e91256c0826a20ce5816b8251d1",
          "topics": [
            "0x31965539da4d3faf051b3068a0cd8e46c009cddfaba1b4488a46d05268da6c54",
            "0x0000031b00030000000000000000000000000000000000000000000000000000"
          ],
          "data": "0x00000000000000000000000000000000000000000000000000000000000000010000000000000000000000000000000000000000000000000000000000000001",
          "blockHash": "0xa4f6d76f51124ba73462a4a9782e758089b67c19ab20ce0d29c14413fc8b72af",
          "blockNumber": "0x72fb61",
          "transactionHash": "0x6ce9abe5234d2d93cc9cad6749930bf2b496d320d0489cd5b0ad0a102d5fa040",
          "transactionIndex": "0x93",
          "logIndex": "0xf2",
          "removed": false
        },
        {
          "address": "0x28eb5bd20a478e4aacecd831624e77e7e525c55d",
          "topics": [
            "0x442e715f626346e8c54381002da614f62bee8d27386535b2521ec8540898556e"
          ],
          "data": "0x9b83d230920aaa88e26f200420c5ff16eb94586935392e62af34b6b32c2a043b0000000000000000000000000000000000000000000000000000000000000000",
          "blockHash": "0xa4f6d76f51124ba73462a4a9782e758089b67c19ab20ce0d29c14413fc8b72af",
          "blockNumber": "0x72fb61",
          "transactionHash": "0x6ce9abe5234d2d93cc9cad6749930bf2b496d320d0489cd5b0ad0a102d5fa040",
          "transactionIndex": "0x93",
          "logIndex": "0xf3",
          "removed": false
        }
      ],
      "logsBloom": "0x00000000400000000000000000000080000000000000000000000000040000000000000000000000000000000000100000000000000000000000000000000000000000000000000000000000000000000000000100000000000000000000000000000200000000000000000000000000000000000000000000200000000000000000000000000000000000000000000000000000000000000000000000000000000020000000000000000040000004000000000000000000000000000000000000080000000000000000000000000000000000000000000000000000001000000000000000000000000000000000000100000000000000040100000000000000",
      "type": "0x2",
      "transactionHash": "0x6ce9abe5234d2d93cc9cad6749930bf2b496d320d0489cd5b0ad0a102d5fa040",
      "transactionIndex": "0x93",
      "blockHash": "0xa4f6d76f51124ba73462a4a9782e758089b67c19ab20ce0d29c14413fc8b72af",
      "blockNumber": "0x72fb61",
      "gasUsed": "0x12608",
      "effectiveGasPrice": "0x3358c762",
      "from": "0x1310cedd03cc8f6ae50f2fb93848070facb042b8",
      "to": "0x28eb5bd20a478e4aacecd831624e77e7e525c55d",
      "contractAddress": null
    },
    {
      "status": "0x1",
      "cumulativeGasUsed": "0xec3cca",
      "logs": [
        {
          "address": "0x0b9721c6e4b71e91256c0826a20ce5816b8251d1",
          "topics": [
            "0x31965539da4d3faf051b3068a0cd8e46c009cddfaba1b4488a46d05268da6c54",
            "0x0000031b00040000000000000000000000000000000000000000000000000000"
          ],
          "data": "0x00000000000000000000000000000000000000000000000000000000000000010000000000000000000000000000000000000000000000000000000000000001",
          "blockHash": "0xa4f6d76f51124ba73462a4a9782e758089b67c19ab20ce0d29c14413fc8b72af",
          "blockNumber": "0x72fb61",
          "transactionHash": "0xf3a055786ef7f5a86d9fdef310b21652ccc6517310e332def1cfbc3453dcef66",
          "transactionIndex": "0x94",
          "logIndex": "0xf4",
          "removed": false
        },
        {
          "address": "0x28eb5bd20a478e4aacecd831624e77e7e525c55d",
          "topics": [
            "0x442e715f626346e8c54381002da614f62bee8d27386535b2521ec8540898556e"
          ],
          "data": "0x9e530050c8b8c85628c4f84ff46bebd010e293a70ca8f93f99e916c843ae28c20000000000000000000000000000000000000000000000000000000000000000",
          "blockHash": "0xa4f6d76f51124ba73462a4a9782e758089b67c19ab20ce0d29c14413fc8b72af",
          "blockNumber": "0x72fb61",
          "transactionHash": "0xf3a055786ef7f5a86d9fdef310b21652ccc6517310e332def1cfbc3453dcef66",
          "transactionIndex": "0x94",
          "logIndex": "0xf5",
          "removed": false
        }
      ],
      "logsBloom": "0x00000000400000000000000000000080000000000000000000000000040000000000000000000000000000000000100000000000000000200000800000000000000000000000000000000000000000000000000000000000000000000000000000000200000000000000000000000000000000000000000000200000000000000000000000000000000000000000000000000000000000000000000000000000000020000000000000000040000004000000000000000000000000000000000000000000000000000000000000000000000000000000000000000000001000000000000000000000000000000000000000000000000004040100000000000000",
      "type": "0x2",
      "transactionHash": "0xf3a055786ef7f5a86d9fdef310b21652ccc6517310e332def1cfbc3453dcef66",
      "transactionIndex": "0x94",
      "blockHash": "0xa4f6d76f51124ba73462a4a9782e758089b67c19ab20ce0d29c14413fc8b72af",
      "blockNumber": "0x72fb61",
      "gasUsed": "0x12608",
      "effectiveGasPrice": "0x3358c762",
      "from": "0x1310cedd03cc8f6ae50f2fb93848070facb042b8",
      "to": "0x28eb5bd20a478e4aacecd831624e77e7e525c55d",
      "contractAddress": null
    },
    {
      "status": "0x1",
      "cumulativeGasUsed": "0xed6030",
      "logs": [
        {
          "address": "0x6108c146f671414956b76e1deea2784902bcf667",
          "topics": [
            "0x7a5b9053a8082029af84e35eaf597e3d1c1f826b93a622dbefe354ad36f31152",
            "0x0000031b00000000000000000000000000000000000000000000000000000000"
          ],
          "data": "0x0000000000000000000000000000000000000000000000000000000000000001",
          "blockHash": "0xa4f6d76f51124ba73462a4a9782e758089b67c19ab20ce0d29c14413fc8b72af",
          "blockNumber": "0x72fb61",
          "transactionHash": "0x158436dcd3d1fa0a9b6b4ad859eae983d97800ba55a6a7b90a3db55f48f10bd0",
          "transactionIndex": "0x95",
          "logIndex": "0xf6",
          "removed": false
        },
        {
          "address": "0x28eb5bd20a478e4aacecd831624e77e7e525c55d",
          "topics": [
            "0x442e715f626346e8c54381002da614f62bee8d27386535b2521ec8540898556e"
          ],
          "data": "0x2d8ea8b8caada82c338caf32c299bb201115fc0abac141eb4dc4ee8c039640f40000000000000000000000000000000000000000000000000000000000000000",
          "blockHash": "0xa4f6d76f51124ba73462a4a9782e758089b67c19ab20ce0d29c14413fc8b72af",
          "blockNumber": "0x72fb61",
          "transactionHash": "0x158436dcd3d1fa0a9b6b4ad859eae983d97800ba55a6a7b90a3db55f48f10bd0",
          "transactionIndex": "0x95",
          "logIndex": "0xf7",
          "removed": false
        }
      ],
      "logsBloom": "0x00000000400000000000000000080000000000000000000000000000040000000000000000100000000000000000004000000000000000000000000000000000000000000000000000000000000000000000000000000000000000000000000000000200000000000080000000000000002000000000000000000000000008000000000000000000000000000000000000000000000080000000400000000000000000000000000000000040000004000000000000000000000000000000000000000000000000000000000000000000000000000000000000000000000000000000000000000000000000000000000000000000000080000100000000000000",
      "type": "0x2",
      "transactionHash": "0x158436dcd3d1fa0a9b6b4ad859eae983d97800ba55a6a7b90a3db55f48f10bd0",
      "transactionIndex": "0x95",
      "blockHash": "0xa4f6d76f51124ba73462a4a9782e758089b67c19ab20ce0d29c14413fc8b72af",
      "blockNumber": "0x72fb61",
      "gasUsed": "0x12366",
      "effectiveGasPrice": "0x3358c762",
      "from": "0x1310cedd03cc8f6ae50f2fb93848070facb042b8",
      "to": "0x28eb5bd20a478e4aacecd831624e77e7e525c55d",
      "contractAddress": null
    },
    {
      "status": "0x1",
      "cumulativeGasUsed": "0xee83a2",
      "logs": [
        {
          "address": "0x6108c146f671414956b76e1deea2784902bcf667",
          "topics": [
            "0x7a5b9053a8082029af84e35eaf597e3d1c1f826b93a622dbefe354ad36f31152",
            "0x0000031b00010000000000000000000000000000000000000000000000000000"
          ],
          "data": "0x0000000000000000000000000000000000000000000000000000000000000001",
          "blockHash": "0xa4f6d76f51124ba73462a4a9782e758089b67c19ab20ce0d29c14413fc8b72af",
          "blockNumber": "0x72fb61",
          "transactionHash": "0x36a13f0e6d77c0c4a2b6f27d490fc55a374e81902c5c90c7107eae5870a1bd54",
          "transactionIndex": "0x96",
          "logIndex": "0xf8",
          "removed": false
        },
        {
          "address": "0x28eb5bd20a478e4aacecd831624e77e7e525c55d",
          "topics": [
            "0x442e715f626346e8c54381002da614f62bee8d27386535b2521ec8540898556e"
          ],
          "data": "0x88b9b4111bca84b321e84fdea5836b4c8a71f243eb3d56bc48a580ad4c56374b0000000000000000000000000000000000000000000000000000000000000000",
          "blockHash": "0xa4f6d76f51124ba73462a4a9782e758089b67c19ab20ce0d29c14413fc8b72af",
          "blockNumber": "0x72fb61",
          "transactionHash": "0x36a13f0e6d77c0c4a2b6f27d490fc55a374e81902c5c90c7107eae5870a1bd54",
          "transactionIndex": "0x96",
          "logIndex": "0xf9",
          "removed": false
        }
      ],
      "logsBloom": "0x00000000400000000000000000000000000000000000000000000000040000000000000000000000000000000000004000000000000000000000000000000000000000000000000000000000000000000000000000000000000000000000000000000200000400000000000000000000002000000000000000000000000008000000000000000000000000000000000000000000000080020000400000000000000000000000000000000040000004000000000000000000000000000000000000000000000000000000000000000000000000000000000000000000000100000000000000000000000000000000000000000000000080000100000000000000",
      "type": "0x2",
      "transactionHash": "0x36a13f0e6d77c0c4a2b6f27d490fc55a374e81902c5c90c7107eae5870a1bd54",
      "transactionIndex": "0x96",
      "blockHash": "0xa4f6d76f51124ba73462a4a9782e758089b67c19ab20ce0d29c14413fc8b72af",
      "blockNumber": "0x72fb61",
      "gasUsed": "0x12372",
      "effectiveGasPrice": "0x3358c762",
      "from": "0x1310cedd03cc8f6ae50f2fb93848070facb042b8",
      "to": "0x28eb5bd20a478e4aacecd831624e77e7e525c55d",
      "contractAddress": null
    },
    {
      "status": "0x1",
      "cumulativeGasUsed": "0xefa714",
      "logs": [
        {
          "address": "0x6108c146f671414956b76e1deea2784902bcf667",
          "topics": [
            "0x7a5b9053a8082029af84e35eaf597e3d1c1f826b93a622dbefe354ad36f31152",
            "0x0000031b00020000000000000000000000000000000000000000000000000000"
          ],
          "data": "0x0000000000000000000000000000000000000000000000000000000000000001",
          "blockHash": "0xa4f6d76f51124ba73462a4a9782e758089b67c19ab20ce0d29c14413fc8b72af",
          "blockNumber": "0x72fb61",
          "transactionHash": "0x38ab6b6b1e927949d46fdd5c525593dbb78fec532e85b262aa2b252055f96227",
          "transactionIndex": "0x97",
          "logIndex": "0xfa",
          "removed": false
        },
        {
          "address": "0x28eb5bd20a478e4aacecd831624e77e7e525c55d",
          "topics": [
            "0x442e715f626346e8c54381002da614f62bee8d27386535b2521ec8540898556e"
          ],
          "data": "0x04e2c54bcd3214f7f19ab70a7c74a47860667dee7c401c683fbac764e6a423640000000000000000000000000000000000000000000000000000000000000000",
          "blockHash": "0xa4f6d76f51124ba73462a4a9782e758089b67c19ab20ce0d29c14413fc8b72af",
          "blockNumber": "0x72fb61",
          "transactionHash": "0x38ab6b6b1e927949d46fdd5c525593dbb78fec532e85b262aa2b252055f96227",
          "transactionIndex": "0x97",
          "logIndex": "0xfb",
          "removed": false
        }
      ],
      "logsBloom": "0x00000000400000000000000000000000000000000000000000000000040000002000000000000000000000000000004000000000000000000000000000080000000000000000000000000000000000000000000000040000000000000000000000000200000000000000000000000000002000000000000000000000000008000000000000000000000000000000000000000000000080000000400000000000000000000000000000000040000004000000000000000000000000000000000000000000000000000000000000000000000000000000000000000000000000000000000000000000000000000000000000000000000080000100000000000000",
      "type": "0x2",
      "transactionHash": "0x38ab6b6b1e927949d46fdd5c525593dbb78fec532e85b262aa2b252055f96227",
      "transactionIndex": "0x97",
      "blockHash": "0xa4f6d76f51124ba73462a4a9782e758089b67c19ab20ce0d29c14413fc8b72af",
      "blockNumber": "0x72fb61",
      "gasUsed": "0x12372",
      "effectiveGasPrice": "0x3358c762",
      "from": "0x1310cedd03cc8f6ae50f2fb93848070facb042b8",
      "to": "0x28eb5bd20a478e4aacecd831624e77e7e525c55d",
      "contractAddress": null
    },
    {
      "status": "0x1",
      "cumulativeGasUsed": "0xf0ca86",
      "logs": [
        {
          "address": "0x6108c146f671414956b76e1deea2784902bcf667",
          "topics": [
            "0x7a5b9053a8082029af84e35eaf597e3d1c1f826b93a622dbefe354ad36f31152",
            "0x0000031b00030000000000000000000000000000000000000000000000000000"
          ],
          "data": "0x0000000000000000000000000000000000000000000000000000000000000001",
          "blockHash": "0xa4f6d76f51124ba73462a4a9782e758089b67c19ab20ce0d29c14413fc8b72af",
          "blockNumber": "0x72fb61",
          "transactionHash": "0xe91c31da507b674c1338ced257e31fdaf979f88094aa77addf17f0fc3c813b8a",
          "transactionIndex": "0x98",
          "logIndex": "0xfc",
          "removed": false
        },
        {
          "address": "0x28eb5bd20a478e4aacecd831624e77e7e525c55d",
          "topics": [
            "0x442e715f626346e8c54381002da614f62bee8d27386535b2521ec8540898556e"
          ],
          "data": "0x8ef940f8d05d0368a0b54f40d3d8017e88694767c559eef2d16399a3fda0b8500000000000000000000000000000000000000000000000000000000000000000",
          "blockHash": "0xa4f6d76f51124ba73462a4a9782e758089b67c19ab20ce0d29c14413fc8b72af",
          "blockNumber": "0x72fb61",
          "transactionHash": "0xe91c31da507b674c1338ced257e31fdaf979f88094aa77addf17f0fc3c813b8a",
          "transactionIndex": "0x98",
          "logIndex": "0xfd",
          "removed": false
        }
      ],
      "logsBloom": "0x00000000400000000000000000000000000000000000000000000000040000000000000000000000000000000000004000000000000000000000000000000000000000000000000000000000000000000000000100000000000000000000000000000200000000000000000000000000002000000000000000000000000008000000000000000000000000000000000000000000000080000000400000000000000000000000000000000040000004000000000000000000000000000000000000080000000000000000000000000000000000000000000000000000000000000000000000000000000000000000000100000000000080000100000000000000",
      "type": "0x2",
      "transactionHash": "0xe91c31da507b674c1338ced257e31fdaf979f88094aa77addf17f0fc3c813b8a",
      "transactionIndex": "0x98",
      "blockHash": "0xa4f6d76f51124ba73462a4a9782e758089b67c19ab20ce0d29c14413fc8b72af",
      "blockNumber": "0x72fb61",
      "gasUsed": "0x12372",
      "effectiveGasPrice": "0x3358c762",
      "from": "0x1310cedd03cc8f6ae50f2fb93848070facb042b8",
      "to": "0x28eb5bd20a478e4aacecd831624e77e7e525c55d",
      "contractAddress": null
    },
    {
      "status": "0x1",
      "cumulativeGasUsed": "0xf1edf8",
      "logs": [
        {
          "address": "0x6108c146f671414956b76e1deea2784902bcf667",
          "topics": [
            "0x7a5b9053a8082029af84e35eaf597e3d1c1f826b93a622dbefe354ad36f31152",
            "0x0000031b00040000000000000000000000000000000000000000000000000000"
          ],
          "data": "0x0000000000000000000000000000000000000000000000000000000000000001",
          "blockHash": "0xa4f6d76f51124ba73462a4a9782e758089b67c19ab20ce0d29c14413fc8b72af",
          "blockNumber": "0x72fb61",
          "transactionHash": "0x43138098d4f46525d1ab7d4967bbcab0a868518adee6746e376faed014c431c6",
          "transactionIndex": "0x99",
          "logIndex": "0xfe",
          "removed": false
        },
        {
          "address": "0x28eb5bd20a478e4aacecd831624e77e7e525c55d",
          "topics": [
            "0x442e715f626346e8c54381002da614f62bee8d27386535b2521ec8540898556e"
          ],
          "data": "0x4f0decf5ab5e5694d310bd990ecacccbcb6760723d520609616b4b782910e0540000000000000000000000000000000000000000000000000000000000000000",
          "blockHash": "0xa4f6d76f51124ba73462a4a9782e758089b67c19ab20ce0d29c14413fc8b72af",
          "blockNumber": "0x72fb61",
          "transactionHash": "0x43138098d4f46525d1ab7d4967bbcab0a868518adee6746e376faed014c431c6",
          "transactionIndex": "0x99",
          "logIndex": "0xff",
          "removed": false
        }
      ],
      "logsBloom": "0x00000000400000000000000000000000000000000000000000000000040000000000000000000000000000000000004000000000000000200000800000000000000000000000000000000000000000000000000000000000000000000000000000000200000000000000000000000000002000000000000000000000000008000000000000000000000000000000000000000000000080000000400000000000000000000000000000000040000004000000000000000000000000000000000000000000000000000000000000000000000000000000000000000000000000000000000000000000000000000000000000000000000084000100000000000000",
      "type": "0x2",
      "transactionHash": "0x43138098d4f46525d1ab7d4967bbcab0a868518adee6746e376faed014c431c6",
      "transactionIndex": "0x99",
      "blockHash": "0xa4f6d76f51124ba73462a4a9782e758089b67c19ab20ce0d29c14413fc8b72af",
      "blockNumber": "0x72fb61",
      "gasUsed": "0x12372",
      "effectiveGasPrice": "0x3358c762",
      "from": "0x1310cedd03cc8f6ae50f2fb93848070facb042b8",
      "to": "0x28eb5bd20a478e4aacecd831624e77e7e525c55d",
      "contractAddress": null
    },
    {
      "status": "0x1",
      "cumulativeGasUsed": "0x10903cb",
      "logs": [
        {
          "address": "0x3bc1a0ad72417f2d411118085256fc53cbddd137",
          "topics": [
            "0xc3d58168c5ae7397731d063d5bbf3d657854427343f4c083240f7aacaa2d0f62",
            "0x00000000000000000000000028eb5bd20a478e4aacecd831624e77e7e525c55d",
            "0x0000000000000000000000000000000000000000000000000000000000000000",
            "0x0000000000000000000000001310cedd03cc8f6ae50f2fb93848070facb042b8"
          ],
          "data": "0x0000031b000100000000000000000000000000000000000000000000000000000000000000000000000000000000000000000000000000000000000000000001",
          "blockHash": "0xb8ed7e25940e80ba759d7183b11c39686eed3a76180abe349b2f79cb178bf567",
          "blockNumber": "0x72fb63",
          "transactionHash": "0x721fc101181759affa4216049a94eec2c56052571144f1772eb62731a88cd789",
          "transactionIndex": "0x84",
          "logIndex": "0xbc",
          "removed": false
        },
        {
          "address": "0x28eb5bd20a478e4aacecd831624e77e7e525c55d",
          "topics": [
            "0x442e715f626346e8c54381002da614f62bee8d27386535b2521ec8540898556e"
          ],
          "data": "0x1e9d99de431bcf8eb93385bf2c4ca4b875062a5f41b0613d4cd26bd0cf6fe10b0000000000000000000000000000000000000000000000000000000000000000",
          "blockHash": "0xb8ed7e25940e80ba759d7183b11c39686eed3a76180abe349b2f79cb178bf567",
          "blockNumber": "0x72fb63",
          "transactionHash": "0x721fc101181759affa4216049a94eec2c56052571144f1772eb62731a88cd789",
          "transactionIndex": "0x84",
          "logIndex": "0xbd",
          "removed": false
        }
      ],
      "logsBloom": "0x00000000400000000000000000000000000000000000000000000000040000001000000000000000000000000000000000000000000000020000000000002000000000000000000000000000000000000000000004000000000000000000000000000200020000000000000000000800000000000002000000000000000001000000000000000000000000000000000000000000000000000100000000000000000000000000000000000040000004000000000000000000000000000000000000000000000000000000000000020000000000000008000000000000000020000000000000000000000080000000000000000000000100000100080000000000",
      "type": "0x2",
      "transactionHash": "0x721fc101181759affa4216049a94eec2c56052571144f1772eb62731a88cd789",
      "transactionIndex": "0x84",
      "blockHash": "0xb8ed7e25940e80ba759d7183b11c39686eed3a76180abe349b2f79cb178bf567",
      "blockNumber": "0x72fb63",
      "gasUsed": "0x1a68e",
      "effectiveGasPrice": "0x334172c3",
      "from": "0x1310cedd03cc8f6ae50f2fb93848070facb042b8",
      "to": "0x28eb5bd20a478e4aacecd831624e77e7e525c55d",
      "contractAddress": null
    },
    {
      "status": "0x1",
      "cumulativeGasUsed": "0x10aaa59",
      "logs": [
        {
          "address": "0x3bc1a0ad72417f2d411118085256fc53cbddd137",
          "topics": [
            "0xc3d58168c5ae7397731d063d5bbf3d657854427343f4c083240f7aacaa2d0f62",
            "0x00000000000000000000000028eb5bd20a478e4aacecd831624e77e7e525c55d",
            "0x0000000000000000000000000000000000000000000000000000000000000000",
            "0x0000000000000000000000001542612fee591ed35c05a3e980bab325265c06a3"
          ],
          "data": "0x0000031b000100000000000000000000000000000000000000000000000000000000000000000000000000000000000000000000000000000000000000000001",
          "blockHash": "0xb8ed7e25940e80ba759d7183b11c39686eed3a76180abe349b2f79cb178bf567",
          "blockNumber": "0x72fb63",
          "transactionHash": "0x53d32e69d1cd009f2a11ae90be226e4b741552fc08b9dfe1329c511869c642e3",
          "transactionIndex": "0x85",
          "logIndex": "0xbe",
          "removed": false
        },
        {
          "address": "0x28eb5bd20a478e4aacecd831624e77e7e525c55d",
          "topics": [
            "0x442e715f626346e8c54381002da614f62bee8d27386535b2521ec8540898556e"
          ],
          "data": "0x85261fde9656bf2e18a7923c8c30d7039ef50fc0dd7cab5cf1834a263398d54b0000000000000000000000000000000000000000000000000000000000000000",
          "blockHash": "0xb8ed7e25940e80ba759d7183b11c39686eed3a76180abe349b2f79cb178bf567",
          "blockNumber": "0x72fb63",
          "transactionHash": "0x53d32e69d1cd009f2a11ae90be226e4b741552fc08b9dfe1329c511869c642e3",
          "transactionIndex": "0x85",
          "logIndex": "0xbf",
          "removed": false
        }
      ],
      "logsBloom": "0x00000000400000000000000000000000000000000000000000000000840000000000000000000000000000000000000000000000000000020000000000002000000000000000000000000000000000000000000004000000000000000000000000000200020000000000000000000800000000000002000000000000000000000000000000000000000000000000000000000000000000000100000000000000000000000000000000000040000004000000000000000000000000000000008000000000000000000000000000000000000000000008000000000000000020000000000000040000000080000000000000000000000100000100080000000000",
      "type": "0x2",
      "transactionHash": "0x53d32e69d1cd009f2a11ae90be226e4b741552fc08b9dfe1329c511869c642e3",
      "transactionIndex": "0x85",
      "blockHash": "0xb8ed7e25940e80ba759d7183b11c39686eed3a76180abe349b2f79cb178bf567",
      "blockNumber": "0x72fb63",
      "gasUsed": "0x1a68e",
      "effectiveGasPrice": "0x334172c3",
      "from": "0x1310cedd03cc8f6ae50f2fb93848070facb042b8",
      "to": "0x28eb5bd20a478e4aacecd831624e77e7e525c55d",
      "contractAddress": null
    },
    {
      "status": "0x1",
      "cumulativeGasUsed": "0x10c50e7",
      "logs": [
        {
          "address": "0x3bc1a0ad72417f2d411118085256fc53cbddd137",
          "topics": [
            "0xc3d58168c5ae7397731d063d5bbf3d657854427343f4c083240f7aacaa2d0f62",
            "0x00000000000000000000000028eb5bd20a478e4aacecd831624e77e7e525c55d",
            "0x0000000000000000000000000000000000000000000000000000000000000000",
            "0x0000000000000000000000001310cedd03cc8f6ae50f2fb93848070facb042b8"
          ],
          "data": "0x0000031b000200000000000000000000000000000000000000000000000000000000000000000000000000000000000000000000000000000000000000000001",
          "blockHash": "0xb8ed7e25940e80ba759d7183b11c39686eed3a76180abe349b2f79cb178bf567",
          "blockNumber": "0x72fb63",
          "transactionHash": "0x4a57e176741861b8fc0b52c000471947e6f52d53278d7a1e469ffd9f50f2c1a2",
          "transactionIndex": "0x86",
          "logIndex": "0xc0",
          "removed": false
        },
        {
          "address": "0x28eb5bd20a478e4aacecd831624e77e7e525c55d",
          "topics": [
            "0x442e715f626346e8c54381002da614f62bee8d27386535b2521ec8540898556e"
          ],
          "data": "0xa82a3e456f21b2ccb7066df0b24900c14fa505b2d9b9e872572b3736d1b1f0880000000000000000000000000000000000000000000000000000000000000000",
          "blockHash": "0xb8ed7e25940e80ba759d7183b11c39686eed3a76180abe349b2f79cb178bf567",
          "blockNumber": "0x72fb63",
          "transactionHash": "0x4a57e176741861b8fc0b52c000471947e6f52d53278d7a1e469ffd9f50f2c1a2",
          "transactionIndex": "0x86",
          "logIndex": "0xc1",
          "removed": false
        }
      ],
      "logsBloom": "0x00000000400000000000000000000000000000000000000000000000040000001000000000000000000000000000000000000000000000020000000000002000000000000000000000000000000000000000000004000000000000000000000000000200020000000000000000000800000000000002000000000000000001000000000000000000000000000000000000000000000000000100000000000000000000000000000000000040000004000000000000000000000000000000000000000000000000000000000000020000000000000008000000000000000020000000000000000000000080000000000000000000000100000100080000000000",
      "type": "0x2",
      "transactionHash": "0x4a57e176741861b8fc0b52c000471947e6f52d53278d7a1e469ffd9f50f2c1a2",
      "transactionIndex": "0x86",
      "blockHash": "0xb8ed7e25940e80ba759d7183b11c39686eed3a76180abe349b2f79cb178bf567",
      "blockNumber": "0x72fb63",
      "gasUsed": "0x1a68e",
      "effectiveGasPrice": "0x334172c3",
      "from": "0x1310cedd03cc8f6ae50f2fb93848070facb042b8",
      "to": "0x28eb5bd20a478e4aacecd831624e77e7e525c55d",
      "contractAddress": null
    },
    {
      "status": "0x1",
      "cumulativeGasUsed": "0x10df775",
      "logs": [
        {
          "address": "0x3bc1a0ad72417f2d411118085256fc53cbddd137",
          "topics": [
            "0xc3d58168c5ae7397731d063d5bbf3d657854427343f4c083240f7aacaa2d0f62",
            "0x00000000000000000000000028eb5bd20a478e4aacecd831624e77e7e525c55d",
            "0x0000000000000000000000000000000000000000000000000000000000000000",
            "0x0000000000000000000000001542612fee591ed35c05a3e980bab325265c06a3"
          ],
          "data": "0x0000031b000200000000000000000000000000000000000000000000000000000000000000000000000000000000000000000000000000000000000000000001",
          "blockHash": "0xb8ed7e25940e80ba759d7183b11c39686eed3a76180abe349b2f79cb178bf567",
          "blockNumber": "0x72fb63",
          "transactionHash": "0xcb68a4e9543aa4d5c4c354563edafdfa78231d398c4334037a0a9b7723fb79ed",
          "transactionIndex": "0x87",
          "logIndex": "0xc2",
          "removed": false
        },
        {
          "address": "0x28eb5bd20a478e4aacecd831624e77e7e525c55d",
          "topics": [
            "0x442e715f626346e8c54381002da614f62bee8d27386535b2521ec8540898556e"
          ],
          "data": "0x6793b9a706b862560eda1e5942f53a3a5fa9aa2cbba44848b79e08547e56a15b0000000000000000000000000000000000000000000000000000000000000000",
          "blockHash": "0xb8ed7e25940e80ba759d7183b11c39686eed3a76180abe349b2f79cb178bf567",
          "blockNumber": "0x72fb63",
          "transactionHash": "0xcb68a4e9543aa4d5c4c354563edafdfa78231d398c4334037a0a9b7723fb79ed",
          "transactionIndex": "0x87",
          "logIndex": "0xc3",
          "removed": false
        }
      ],
      "logsBloom": "0x00000000400000000000000000000000000000000000000000000000840000000000000000000000000000000000000000000000000000020000000000002000000000000000000000000000000000000000000004000000000000000000000000000200020000000000000000000800000000000002000000000000000000000000000000000000000000000000000000000000000000000100000000000000000000000000000000000040000004000000000000000000000000000000008000000000000000000000000000000000000000000008000000000000000020000000000000040000000080000000000000000000000100000100080000000000",
      "type": "0x2",
      "transactionHash": "0xcb68a4e9543aa4d5c4c354563edafdfa78231d398c4334037a0a9b7723fb79ed",
      "transactionIndex": "0x87",
      "blockHash": "0xb8ed7e25940e80ba759d7183b11c39686eed3a76180abe349b2f79cb178bf567",
      "blockNumber": "0x72fb63",
      "gasUsed": "0x1a68e",
      "effectiveGasPrice": "0x334172c3",
      "from": "0x1310cedd03cc8f6ae50f2fb93848070facb042b8",
      "to": "0x28eb5bd20a478e4aacecd831624e77e7e525c55d",
      "contractAddress": null
    },
    {
      "status": "0x1",
      "cumulativeGasUsed": "0x10f9e03",
      "logs": [
        {
          "address": "0x3bc1a0ad72417f2d411118085256fc53cbddd137",
          "topics": [
            "0xc3d58168c5ae7397731d063d5bbf3d657854427343f4c083240f7aacaa2d0f62",
            "0x00000000000000000000000028eb5bd20a478e4aacecd831624e77e7e525c55d",
            "0x0000000000000000000000000000000000000000000000000000000000000000",
            "0x0000000000000000000000001310cedd03cc8f6ae50f2fb93848070facb042b8"
          ],
          "data": "0x0000031b000300000000000000000000000000000000000000000000000000000000000000000000000000000000000000000000000000000000000000000001",
          "blockHash": "0xb8ed7e25940e80ba759d7183b11c39686eed3a76180abe349b2f79cb178bf567",
          "blockNumber": "0x72fb63",
          "transactionHash": "0x66f52f2566fb6169c3e7d5ba6141ec14a781c91655beaf736664a273e3b0264e",
          "transactionIndex": "0x88",
          "logIndex": "0xc4",
          "removed": false
        },
        {
          "address": "0x28eb5bd20a478e4aacecd831624e77e7e525c55d",
          "topics": [
            "0x442e715f626346e8c54381002da614f62bee8d27386535b2521ec8540898556e"
          ],
          "data": "0xbebe36dca0121eed09252c050e81e39a9ee1bf49c93b626192fc1fa2d28e8a7c0000000000000000000000000000000000000000000000000000000000000000",
          "blockHash": "0xb8ed7e25940e80ba759d7183b11c39686eed3a76180abe349b2f79cb178bf567",
          "blockNumber": "0x72fb63",
          "transactionHash": "0x66f52f2566fb6169c3e7d5ba6141ec14a781c91655beaf736664a273e3b0264e",
          "transactionIndex": "0x88",
          "logIndex": "0xc5",
          "removed": false
        }
      ],
      "logsBloom": "0x00000000400000000000000000000000000000000000000000000000040000001000000000000000000000000000000000000000000000020000000000002000000000000000000000000000000000000000000004000000000000000000000000000200020000000000000000000800000000000002000000000000000001000000000000000000000000000000000000000000000000000100000000000000000000000000000000000040000004000000000000000000000000000000000000000000000000000000000000020000000000000008000000000000000020000000000000000000000080000000000000000000000100000100080000000000",
      "type": "0x2",
      "transactionHash": "0x66f52f2566fb6169c3e7d5ba6141ec14a781c91655beaf736664a273e3b0264e",
      "transactionIndex": "0x88",
      "blockHash": "0xb8ed7e25940e80ba759d7183b11c39686eed3a76180abe349b2f79cb178bf567",
      "blockNumber": "0x72fb63",
      "gasUsed": "0x1a68e",
      "effectiveGasPrice": "0x334172c3",
      "from": "0x1310cedd03cc8f6ae50f2fb93848070facb042b8",
      "to": "0x28eb5bd20a478e4aacecd831624e77e7e525c55d",
      "contractAddress": null
    },
    {
      "status": "0x1",
      "cumulativeGasUsed": "0x1114491",
      "logs": [
        {
          "address": "0x3bc1a0ad72417f2d411118085256fc53cbddd137",
          "topics": [
            "0xc3d58168c5ae7397731d063d5bbf3d657854427343f4c083240f7aacaa2d0f62",
            "0x00000000000000000000000028eb5bd20a478e4aacecd831624e77e7e525c55d",
            "0x0000000000000000000000000000000000000000000000000000000000000000",
            "0x0000000000000000000000001542612fee591ed35c05a3e980bab325265c06a3"
          ],
          "data": "0x0000031b000300000000000000000000000000000000000000000000000000000000000000000000000000000000000000000000000000000000000000000001",
          "blockHash": "0xb8ed7e25940e80ba759d7183b11c39686eed3a76180abe349b2f79cb178bf567",
          "blockNumber": "0x72fb63",
          "transactionHash": "0xc9f9ef2fe0b98d108a98417576d9c32cefd454afff56479507f4d4270791e939",
          "transactionIndex": "0x89",
          "logIndex": "0xc6",
          "removed": false
        },
        {
          "address": "0x28eb5bd20a478e4aacecd831624e77e7e525c55d",
          "topics": [
            "0x442e715f626346e8c54381002da614f62bee8d27386535b2521ec8540898556e"
          ],
          "data": "0x877501c6d2a36def97c0c7ddb840a35dbafe06d663224bc8c4a5c9efa9950d990000000000000000000000000000000000000000000000000000000000000000",
          "blockHash": "0xb8ed7e25940e80ba759d7183b11c39686eed3a76180abe349b2f79cb178bf567",
          "blockNumber": "0x72fb63",
          "transactionHash": "0xc9f9ef2fe0b98d108a98417576d9c32cefd454afff56479507f4d4270791e939",
          "transactionIndex": "0x89",
          "logIndex": "0xc7",
          "removed": false
        }
      ],
      "logsBloom": "0x00000000400000000000000000000000000000000000000000000000840000000000000000000000000000000000000000000000000000020000000000002000000000000000000000000000000000000000000004000000000000000000000000000200020000000000000000000800000000000002000000000000000000000000000000000000000000000000000000000000000000000100000000000000000000000000000000000040000004000000000000000000000000000000008000000000000000000000000000000000000000000008000000000000000020000000000000040000000080000000000000000000000100000100080000000000",
      "type": "0x2",
      "transactionHash": "0xc9f9ef2fe0b98d108a98417576d9c32cefd454afff56479507f4d4270791e939",
      "transactionIndex": "0x89",
      "blockHash": "0xb8ed7e25940e80ba759d7183b11c39686eed3a76180abe349b2f79cb178bf567",
      "blockNumber": "0x72fb63",
      "gasUsed": "0x1a68e",
      "effectiveGasPrice": "0x334172c3",
      "from": "0x1310cedd03cc8f6ae50f2fb93848070facb042b8",
      "to": "0x28eb5bd20a478e4aacecd831624e77e7e525c55d",
      "contractAddress": null
    },
    {
      "status": "0x1",
      "cumulativeGasUsed": "0x112eb1f",
      "logs": [
        {
          "address": "0x3bc1a0ad72417f2d411118085256fc53cbddd137",
          "topics": [
            "0xc3d58168c5ae7397731d063d5bbf3d657854427343f4c083240f7aacaa2d0f62",
            "0x00000000000000000000000028eb5bd20a478e4aacecd831624e77e7e525c55d",
            "0x0000000000000000000000000000000000000000000000000000000000000000",
            "0x0000000000000000000000001310cedd03cc8f6ae50f2fb93848070facb042b8"
          ],
          "data": "0x0000031b000400000000000000000000000000000000000000000000000000000000000000000000000000000000000000000000000000000000000000000001",
          "blockHash": "0xb8ed7e25940e80ba759d7183b11c39686eed3a76180abe349b2f79cb178bf567",
          "blockNumber": "0x72fb63",
          "transactionHash": "0xe5700d8c26cc0b5c8660652ffada6f687e41c23d660f65540c532b5d80575caf",
          "transactionIndex": "0x8a",
          "logIndex": "0xc8",
          "removed": false
        },
        {
          "address": "0x28eb5bd20a478e4aacecd831624e77e7e525c55d",
          "topics": [
            "0x442e715f626346e8c54381002da614f62bee8d27386535b2521ec8540898556e"
          ],
          "data": "0x371507cf4097ceace460cfc8f4531d8ccdd727aaabcc70f7d011a071213fbf890000000000000000000000000000000000000000000000000000000000000000",
          "blockHash": "0xb8ed7e25940e80ba759d7183b11c39686eed3a76180abe349b2f79cb178bf567",
          "blockNumber": "0x72fb63",
          "transactionHash": "0xe5700d8c26cc0b5c8660652ffada6f687e41c23d660f65540c532b5d80575caf",
          "transactionIndex": "0x8a",
          "logIndex": "0xc9",
          "removed": false
        }
      ],
      "logsBloom": "0x00000000400000000000000000000000000000000000000000000000040000001000000000000000000000000000000000000000000000020000000000002000000000000000000000000000000000000000000004000000000000000000000000000200020000000000000000000800000000000002000000000000000001000000000000000000000000000000000000000000000000000100000000000000000000000000000000000040000004000000000000000000000000000000000000000000000000000000000000020000000000000008000000000000000020000000000000000000000080000000000000000000000100000100080000000000",
      "type": "0x2",
      "transactionHash": "0xe5700d8c26cc0b5c8660652ffada6f687e41c23d660f65540c532b5d80575caf",
      "transactionIndex": "0x8a",
      "blockHash": "0xb8ed7e25940e80ba759d7183b11c39686eed3a76180abe349b2f79cb178bf567",
      "blockNumber": "0x72fb63",
      "gasUsed": "0x1a68e",
      "effectiveGasPrice": "0x334172c3",
      "from": "0x1310cedd03cc8f6ae50f2fb93848070facb042b8",
      "to": "0x28eb5bd20a478e4aacecd831624e77e7e525c55d",
      "contractAddress": null
    },
    {
      "status": "0x1",
      "cumulativeGasUsed": "0x11491ad",
      "logs": [
        {
          "address": "0x3bc1a0ad72417f2d411118085256fc53cbddd137",
          "topics": [
            "0xc3d58168c5ae7397731d063d5bbf3d657854427343f4c083240f7aacaa2d0f62",
            "0x00000000000000000000000028eb5bd20a478e4aacecd831624e77e7e525c55d",
            "0x0000000000000000000000000000000000000000000000000000000000000000",
            "0x0000000000000000000000001542612fee591ed35c05a3e980bab325265c06a3"
          ],
          "data": "0x0000031b000400000000000000000000000000000000000000000000000000000000000000000000000000000000000000000000000000000000000000000001",
          "blockHash": "0xb8ed7e25940e80ba759d7183b11c39686eed3a76180abe349b2f79cb178bf567",
          "blockNumber": "0x72fb63",
          "transactionHash": "0x2cc72a1937f7fc8a96d94879efb461bcbac7f747d6d376b7a8216afc1258e51e",
          "transactionIndex": "0x8b",
          "logIndex": "0xca",
          "removed": false
        },
        {
          "address": "0x28eb5bd20a478e4aacecd831624e77e7e525c55d",
          "topics": [
            "0x442e715f626346e8c54381002da614f62bee8d27386535b2521ec8540898556e"
          ],
          "data": "0x42ea0aa35f3d70fd6e3302cc8097b4c68765d6b6ca92b699b5bfcdbe7b7e09130000000000000000000000000000000000000000000000000000000000000000",
          "blockHash": "0xb8ed7e25940e80ba759d7183b11c39686eed3a76180abe349b2f79cb178bf567",
          "blockNumber": "0x72fb63",
          "transactionHash": "0x2cc72a1937f7fc8a96d94879efb461bcbac7f747d6d376b7a8216afc1258e51e",
          "transactionIndex": "0x8b",
          "logIndex": "0xcb",
          "removed": false
        }
      ],
      "logsBloom": "0x00000000400000000000000000000000000000000000000000000000840000000000000000000000000000000000000000000000000000020000000000002000000000000000000000000000000000000000000004000000000000000000000000000200020000000000000000000800000000000002000000000000000000000000000000000000000000000000000000000000000000000100000000000000000000000000000000000040000004000000000000000000000000000000008000000000000000000000000000000000000000000008000000000000000020000000000000040000000080000000000000000000000100000100080000000000",
      "type": "0x2",
      "transactionHash": "0x2cc72a1937f7fc8a96d94879efb461bcbac7f747d6d376b7a8216afc1258e51e",
      "transactionIndex": "0x8b",
      "blockHash": "0xb8ed7e25940e80ba759d7183b11c39686eed3a76180abe349b2f79cb178bf567",
      "blockNumber": "0x72fb63",
      "gasUsed": "0x1a68e",
      "effectiveGasPrice": "0x334172c3",
      "from": "0x1310cedd03cc8f6ae50f2fb93848070facb042b8",
      "to": "0x28eb5bd20a478e4aacecd831624e77e7e525c55d",
      "contractAddress": null
    },
    {
      "status": "0x1",
      "cumulativeGasUsed": "0x115f9c6",
      "logs": [
        {
          "address": "0x28eb5bd20a478e4aacecd831624e77e7e525c55d",
          "topics": [
            "0x442e715f626346e8c54381002da614f62bee8d27386535b2521ec8540898556e"
          ],
          "data": "0xe4167c96c2829371264c8bf920a685ab65e9753041a4a5745fdb592046a527830000000000000000000000000000000000000000000000000000000000000000",
          "blockHash": "0xb8ed7e25940e80ba759d7183b11c39686eed3a76180abe349b2f79cb178bf567",
          "blockNumber": "0x72fb63",
          "transactionHash": "0xcac574ab27f5940947b1e07a8e1195e93d27bd95d06c1c4ed4c5e3d62f5b9e4b",
          "transactionIndex": "0x8c",
          "logIndex": "0xcc",
          "removed": false
        }
      ],
      "logsBloom": "0x00000000400000000000000000000000000000000000000000000000040000000000000000000000000000000000000000000000000000000000000000000000000000000000000000000000000000000000000000000000000000000000000000000200000000000000000000000000000000000000000000000000000000000000000000000000000000000000000000000000000000000000000000000000000000000000000000000040000004000000000000000000000000000000000000000000000000000000000000000000000000000000000000000000000000000000000000000000000000000000000000000000000000000100000000000000",
      "type": "0x2",
      "transactionHash": "0xcac574ab27f5940947b1e07a8e1195e93d27bd95d06c1c4ed4c5e3d62f5b9e4b",
      "transactionIndex": "0x8c",
      "blockHash": "0xb8ed7e25940e80ba759d7183b11c39686eed3a76180abe349b2f79cb178bf567",
      "blockNumber": "0x72fb63",
      "gasUsed": "0x16819",
      "effectiveGasPrice": "0x334172c3",
      "from": "0x1310cedd03cc8f6ae50f2fb93848070facb042b8",
      "to": "0x28eb5bd20a478e4aacecd831624e77e7e525c55d",
      "contractAddress": null
    },
    {
      "status": "0x1",
      "cumulativeGasUsed": "0x11761df",
      "logs": [
        {
          "address": "0x28eb5bd20a478e4aacecd831624e77e7e525c55d",
          "topics": [
            "0x442e715f626346e8c54381002da614f62bee8d27386535b2521ec8540898556e"
          ],
          "data": "0x3b4d7630f3c88dde0bc918f097b9a3abbb623417edb9f0ba317473b4f2d491b10000000000000000000000000000000000000000000000000000000000000000",
          "blockHash": "0xb8ed7e25940e80ba759d7183b11c39686eed3a76180abe349b2f79cb178bf567",
          "blockNumber": "0x72fb63",
          "transactionHash": "0xc05a37cdb0d2129c22531e33e7f49c60d5251d3f3d32340497e4092d42ea4f5b",
          "transactionIndex": "0x8d",
          "logIndex": "0xcd",
          "removed": false
        }
      ],
      "logsBloom": "0x00000000400000000000000000000000000000000000000000000000040000000000000000000000000000000000000000000000000000000000000000000000000000000000000000000000000000000000000000000000000000000000000000000200000000000000000000000000000000000000000000000000000000000000000000000000000000000000000000000000000000000000000000000000000000000000000000000040000004000000000000000000000000000000000000000000000000000000000000000000000000000000000000000000000000000000000000000000000000000000000000000000000000000100000000000000",
      "type": "0x2",
      "transactionHash": "0xc05a37cdb0d2129c22531e33e7f49c60d5251d3f3d32340497e4092d42ea4f5b",
      "transactionIndex": "0x8d",
      "blockHash": "0xb8ed7e25940e80ba759d7183b11c39686eed3a76180abe349b2f79cb178bf567",
      "blockNumber": "0x72fb63",
      "gasUsed": "0x16819",
      "effectiveGasPrice": "0x334172c3",
      "from": "0x1310cedd03cc8f6ae50f2fb93848070facb042b8",
      "to": "0x28eb5bd20a478e4aacecd831624e77e7e525c55d",
      "contractAddress": null
    },
    {
      "status": "0x1",
      "cumulativeGasUsed": "0x118c9f8",
      "logs": [
        {
          "address": "0x28eb5bd20a478e4aacecd831624e77e7e525c55d",
          "topics": [
            "0x442e715f626346e8c54381002da614f62bee8d27386535b2521ec8540898556e"
          ],
          "data": "0x6bf0812d99d33f9373447ffe3baddcf57bbc42c744057aac61762a222a082db60000000000000000000000000000000000000000000000000000000000000000",
          "blockHash": "0xb8ed7e25940e80ba759d7183b11c39686eed3a76180abe349b2f79cb178bf567",
          "blockNumber": "0x72fb63",
          "transactionHash": "0x9f6b0fe08645954ae16500809dd76f84a4dd42c80d6fce01175062b06224c017",
          "transactionIndex": "0x8e",
          "logIndex": "0xce",
          "removed": false
        }
      ],
      "logsBloom": "0x00000000400000000000000000000000000000000000000000000000040000000000000000000000000000000000000000000000000000000000000000000000000000000000000000000000000000000000000000000000000000000000000000000200000000000000000000000000000000000000000000000000000000000000000000000000000000000000000000000000000000000000000000000000000000000000000000000040000004000000000000000000000000000000000000000000000000000000000000000000000000000000000000000000000000000000000000000000000000000000000000000000000000000100000000000000",
      "type": "0x2",
      "transactionHash": "0x9f6b0fe08645954ae16500809dd76f84a4dd42c80d6fce01175062b06224c017",
      "transactionIndex": "0x8e",
      "blockHash": "0xb8ed7e25940e80ba759d7183b11c39686eed3a76180abe349b2f79cb178bf567",
      "blockNumber": "0x72fb63",
      "gasUsed": "0x16819",
      "effectiveGasPrice": "0x334172c3",
      "from": "0x1310cedd03cc8f6ae50f2fb93848070facb042b8",
      "to": "0x28eb5bd20a478e4aacecd831624e77e7e525c55d",
      "contractAddress": null
    },
    {
      "status": "0x1",
      "cumulativeGasUsed": "0x11a3211",
      "logs": [
        {
          "address": "0x28eb5bd20a478e4aacecd831624e77e7e525c55d",
          "topics": [
            "0x442e715f626346e8c54381002da614f62bee8d27386535b2521ec8540898556e"
          ],
          "data": "0x8fbc73931a4686821adffebec98be631eac13a8cdf7a87b21120985e669f6f650000000000000000000000000000000000000000000000000000000000000000",
          "blockHash": "0xb8ed7e25940e80ba759d7183b11c39686eed3a76180abe349b2f79cb178bf567",
          "blockNumber": "0x72fb63",
          "transactionHash": "0xcffaf8a9fb5ef0863b700a09ba90ed01828368d7af2e5a8c6acd59f13fde57db",
          "transactionIndex": "0x8f",
          "logIndex": "0xcf",
          "removed": false
        }
      ],
      "logsBloom": "0x00000000400000000000000000000000000000000000000000000000040000000000000000000000000000000000000000000000000000000000000000000000000000000000000000000000000000000000000000000000000000000000000000000200000000000000000000000000000000000000000000000000000000000000000000000000000000000000000000000000000000000000000000000000000000000000000000000040000004000000000000000000000000000000000000000000000000000000000000000000000000000000000000000000000000000000000000000000000000000000000000000000000000000100000000000000",
      "type": "0x2",
      "transactionHash": "0xcffaf8a9fb5ef0863b700a09ba90ed01828368d7af2e5a8c6acd59f13fde57db",
      "transactionIndex": "0x8f",
      "blockHash": "0xb8ed7e25940e80ba759d7183b11c39686eed3a76180abe349b2f79cb178bf567",
      "blockNumber": "0x72fb63",
      "gasUsed": "0x16819",
      "effectiveGasPrice": "0x334172c3",
      "from": "0x1310cedd03cc8f6ae50f2fb93848070facb042b8",
      "to": "0x28eb5bd20a478e4aacecd831624e77e7e525c55d",
      "contractAddress": null
    }
  ],
  "libraries": [],
  "pending": [],
  "returns": {},
  "timestamp": 1737409730,
  "chain": 11155111,
  "commit": "ff7ad53"
}